{"abi":[{"type":"constructor","inputs":[{"name":"initialOwner","type":"address","internalType":"address"}],"stateMutability":"nonpayable"},{"type":"function","name":"addClaimTopic","inputs":[{"name":"_claimTopic","type":"uint256","internalType":"uint256"}],"outputs":[],"stateMutability":"nonpayable"},{"type":"function","name":"claimTopicExists","inputs":[{"name":"_claimTopic","type":"uint256","internalType":"uint256"}],"outputs":[{"name":"","type":"bool","internalType":"bool"}],"stateMutability":"view"},{"type":"function","name":"getClaimTopics","inputs":[],"outputs":[{"name":"","type":"uint256[]","internalType":"uint256[]"}],"stateMutability":"view"},{"type":"function","name":"getClaimTopicsCount","inputs":[],"outputs":[{"name":"","type":"uint256","internalType":"uint256"}],"stateMutability":"view"},{"type":"function","name":"owner","inputs":[],"outputs":[{"name":"","type":"address","internalType":"address"}],"stateMutability":"view"},{"type":"function","name":"removeClaimTopic","inputs":[{"name":"_claimTopic","type":"uint256","internalType":"uint256"}],"outputs":[],"stateMutability":"nonpayable"},{"type":"function","name":"renounceOwnership","inputs":[],"outputs":[],"stateMutability":"nonpayable"},{"type":"function","name":"transferOwnership","inputs":[{"name":"newOwner","type":"address","internalType":"address"}],"outputs":[],"stateMutability":"nonpayable"},{"type":"event","name":"ClaimTopicAdded","inputs":[{"name":"claimTopic","type":"uint256","indexed":true,"internalType":"uint256"}],"anonymous":false},{"type":"event","name":"ClaimTopicRemoved","inputs":[{"name":"claimTopic","type":"uint256","indexed":true,"internalType":"uint256"}],"anonymous":false},{"type":"event","name":"OwnershipTransferred","inputs":[{"name":"previousOwner","type":"address","indexed":true,"internalType":"address"},{"name":"newOwner","type":"address","indexed":true,"internalType":"address"}],"anonymous":false},{"type":"error","name":"OwnableInvalidOwner","inputs":[{"name":"owner","type":"address","internalType":"address"}]},{"type":"error","name":"OwnableUnauthorizedAccount","inputs":[{"name":"account","type":"address","internalType":"address"}]}],"bytecode":{"object":"0x608060405234801561000f575f5ffd5b50604051610c60380380610c60833981810160405281019061003191906101d7565b805f73ffffffffffffffffffffffffffffffffffffffff168173ffffffffffffffffffffffffffffffffffffffff16036100a2575f6040517f1e4fbdf70000000000000000000000000000000000000000000000000000000081526004016100999190610211565b60405180910390fd5b6100b1816100b860201b60201c565b505061022a565b5f5f5f9054906101000a900473ffffffffffffffffffffffffffffffffffffffff169050815f5f6101000a81548173ffffffffffffffffffffffffffffffffffffffff021916908373ffffffffffffffffffffffffffffffffffffffff1602179055508173ffffffffffffffffffffffffffffffffffffffff168173ffffffffffffffffffffffffffffffffffffffff167f8be0079c531659141344cd1fd0a4f28419497f9722a3daafe3b4186f6b6457e060405160405180910390a35050565b5f5ffd5b5f73ffffffffffffffffffffffffffffffffffffffff82169050919050565b5f6101a68261017d565b9050919050565b6101b68161019c565b81146101c0575f5ffd5b50565b5f815190506101d1816101ad565b92915050565b5f602082840312156101ec576101eb610179565b5b5f6101f9848285016101c3565b91505092915050565b61020b8161019c565b82525050565b5f6020820190506102245f830184610202565b92915050565b610a29806102375f395ff3fe608060405234801561000f575f5ffd5b5060043610610086575f3560e01c8063de223d1011610059578063de223d10146100ea578063df09d60414610108578063e3ba876914610126578063f2fde38b1461015657610086565b8063082978461461008a578063715018a6146100a65780638da5cb5b146100b0578063c7b22551146100ce575b5f5ffd5b6100a4600480360381019061009f919061064f565b610172565b005b6100ae6102ab565b005b6100b86102be565b6040516100c591906106b9565b60405180910390f35b6100e860048036038101906100e3919061064f565b6102e5565b005b6100f261038c565b6040516100ff91906106e1565b60405180910390f35b610110610398565b60405161011d91906107b1565b60405180910390f35b610140600480360381019061013b919061064f565b6103ee565b60405161014d91906107eb565b60405180910390f35b610170600480360381019061016b919061082e565b610445565b005b61017a6104c9565b610183816103ee565b6101c2576040517f08c379a00000000000000000000000000000000000000000000000000000000081526004016101b9906108b3565b60405180910390fd5b5f5f90505b60018054905081101561027a5781600182815481106101e9576101e86108d1565b5b905f5260205f2001540361026d576001808080549050610209919061092b565b8154811061021a576102196108d1565b5b905f5260205f20015460018281548110610237576102366108d1565b5b905f5260205f20018190555060018054806102555761025461095e565b5b600190038181905f5260205f20015f9055905561027a565b80806001019150506101c7565b50807f0b1381093c776453c1bbe54fd68be1b235c65db61d099cb50d194b2991e0eec560405160405180910390a250565b6102b36104c9565b6102bc5f610550565b565b5f5f5f9054906101000a900473ffffffffffffffffffffffffffffffffffffffff16905090565b6102ed6104c9565b6102f6816103ee565b15610336576040517f08c379a000000000000000000000000000000000000000000000000000000000815260040161032d906109d5565b60405180910390fd5b600181908060018154018082558091505060019003905f5260205f20015f9091909190915055807f01c928b7f7ade2949e92366aa9454dbef3a416b731cf6ec786ba9595bbd814d660405160405180910390a250565b5f600180549050905090565b606060018054806020026020016040519081016040528092919081815260200182805480156103e457602002820191905f5260205f20905b8154815260200190600101908083116103d0575b5050505050905090565b5f5f5f90505b60018054905081101561043b578260018281548110610416576104156108d1565b5b905f5260205f2001540361042e576001915050610440565b80806001019150506103f4565b505f90505b919050565b61044d6104c9565b5f73ffffffffffffffffffffffffffffffffffffffff168173ffffffffffffffffffffffffffffffffffffffff16036104bd575f6040517f1e4fbdf70000000000000000000000000000000000000000000000000000000081526004016104b491906106b9565b60405180910390fd5b6104c681610550565b50565b6104d1610611565b73ffffffffffffffffffffffffffffffffffffffff166104ef6102be565b73ffffffffffffffffffffffffffffffffffffffff161461054e57610512610611565b6040517f118cdaa700000000000000000000000000000000000000000000000000000000815260040161054591906106b9565b60405180910390fd5b565b5f5f5f9054906101000a900473ffffffffffffffffffffffffffffffffffffffff169050815f5f6101000a81548173ffffffffffffffffffffffffffffffffffffffff021916908373ffffffffffffffffffffffffffffffffffffffff1602179055508173ffffffffffffffffffffffffffffffffffffffff168173ffffffffffffffffffffffffffffffffffffffff167f8be0079c531659141344cd1fd0a4f28419497f9722a3daafe3b4186f6b6457e060405160405180910390a35050565b5f33905090565b5f5ffd5b5f819050919050565b61062e8161061c565b8114610638575f5ffd5b50565b5f8135905061064981610625565b92915050565b5f6020828403121561066457610663610618565b5b5f6106718482850161063b565b91505092915050565b5f73ffffffffffffffffffffffffffffffffffffffff82169050919050565b5f6106a38261067a565b9050919050565b6106b381610699565b82525050565b5f6020820190506106cc5f8301846106aa565b92915050565b6106db8161061c565b82525050565b5f6020820190506106f45f8301846106d2565b92915050565b5f81519050919050565b5f82825260208201905092915050565b5f819050602082019050919050565b61072c8161061c565b82525050565b5f61073d8383610723565b60208301905092915050565b5f602082019050919050565b5f61075f826106fa565b6107698185610704565b935061077483610714565b805f5b838110156107a457815161078b8882610732565b975061079683610749565b925050600181019050610777565b5085935050505092915050565b5f6020820190508181035f8301526107c98184610755565b905092915050565b5f8115159050919050565b6107e5816107d1565b82525050565b5f6020820190506107fe5f8301846107dc565b92915050565b61080d81610699565b8114610817575f5ffd5b50565b5f8135905061082881610804565b92915050565b5f6020828403121561084357610842610618565b5b5f6108508482850161081a565b91505092915050565b5f82825260208201905092915050565b7f436c61696d20746f70696320646f6573206e6f742065786973740000000000005f82015250565b5f61089d601a83610859565b91506108a882610869565b602082019050919050565b5f6020820190508181035f8301526108ca81610891565b9050919050565b7f4e487b71000000000000000000000000000000000000000000000000000000005f52603260045260245ffd5b7f4e487b71000000000000000000000000000000000000000000000000000000005f52601160045260245ffd5b5f6109358261061c565b91506109408361061c565b9250828203905081811115610958576109576108fe565b5b92915050565b7f4e487b71000000000000000000000000000000000000000000000000000000005f52603160045260245ffd5b7f436c61696d20746f70696320616c7265616479206578697374730000000000005f82015250565b5f6109bf601a83610859565b91506109ca8261098b565b602082019050919050565b5f6020820190508181035f8301526109ec816109b3565b905091905056fea26469706673582212206c7bc8563511f7dc35d53dbed18cdd2295ee6006c043c0bceae16166b91c578264736f6c634300081e0033","linkReferences":{}},"methodIdentifiers":{"addClaimTopic(uint256)":"c7b22551","claimTopicExists(uint256)":"e3ba8769","getClaimTopics()":"df09d604","getClaimTopicsCount()":"de223d10","owner()":"8da5cb5b","removeClaimTopic(uint256)":"08297846","renounceOwnership()":"715018a6","transferOwnership(address)":"f2fde38b"},"id":34}