{"abi":[{"type":"constructor","inputs":[],"stateMutability":"nonpayable"},{"type":"function","name":"AGENT_ROLE","inputs":[],"outputs":[{"name":"","type":"bytes32","internalType":"bytes32"}],"stateMutability":"view"},{"type":"function","name":"COMPLIANCE_ROLE","inputs":[],"outputs":[{"name":"","type":"bytes32","internalType":"bytes32"}],"stateMutability":"view"},{"type":"function","name":"DEFAULT_ADMIN_ROLE","inputs":[],"outputs":[{"name":"","type":"bytes32","internalType":"bytes32"}],"stateMutability":"view"},{"type":"function","name":"addComplianceModule","inputs":[{"name":"module","type":"address","internalType":"address"}],"outputs":[],"stateMutability":"nonpayable"},{"type":"function","name":"addModuleThroughAggregator","inputs":[{"name":"aggregator","type":"address","internalType":"address"},{"name":"module","type":"address","internalType":"address"}],"outputs":[],"stateMutability":"nonpayable"},{"type":"function","name":"allowance","inputs":[{"name":"owner","type":"address","internalType":"address"},{"name":"spender","type":"address","internalType":"address"}],"outputs":[{"name":"","type":"uint256","internalType":"uint256"}],"stateMutability":"view"},{"type":"function","name":"approve","inputs":[{"name":"spender","type":"address","internalType":"address"},{"name":"value","type":"uint256","internalType":"uint256"}],"outputs":[{"name":"","type":"bool","internalType":"bool"}],"stateMutability":"nonpayable"},{"type":"function","name":"balanceOf","inputs":[{"name":"account","type":"address","internalType":"address"}],"outputs":[{"name":"","type":"uint256","internalType":"uint256"}],"stateMutability":"view"},{"type":"function","name":"burn","inputs":[{"name":"from","type":"address","internalType":"address"},{"name":"amount","type":"uint256","internalType":"uint256"}],"outputs":[],"stateMutability":"nonpayable"},{"type":"function","name":"canTransfer","inputs":[{"name":"from","type":"address","internalType":"address"},{"name":"to","type":"address","internalType":"address"},{"name":"amount","type":"uint256","internalType":"uint256"}],"outputs":[{"name":"","type":"bool","internalType":"bool"}],"stateMutability":"view"},{"type":"function","name":"claimTopicsRegistry","inputs":[],"outputs":[{"name":"","type":"address","internalType":"contract ClaimTopicsRegistry"}],"stateMutability":"view"},{"type":"function","name":"complianceModules","inputs":[{"name":"","type":"uint256","internalType":"uint256"}],"outputs":[{"name":"","type":"address","internalType":"contract ICompliance"}],"stateMutability":"view"},{"type":"function","name":"decimals","inputs":[],"outputs":[{"name":"","type":"uint8","internalType":"uint8"}],"stateMutability":"view"},{"type":"function","name":"forcedTransfer","inputs":[{"name":"from","type":"address","internalType":"address"},{"name":"to","type":"address","internalType":"address"},{"name":"amount","type":"uint256","internalType":"uint256"}],"outputs":[],"stateMutability":"nonpayable"},{"type":"function","name":"freezeAccount","inputs":[{"name":"account","type":"address","internalType":"address"}],"outputs":[],"stateMutability":"nonpayable"},{"type":"function","name":"getAggregatorModuleCount","inputs":[{"name":"aggregator","type":"address","internalType":"address"}],"outputs":[{"name":"","type":"uint256","internalType":"uint256"}],"stateMutability":"view"},{"type":"function","name":"getAggregatorModules","inputs":[{"name":"aggregator","type":"address","internalType":"address"}],"outputs":[{"name":"","type":"address[]","internalType":"address[]"}],"stateMutability":"view"},{"type":"function","name":"getComplianceModules","inputs":[],"outputs":[{"name":"","type":"address[]","internalType":"address[]"}],"stateMutability":"view"},{"type":"function","name":"getRoleAdmin","inputs":[{"name":"role","type":"bytes32","internalType":"bytes32"}],"outputs":[{"name":"","type":"bytes32","internalType":"bytes32"}],"stateMutability":"view"},{"type":"function","name":"grantRole","inputs":[{"name":"role","type":"bytes32","internalType":"bytes32"},{"name":"account","type":"address","internalType":"address"}],"outputs":[],"stateMutability":"nonpayable"},{"type":"function","name":"hasRole","inputs":[{"name":"role","type":"bytes32","internalType":"bytes32"},{"name":"account","type":"address","internalType":"address"}],"outputs":[{"name":"","type":"bool","internalType":"bool"}],"stateMutability":"view"},{"type":"function","name":"identityRegistry","inputs":[],"outputs":[{"name":"","type":"address","internalType":"contract IdentityRegistry"}],"stateMutability":"view"},{"type":"function","name":"initialize","inputs":[{"name":"name_","type":"string","internalType":"string"},{"name":"symbol_","type":"string","internalType":"string"},{"name":"decimals_","type":"uint8","internalType":"uint8"},{"name":"admin","type":"address","internalType":"address"}],"outputs":[],"stateMutability":"nonpayable"},{"type":"function","name":"isFrozen","inputs":[{"name":"account","type":"address","internalType":"address"}],"outputs":[{"name":"","type":"bool","internalType":"bool"}],"stateMutability":"view"},{"type":"function","name":"isModuleActiveInAggregator","inputs":[{"name":"aggregator","type":"address","internalType":"address"},{"name":"module","type":"address","internalType":"address"}],"outputs":[{"name":"","type":"bool","internalType":"bool"}],"stateMutability":"view"},{"type":"function","name":"isVerified","inputs":[{"name":"account","type":"address","internalType":"address"}],"outputs":[{"name":"","type":"bool","internalType":"bool"}],"stateMutability":"view"},{"type":"function","name":"mint","inputs":[{"name":"to","type":"address","internalType":"address"},{"name":"amount","type":"uint256","internalType":"uint256"}],"outputs":[],"stateMutability":"nonpayable"},{"type":"function","name":"name","inputs":[],"outputs":[{"name":"","type":"string","internalType":"string"}],"stateMutability":"view"},{"type":"function","name":"pause","inputs":[],"outputs":[],"stateMutability":"nonpayable"},{"type":"function","name":"paused","inputs":[],"outputs":[{"name":"","type":"bool","internalType":"bool"}],"stateMutability":"view"},{"type":"function","name":"removeComplianceModule","inputs":[{"name":"index","type":"uint256","internalType":"uint256"}],"outputs":[],"stateMutability":"nonpayable"},{"type":"function","name":"removeModuleThroughAggregator","inputs":[{"name":"aggregator","type":"address","internalType":"address"},{"name":"module","type":"address","internalType":"address"}],"outputs":[],"stateMutability":"nonpayable"},{"type":"function","name":"renounceRole","inputs":[{"name":"role","type":"bytes32","internalType":"bytes32"},{"name":"callerConfirmation","type":"address","internalType":"address"}],"outputs":[],"stateMutability":"nonpayable"},{"type":"function","name":"revokeRole","inputs":[{"name":"role","type":"bytes32","internalType":"bytes32"},{"name":"account","type":"address","internalType":"address"}],"outputs":[],"stateMutability":"nonpayable"},{"type":"function","name":"setClaimTopicsRegistry","inputs":[{"name":"registry","type":"address","internalType":"address"}],"outputs":[],"stateMutability":"nonpayable"},{"type":"function","name":"setIdentityRegistry","inputs":[{"name":"registry","type":"address","internalType":"address"}],"outputs":[],"stateMutability":"nonpayable"},{"type":"function","name":"setTrustedIssuersRegistry","inputs":[{"name":"registry","type":"address","internalType":"address"}],"outputs":[],"stateMutability":"nonpayable"},{"type":"function","name":"supportsInterface","inputs":[{"name":"interfaceId","type":"bytes4","internalType":"bytes4"}],"outputs":[{"name":"","type":"bool","internalType":"bool"}],"stateMutability":"view"},{"type":"function","name":"symbol","inputs":[],"outputs":[{"name":"","type":"string","internalType":"string"}],"stateMutability":"view"},{"type":"function","name":"totalSupply","inputs":[],"outputs":[{"name":"","type":"uint256","internalType":"uint256"}],"stateMutability":"view"},{"type":"function","name":"transfer","inputs":[{"name":"to","type":"address","internalType":"address"},{"name":"value","type":"uint256","internalType":"uint256"}],"outputs":[{"name":"","type":"bool","internalType":"bool"}],"stateMutability":"nonpayable"},{"type":"function","name":"transferFrom","inputs":[{"name":"from","type":"address","internalType":"address"},{"name":"to","type":"address","internalType":"address"},{"name":"value","type":"uint256","internalType":"uint256"}],"outputs":[{"name":"","type":"bool","internalType":"bool"}],"stateMutability":"nonpayable"},{"type":"function","name":"trustedIssuersRegistry","inputs":[],"outputs":[{"name":"","type":"address","internalType":"contract TrustedIssuersRegistry"}],"stateMutability":"view"},{"type":"function","name":"unfreezeAccount","inputs":[{"name":"account","type":"address","internalType":"address"}],"outputs":[],"stateMutability":"nonpayable"},{"type":"function","name":"unpause","inputs":[],"outputs":[],"stateMutability":"nonpayable"},{"type":"event","name":"Approval","inputs":[{"name":"owner","type":"address","indexed":true,"internalType":"address"},{"name":"spender","type":"address","indexed":true,"internalType":"address"},{"name":"value","type":"uint256","indexed":false,"internalType":"uint256"}],"anonymous":false},{"type":"event","name":"ClaimTopicsRegistrySet","inputs":[{"name":"registry","type":"address","indexed":true,"internalType":"address"}],"anonymous":false},{"type":"event","name":"ComplianceModuleAdded","inputs":[{"name":"module","type":"address","indexed":true,"internalType":"address"}],"anonymous":false},{"type":"event","name":"ComplianceModuleRemoved","inputs":[{"name":"module","type":"address","indexed":true,"internalType":"address"}],"anonymous":false},{"type":"event","name":"Frozen","inputs":[{"name":"account","type":"address","indexed":true,"internalType":"address"}],"anonymous":false},{"type":"event","name":"IdentityRegistrySet","inputs":[{"name":"registry","type":"address","indexed":true,"internalType":"address"}],"anonymous":false},{"type":"event","name":"Initialized","inputs":[{"name":"version","type":"uint64","indexed":false,"internalType":"uint64"}],"anonymous":false},{"type":"event","name":"Paused","inputs":[{"name":"account","type":"address","indexed":false,"internalType":"address"}],"anonymous":false},{"type":"event","name":"RoleAdminChanged","inputs":[{"name":"role","type":"bytes32","indexed":true,"internalType":"bytes32"},{"name":"previousAdminRole","type":"bytes32","indexed":true,"internalType":"bytes32"},{"name":"newAdminRole","type":"bytes32","indexed":true,"internalType":"bytes32"}],"anonymous":false},{"type":"event","name":"RoleGranted","inputs":[{"name":"role","type":"bytes32","indexed":true,"internalType":"bytes32"},{"name":"account","type":"address","indexed":true,"internalType":"address"},{"name":"sender","type":"address","indexed":true,"internalType":"address"}],"anonymous":false},{"type":"event","name":"RoleRevoked","inputs":[{"name":"role","type":"bytes32","indexed":true,"internalType":"bytes32"},{"name":"account","type":"address","indexed":true,"internalType":"address"},{"name":"sender","type":"address","indexed":true,"internalType":"address"}],"anonymous":false},{"type":"event","name":"Transfer","inputs":[{"name":"from","type":"address","indexed":true,"internalType":"address"},{"name":"to","type":"address","indexed":true,"internalType":"address"},{"name":"value","type":"uint256","indexed":false,"internalType":"uint256"}],"anonymous":false},{"type":"event","name":"TrustedIssuersRegistrySet","inputs":[{"name":"registry","type":"address","indexed":true,"internalType":"address"}],"anonymous":false},{"type":"event","name":"Unfrozen","inputs":[{"name":"account","type":"address","indexed":true,"internalType":"address"}],"anonymous":false},{"type":"event","name":"Unpaused","inputs":[{"name":"account","type":"address","indexed":false,"internalType":"address"}],"anonymous":false},{"type":"error","name":"AccessControlBadConfirmation","inputs":[]},{"type":"error","name":"AccessControlUnauthorizedAccount","inputs":[{"name":"account","type":"address","internalType":"address"},{"name":"neededRole","type":"bytes32","internalType":"bytes32"}]},{"type":"error","name":"ERC20InsufficientAllowance","inputs":[{"name":"spender","type":"address","internalType":"address"},{"name":"allowance","type":"uint256","internalType":"uint256"},{"name":"needed","type":"uint256","internalType":"uint256"}]},{"type":"error","name":"ERC20InsufficientBalance","inputs":[{"name":"sender","type":"address","internalType":"address"},{"name":"balance","type":"uint256","internalType":"uint256"},{"name":"needed","type":"uint256","internalType":"uint256"}]},{"type":"error","name":"ERC20InvalidApprover","inputs":[{"name":"approver","type":"address","internalType":"address"}]},{"type":"error","name":"ERC20InvalidReceiver","inputs":[{"name":"receiver","type":"address","internalType":"address"}]},{"type":"error","name":"ERC20InvalidSender","inputs":[{"name":"sender","type":"address","internalType":"address"}]},{"type":"error","name":"ERC20InvalidSpender","inputs":[{"name":"spender","type":"address","internalType":"address"}]},{"type":"error","name":"EnforcedPause","inputs":[]},{"type":"error","name":"ExpectedPause","inputs":[]},{"type":"error","name":"InvalidInitialization","inputs":[]},{"type":"error","name":"NotInitializing","inputs":[]}],"bytecode":{"object":"0x608060405234801561000f575f5ffd5b5061001e61002360201b60201c565b61019e565b5f61003261012160201b60201c565b9050805f0160089054906101000a900460ff161561007c576040517ff92ee8a900000000000000000000000000000000000000000000000000000000815260040160405180910390fd5b67ffffffffffffffff8016815f015f9054906101000a900467ffffffffffffffff1667ffffffffffffffff161461011e5767ffffffffffffffff815f015f6101000a81548167ffffffffffffffff021916908367ffffffffffffffff1602179055507fc7f505b2f371ae2175ee4913f4499e1f2633a7b5936321eed1cdaeb6115181d267ffffffffffffffff6040516101159190610185565b60405180910390a15b50565b5f5f61013161013a60201b60201c565b90508091505090565b5f7ff0c57e16840df040f15088dc2f81fe391c3923bec73e23a9662efc9c229c6a005f1b905090565b5f67ffffffffffffffff82169050919050565b61017f81610163565b82525050565b5f6020820190506101985f830184610176565b92915050565b615071806101ab5f395ff3fe608060405234801561000f575f5ffd5b506004361061027d575f3560e01c8063670af6a91161015a578063b9209e33116100cc578063e46638e611610085578063e46638e6146107a7578063e5839836146107d7578063e744d78914610807578063f26c159f14610823578063f2d598031461083f578063fb703a7b1461086f5761027d565b8063b9209e33146106d5578063c8be2d1c14610705578063cbf3f86114610723578063d547741f1461073f578063dd62ed3e1461075b578063de7ea79d1461078b5761027d565b806391d148541161011e57806391d148541461060157806395d89b41146106315780639dc29fac1461064f5780639fc1d0e71461066b578063a217fddf14610687578063a9059cbb146106a55761027d565b8063670af6a91461057357806370a082311461058f578063788649ea146105bf5780638456cb59146105db578063867f88ce146105e55761027d565b8063217a1059116101f35780632f2ff15d116101b75780632f2ff15d146104d9578063313ce567146104f557806336568abe146105135780633f4ba83a1461052f57806340c10f19146105395780635c975abb146105555761027d565b8063217a10591461040f57806322459e181461043f57806323b872dd1461045d578063248a9ca31461048d57806325a87867146104bd5761027d565b8063095ea7b311610245578063095ea7b3146103275780630baba06614610357578063134e18f41461038757806318160ddd146103a55780631a63fcd8146103c35780631b72a105146103f35761027d565b806301f4abf41461028157806301ffc9a71461029d578063062d3bd7146102cd57806306fdde03146102eb5780630876132414610309575b5f5ffd5b61029b60048036038101906102969190613c4b565b61088d565b005b6102b760048036038101906102b29190613cde565b610adc565b6040516102c49190613d23565b60405180910390f35b6102d5610b55565b6040516102e29190613d54565b60405180910390f35b6102f3610b79565b6040516103009190613ddd565b60405180910390f35b610311610c17565b60405161031e9190613e58565b60405180910390f35b610341600480360381019061033c9190613ea4565b610c3c565b60405161034e9190613d23565b60405180910390f35b610371600480360381019061036c9190613ee2565b610c5e565b60405161037e9190613f1c565b60405180910390f35b61038f610d4c565b60405161039c9190613f55565b60405180910390f35b6103ad610d70565b6040516103ba9190613f1c565b60405180910390f35b6103dd60048036038101906103d89190613f6e565b610d87565b6040516103ea9190613fb9565b60405180910390f35b61040d60048036038101906104089190613ee2565b610dc2565b005b61042960048036038101906104249190613ee2565b610f01565b6040516104369190614089565b60405180910390f35b610447610ff3565b6040516104549190613d54565b60405180910390f35b610477600480360381019061047291906140a9565b611017565b6040516104849190613d23565b60405180910390f35b6104a760048036038101906104a29190614123565b611045565b6040516104b49190613d54565b60405180910390f35b6104d760048036038101906104d29190613c4b565b61106f565b005b6104f360048036038101906104ee919061414e565b6111e2565b005b6104fd611204565b60405161050a91906141a7565b60405180910390f35b61052d6004803603810190610528919061414e565b611219565b005b610537611294565b005b610553600480360381019061054e9190613ea4565b6112ab565b005b61055d611505565b60405161056a9190613d23565b60405180910390f35b61058d60048036038101906105889190613ee2565b611527565b005b6105a960048036038101906105a49190613ee2565b611628565b6040516105b69190613f1c565b60405180910390f35b6105d960048036038101906105d49190613ee2565b61167b565b005b6105e3611740565b005b6105ff60048036038101906105fa9190613f6e565b611757565b005b61061b6004803603810190610616919061414e565b611939565b6040516106289190613d23565b60405180910390f35b6106396119aa565b6040516106469190613ddd565b60405180910390f35b61066960048036038101906106649190613ea4565b611a48565b005b610685600480360381019061068091906140a9565b611b44565b005b61068f611cbf565b60405161069c9190613d54565b60405180910390f35b6106bf60048036038101906106ba9190613ea4565b611cc5565b6040516106cc9190613d23565b60405180910390f35b6106ef60048036038101906106ea9190613ee2565b611ce7565b6040516106fc9190613d23565b60405180910390f35b61070d612324565b60405161071a9190614089565b60405180910390f35b61073d60048036038101906107389190613ee2565b612427565b005b6107596004803603810190610754919061414e565b612527565b005b61077560048036038101906107709190613c4b565b612549565b6040516107829190613f1c565b60405180910390f35b6107a560048036038101906107a09190614316565b6125d9565b005b6107c160048036038101906107bc91906140a9565b612879565b6040516107ce9190613d23565b60405180910390f35b6107f160048036038101906107ec9190613ee2565b612a4f565b6040516107fe9190613d23565b60405180910390f35b610821600480360381019061081c9190613ee2565b612aa1565b005b61083d60048036038101906108389190613ee2565b612ba2565b005b61085960048036038101906108549190613c4b565b612c68565b6040516108669190613d23565b60405180910390f35b610877612d59565b60405161088491906143d2565b60405180910390f35b7f442a94f1a1fac79af32856af2a64f63648cfa2ef3b98610a5bb7cbec4cee69856108b781612d7e565b5f73ffffffffffffffffffffffffffffffffffffffff168373ffffffffffffffffffffffffffffffffffffffff1603610925576040517f08c379a000000000000000000000000000000000000000000000000000000000815260040161091c90614435565b60405180910390fd5b5f73ffffffffffffffffffffffffffffffffffffffff168273ffffffffffffffffffffffffffffffffffffffff1603610993576040517f08c379a000000000000000000000000000000000000000000000000000000000815260040161098a9061449d565b60405180910390fd5b5f5f90505f5f90505b600380549050811015610a2d578473ffffffffffffffffffffffffffffffffffffffff16600382815481106109d4576109d36144bb565b5b905f5260205f20015f9054906101000a900473ffffffffffffffffffffffffffffffffffffffff1673ffffffffffffffffffffffffffffffffffffffff1603610a205760019150610a2d565b808060010191505061099c565b5080610a6e576040517f08c379a0000000000000000000000000000000000000000000000000000000008152600401610a6590614558565b60405180910390fd5b8373ffffffffffffffffffffffffffffffffffffffff16635a1db8c430856040518363ffffffff1660e01b8152600401610aa9929190614585565b5f604051808303815f87803b158015610ac0575f5ffd5b505af1158015610ad2573d5f5f3e3d5ffd5b5050505050505050565b5f7f7965db0b000000000000000000000000000000000000000000000000000000007bffffffffffffffffffffffffffffffffffffffffffffffffffffffff1916827bffffffffffffffffffffffffffffffffffffffffffffffffffffffff19161480610b4e5750610b4d82612d92565b5b9050919050565b7f442a94f1a1fac79af32856af2a64f63648cfa2ef3b98610a5bb7cbec4cee698581565b60605f610b84612dfb565b9050806003018054610b95906145d9565b80601f0160208091040260200160405190810160405280929190818152602001828054610bc1906145d9565b8015610c0c5780601f10610be357610100808354040283529160200191610c0c565b820191905f5260205f20905b815481529060010190602001808311610bef57829003601f168201915b505050505091505090565b60025f9054906101000a900473ffffffffffffffffffffffffffffffffffffffff1681565b5f5f610c46612e22565b9050610c53818585612e29565b600191505092915050565b5f5f73ffffffffffffffffffffffffffffffffffffffff168273ffffffffffffffffffffffffffffffffffffffff1603610ccd576040517f08c379a0000000000000000000000000000000000000000000000000000000008152600401610cc490614435565b60405180910390fd5b8173ffffffffffffffffffffffffffffffffffffffff16634ed72ef8306040518263ffffffff1660e01b8152600401610d069190614609565b602060405180830381865afa158015610d21573d5f5f3e3d5ffd5b505050506040513d601f19601f82011682018060405250810190610d459190614636565b9050919050565b5f5f9054906101000a900473ffffffffffffffffffffffffffffffffffffffff1681565b5f5f610d7a612dfb565b9050806002015491505090565b60038181548110610d96575f80fd5b905f5260205f20015f915054906101000a900473ffffffffffffffffffffffffffffffffffffffff1681565b7f442a94f1a1fac79af32856af2a64f63648cfa2ef3b98610a5bb7cbec4cee6985610dec81612d7e565b5f73ffffffffffffffffffffffffffffffffffffffff168273ffffffffffffffffffffffffffffffffffffffff1603610e5a576040517f08c379a0000000000000000000000000000000000000000000000000000000008152600401610e519061449d565b60405180910390fd5b600382908060018154018082558091505060019003905f5260205f20015f9091909190916101000a81548173ffffffffffffffffffffffffffffffffffffffff021916908373ffffffffffffffffffffffffffffffffffffffff1602179055508173ffffffffffffffffffffffffffffffffffffffff167fe1be16b136432bd24b5b1388a40ec7863174aff11cc151ab59749f87da9fdee160405160405180910390a25050565b60605f73ffffffffffffffffffffffffffffffffffffffff168273ffffffffffffffffffffffffffffffffffffffff1603610f71576040517f08c379a0000000000000000000000000000000000000000000000000000000008152600401610f6890614435565b60405180910390fd5b8173ffffffffffffffffffffffffffffffffffffffff166366764500306040518263ffffffff1660e01b8152600401610faa9190614609565b5f60405180830381865afa158015610fc4573d5f5f3e3d5ffd5b505050506040513d5f823e3d601f19601f82011682018060405250810190610fec9190614739565b9050919050565b7fcab5a0bfe0b79d2c4b1c2e02599fa044d115b7511f9659307cb427695096770981565b5f5f611021612e22565b905061102e858285612e3b565b611039858585612ece565b60019150509392505050565b5f5f61104f612fbe565b9050805f015f8481526020019081526020015f2060010154915050919050565b7f442a94f1a1fac79af32856af2a64f63648cfa2ef3b98610a5bb7cbec4cee698561109981612d7e565b5f73ffffffffffffffffffffffffffffffffffffffff168373ffffffffffffffffffffffffffffffffffffffff1603611107576040517f08c379a00000000000000000000000000000000000000000000000000000000081526004016110fe90614435565b60405180910390fd5b5f73ffffffffffffffffffffffffffffffffffffffff168273ffffffffffffffffffffffffffffffffffffffff1603611175576040517f08c379a000000000000000000000000000000000000000000000000000000000815260040161116c9061449d565b60405180910390fd5b8273ffffffffffffffffffffffffffffffffffffffff16636a36e3a230846040518363ffffffff1660e01b81526004016111b0929190614585565b5f604051808303815f87803b1580156111c7575f5ffd5b505af11580156111d9573d5f5f3e3d5ffd5b50505050505050565b6111eb82611045565b6111f481612d7e565b6111fe8383612fe5565b50505050565b5f60065f9054906101000a900460ff16905090565b611221612e22565b73ffffffffffffffffffffffffffffffffffffffff168173ffffffffffffffffffffffffffffffffffffffff1614611285576040517f6697b23200000000000000000000000000000000000000000000000000000000815260040160405180910390fd5b61128f82826130dd565b505050565b5f5f1b6112a081612d7e565b6112a86131d5565b50565b7fcab5a0bfe0b79d2c4b1c2e02599fa044d115b7511f9659307cb42769509677096112d581612d7e565b6112de83611ce7565b61131d576040517f08c379a0000000000000000000000000000000000000000000000000000000008152600401611314906147ca565b60405180910390fd5b5f5f90505b6003805490508110156114325760038181548110611343576113426144bb565b5b905f5260205f20015f9054906101000a900473ffffffffffffffffffffffffffffffffffffffff1673ffffffffffffffffffffffffffffffffffffffff1663e46638e65f86866040518463ffffffff1660e01b81526004016113a7939291906147e8565b602060405180830381865afa1580156113c2573d5f5f3e3d5ffd5b505050506040513d601f19601f820116820180604052508101906113e69190614847565b611425576040517f08c379a000000000000000000000000000000000000000000000000000000000815260040161141c906148bc565b60405180910390fd5b8080600101915050611322565b5061143d8383613243565b5f5f90505b6003805490508110156114ff5760038181548110611463576114626144bb565b5b905f5260205f20015f9054906101000a900473ffffffffffffffffffffffffffffffffffffffff1673ffffffffffffffffffffffffffffffffffffffff16635f8dead385856040518363ffffffff1660e01b81526004016114c59291906148da565b5f604051808303815f87803b1580156114dc575f5ffd5b505af11580156114ee573d5f5f3e3d5ffd5b505050508080600101915050611442565b50505050565b5f5f61150f6132c2565b9050805f015f9054906101000a900460ff1691505090565b5f5f1b61153381612d7e565b5f73ffffffffffffffffffffffffffffffffffffffff168273ffffffffffffffffffffffffffffffffffffffff16036115a1576040517f08c379a00000000000000000000000000000000000000000000000000000000081526004016115989061494b565b60405180910390fd5b8160025f6101000a81548173ffffffffffffffffffffffffffffffffffffffff021916908373ffffffffffffffffffffffffffffffffffffffff1602179055508173ffffffffffffffffffffffffffffffffffffffff167f7170bf15b246e880b2369cd7c67d057760d8a35149e8c64dde91efa22bcc76d060405160405180910390a25050565b5f5f611632612dfb565b9050805f015f8473ffffffffffffffffffffffffffffffffffffffff1673ffffffffffffffffffffffffffffffffffffffff1681526020019081526020015f2054915050919050565b7fcab5a0bfe0b79d2c4b1c2e02599fa044d115b7511f9659307cb42769509677096116a581612d7e565b5f60075f8473ffffffffffffffffffffffffffffffffffffffff1673ffffffffffffffffffffffffffffffffffffffff1681526020019081526020015f205f6101000a81548160ff0219169083151502179055508173ffffffffffffffffffffffffffffffffffffffff167f4feb53e305297ab8fb8f3420c95ea04737addc254a7270d8fc4605d2b9c61dba60405160405180910390a25050565b5f5f1b61174c81612d7e565b6117546132e9565b50565b7f442a94f1a1fac79af32856af2a64f63648cfa2ef3b98610a5bb7cbec4cee698561178181612d7e565b60038054905082106117c8576040517f08c379a00000000000000000000000000000000000000000000000000000000081526004016117bf906149b3565b60405180910390fd5b5f600383815481106117dd576117dc6144bb565b5b905f5260205f20015f9054906101000a900473ffffffffffffffffffffffffffffffffffffffff1690506003600160038054905061181b91906149fe565b8154811061182c5761182b6144bb565b5b905f5260205f20015f9054906101000a900473ffffffffffffffffffffffffffffffffffffffff1660038481548110611868576118676144bb565b5b905f5260205f20015f6101000a81548173ffffffffffffffffffffffffffffffffffffffff021916908373ffffffffffffffffffffffffffffffffffffffff16021790555060038054806118bf576118be614a31565b5b600190038181905f5260205f20015f6101000a81549073ffffffffffffffffffffffffffffffffffffffff021916905590558073ffffffffffffffffffffffffffffffffffffffff167ff3f11f4e6b87d4c3587a337c4533dab5c1dee243f72c0e77c1341a876157bbbe60405160405180910390a2505050565b5f5f611943612fbe565b9050805f015f8581526020019081526020015f205f015f8473ffffffffffffffffffffffffffffffffffffffff1673ffffffffffffffffffffffffffffffffffffffff1681526020019081526020015f205f9054906101000a900460ff1691505092915050565b60605f6119b5612dfb565b90508060040180546119c6906145d9565b80601f01602080910402602001604051908101604052809291908181526020018280546119f2906145d9565b8015611a3d5780601f10611a1457610100808354040283529160200191611a3d565b820191905f5260205f20905b815481529060010190602001808311611a2057829003601f168201915b505050505091505090565b7fcab5a0bfe0b79d2c4b1c2e02599fa044d115b7511f9659307cb4276950967709611a7281612d7e565b611a7c8383613358565b5f5f90505b600380549050811015611b3e5760038181548110611aa257611aa16144bb565b5b905f5260205f20015f9054906101000a900473ffffffffffffffffffffffffffffffffffffffff1673ffffffffffffffffffffffffffffffffffffffff16638d2ea77285856040518363ffffffff1660e01b8152600401611b049291906148da565b5f604051808303815f87803b158015611b1b575f5ffd5b505af1158015611b2d573d5f5f3e3d5ffd5b505050508080600101915050611a81565b50505050565b7fcab5a0bfe0b79d2c4b1c2e02599fa044d115b7511f9659307cb4276950967709611b6e81612d7e565b611b7783611ce7565b611bb6576040517f08c379a0000000000000000000000000000000000000000000000000000000008152600401611bad906147ca565b60405180910390fd5b600160085f6101000a81548160ff021916908315150217905550611bdb8484846133d7565b5f60085f6101000a81548160ff0219169083151502179055505f5f90505b600380549050811015611cb85760038181548110611c1a57611c196144bb565b5b905f5260205f20015f9054906101000a900473ffffffffffffffffffffffffffffffffffffffff1673ffffffffffffffffffffffffffffffffffffffff16638baf29b48686866040518463ffffffff1660e01b8152600401611c7e939291906147e8565b5f604051808303815f87803b158015611c95575f5ffd5b505af1158015611ca7573d5f5f3e3d5ffd5b505050508080600101915050611bf9565b5050505050565b5f5f1b81565b5f5f611ccf612e22565b9050611cdc818585612ece565b600191505092915050565b5f5f73ffffffffffffffffffffffffffffffffffffffff165f5f9054906101000a900473ffffffffffffffffffffffffffffffffffffffff1673ffffffffffffffffffffffffffffffffffffffff1603611d43575f905061231f565b5f5f9054906101000a900473ffffffffffffffffffffffffffffffffffffffff1673ffffffffffffffffffffffffffffffffffffffff1663c3c5a547836040518263ffffffff1660e01b8152600401611d9c9190614609565b602060405180830381865afa158015611db7573d5f5f3e3d5ffd5b505050506040513d601f19601f82011682018060405250810190611ddb9190614847565b611de7575f905061231f565b5f5f5f9054906101000a900473ffffffffffffffffffffffffffffffffffffffff1673ffffffffffffffffffffffffffffffffffffffff16632fea7b81846040518263ffffffff1660e01b8152600401611e419190614609565b602060405180830381865afa158015611e5c573d5f5f3e3d5ffd5b505050506040513d601f19601f82011682018060405250810190611e809190614a5e565b90505f73ffffffffffffffffffffffffffffffffffffffff168173ffffffffffffffffffffffffffffffffffffffff1603611ebe575f91505061231f565b5f73ffffffffffffffffffffffffffffffffffffffff1660025f9054906101000a900473ffffffffffffffffffffffffffffffffffffffff1673ffffffffffffffffffffffffffffffffffffffff1603611f1c57600191505061231f565b5f60025f9054906101000a900473ffffffffffffffffffffffffffffffffffffffff1673ffffffffffffffffffffffffffffffffffffffff1663df09d6046040518163ffffffff1660e01b81526004015f60405180830381865afa158015611f86573d5f5f3e3d5ffd5b505050506040513d5f823e3d601f19601f82011682018060405250810190611fae9190614b49565b90505f5f90505b8151811015612317575f5f90505f73ffffffffffffffffffffffffffffffffffffffff1660015f9054906101000a900473ffffffffffffffffffffffffffffffffffffffff1673ffffffffffffffffffffffffffffffffffffffff16146122f8575f60015f9054906101000a900473ffffffffffffffffffffffffffffffffffffffff1673ffffffffffffffffffffffffffffffffffffffff1663d9dd24c56040518163ffffffff1660e01b81526004015f60405180830381865afa158015612080573d5f5f3e3d5ffd5b505050506040513d5f823e3d601f19601f820116820180604052508101906120a89190614739565b90505f5f90505b81518110156122f55760015f9054906101000a900473ffffffffffffffffffffffffffffffffffffffff1673ffffffffffffffffffffffffffffffffffffffff166334a89987838381518110612108576121076144bb565b5b6020026020010151878781518110612123576121226144bb565b5b60200260200101516040518363ffffffff1660e01b81526004016121489291906148da565b602060405180830381865afa158015612163573d5f5f3e3d5ffd5b505050506040513d601f19601f820116820180604052508101906121879190614847565b156122e8575f5f8773ffffffffffffffffffffffffffffffffffffffff168787815181106121b8576121b76144bb565b5b60200260200101518585815181106121d3576121d26144bb565b5b60200260200101516040516024016121ec929190614b90565b6040516020818303038152906040527f2c30941f000000000000000000000000000000000000000000000000000000007bffffffffffffffffffffffffffffffffffffffffffffffffffffffff19166020820180517bffffffffffffffffffffffffffffffffffffffffffffffffffffffff83818316178352505050506040516122769190614bfb565b5f60405180830381855afa9150503d805f81146122ae576040519150601f19603f3d011682016040523d82523d5f602084013e6122b3565b606091505b50915091508180156122d55750808060200190518101906122d49190614847565b5b156122e5576001945050506122f5565b50505b80806001019150506120af565b50505b80612309575f94505050505061231f565b508080600101915050611fb5565b506001925050505b919050565b60605f60038054905067ffffffffffffffff811115612346576123456141c8565b5b6040519080825280602002602001820160405280156123745781602001602082028036833780820191505090505b5090505f5f90505b60038054905081101561241f576003818154811061239d5761239c6144bb565b5b905f5260205f20015f9054906101000a900473ffffffffffffffffffffffffffffffffffffffff168282815181106123d8576123d76144bb565b5b602002602001019073ffffffffffffffffffffffffffffffffffffffff16908173ffffffffffffffffffffffffffffffffffffffff1681525050808060010191505061237c565b508091505090565b5f5f1b61243381612d7e565b5f73ffffffffffffffffffffffffffffffffffffffff168273ffffffffffffffffffffffffffffffffffffffff16036124a1576040517f08c379a00000000000000000000000000000000000000000000000000000000081526004016124989061494b565b60405180910390fd5b815f5f6101000a81548173ffffffffffffffffffffffffffffffffffffffff021916908373ffffffffffffffffffffffffffffffffffffffff1602179055508173ffffffffffffffffffffffffffffffffffffffff167f8aa6172b9dcbe4f05892121059bc535d4743d706ba3ac6cbabf4a40de229e38860405160405180910390a25050565b61253082611045565b61253981612d7e565b61254383836130dd565b50505050565b5f5f612553612dfb565b9050806001015f8573ffffffffffffffffffffffffffffffffffffffff1673ffffffffffffffffffffffffffffffffffffffff1681526020019081526020015f205f8473ffffffffffffffffffffffffffffffffffffffff1673ffffffffffffffffffffffffffffffffffffffff1681526020019081526020015f205491505092915050565b5f6125e2613602565b90505f815f0160089054906101000a900460ff161590505f825f015f9054906101000a900467ffffffffffffffff1690505f5f8267ffffffffffffffff1614801561262a5750825b90505f60018367ffffffffffffffff1614801561265d57505f3073ffffffffffffffffffffffffffffffffffffffff163b145b90508115801561266b575080155b156126a2576040517ff92ee8a900000000000000000000000000000000000000000000000000000000815260040160405180910390fd5b6001855f015f6101000a81548167ffffffffffffffff021916908367ffffffffffffffff16021790555083156126ef576001855f0160086101000a81548160ff0219169083151502179055505b5f73ffffffffffffffffffffffffffffffffffffffff168673ffffffffffffffffffffffffffffffffffffffff160361275d576040517f08c379a000000000000000000000000000000000000000000000000000000000815260040161275490614c5b565b60405180910390fd5b6127678989613615565b61276f61362b565b612777613635565b88600490816127869190614e10565b5087600590816127969190614e10565b508660065f6101000a81548160ff021916908360ff1602179055506127bd5f5f1b87612fe5565b506127e87fcab5a0bfe0b79d2c4b1c2e02599fa044d115b7511f9659307cb427695096770987612fe5565b506128137f442a94f1a1fac79af32856af2a64f63648cfa2ef3b98610a5bb7cbec4cee698587612fe5565b50831561286e575f855f0160086101000a81548160ff0219169083151502179055507fc7f505b2f371ae2175ee4913f4499e1f2633a7b5936321eed1cdaeb6115181d260016040516128659190614f2b565b60405180910390a15b505050505050505050565b5f612882611505565b1561288f575f9050612a48565b60075f8573ffffffffffffffffffffffffffffffffffffffff1673ffffffffffffffffffffffffffffffffffffffff1681526020019081526020015f205f9054906101000a900460ff168061292a575060075f8473ffffffffffffffffffffffffffffffffffffffff1673ffffffffffffffffffffffffffffffffffffffff1681526020019081526020015f205f9054906101000a900460ff165b15612937575f9050612a48565b61294084611ce7565b1580612952575061295083611ce7565b155b1561295f575f9050612a48565b5f5f90505b600380549050811015612a425760038181548110612985576129846144bb565b5b905f5260205f20015f9054906101000a900473ffffffffffffffffffffffffffffffffffffffff1673ffffffffffffffffffffffffffffffffffffffff1663e46638e68686866040518463ffffffff1660e01b81526004016129e9939291906147e8565b602060405180830381865afa158015612a04573d5f5f3e3d5ffd5b505050506040513d601f19601f82011682018060405250810190612a289190614847565b612a35575f915050612a48565b8080600101915050612964565b50600190505b9392505050565b5f60075f8373ffffffffffffffffffffffffffffffffffffffff1673ffffffffffffffffffffffffffffffffffffffff1681526020019081526020015f205f9054906101000a900460ff169050919050565b5f5f1b612aad81612d7e565b5f73ffffffffffffffffffffffffffffffffffffffff168273ffffffffffffffffffffffffffffffffffffffff1603612b1b576040517f08c379a0000000000000000000000000000000000000000000000000000000008152600401612b129061494b565b60405180910390fd5b8160015f6101000a81548173ffffffffffffffffffffffffffffffffffffffff021916908373ffffffffffffffffffffffffffffffffffffffff1602179055508173ffffffffffffffffffffffffffffffffffffffff167f1b98cb79e6f73020175fe87333f1b91ad6a881519c0afe30340c2599b2b4bde060405160405180910390a25050565b7fcab5a0bfe0b79d2c4b1c2e02599fa044d115b7511f9659307cb4276950967709612bcc81612d7e565b600160075f8473ffffffffffffffffffffffffffffffffffffffff1673ffffffffffffffffffffffffffffffffffffffff1681526020019081526020015f205f6101000a81548160ff0219169083151502179055508173ffffffffffffffffffffffffffffffffffffffff167f8a5c4736a33c7b7f29a2c34ea9ff9608afc5718d56f6fd6dcbd2d3711a1a491360405160405180910390a25050565b5f5f73ffffffffffffffffffffffffffffffffffffffff168373ffffffffffffffffffffffffffffffffffffffff1603612cd7576040517f08c379a0000000000000000000000000000000000000000000000000000000008152600401612cce90614435565b60405180910390fd5b8273ffffffffffffffffffffffffffffffffffffffff1663e5faf00a30846040518363ffffffff1660e01b8152600401612d12929190614585565b602060405180830381865afa158015612d2d573d5f5f3e3d5ffd5b505050506040513d601f19601f82011682018060405250810190612d519190614847565b905092915050565b60015f9054906101000a900473ffffffffffffffffffffffffffffffffffffffff1681565b612d8f81612d8a612e22565b61363f565b50565b5f7f01ffc9a7000000000000000000000000000000000000000000000000000000007bffffffffffffffffffffffffffffffffffffffffffffffffffffffff1916827bffffffffffffffffffffffffffffffffffffffffffffffffffffffff1916149050919050565b5f7f52c63247e1f47db19d5ce0460030c497f067ca4cebf71ba98eeadabe20bace00905090565b5f33905090565b612e368383836001613690565b505050565b5f612e468484612549565b90507fffffffffffffffffffffffffffffffffffffffffffffffffffffffffffffffff811015612ec85781811015612eb9578281836040517ffb8f41b2000000000000000000000000000000000000000000000000000000008152600401612eb093929190614f44565b60405180910390fd5b612ec784848484035f613690565b5b50505050565b5f73ffffffffffffffffffffffffffffffffffffffff168373ffffffffffffffffffffffffffffffffffffffff1603612f3e575f6040517f96c6fd1e000000000000000000000000000000000000000000000000000000008152600401612f359190614609565b60405180910390fd5b5f73ffffffffffffffffffffffffffffffffffffffff168273ffffffffffffffffffffffffffffffffffffffff1603612fae575f6040517fec442f05000000000000000000000000000000000000000000000000000000008152600401612fa59190614609565b60405180910390fd5b612fb98383836133d7565b505050565b5f7f02dd7bc7dec4dceedda775e58dd541e08a116c6c53815c0bd028192f7b626800905090565b5f5f612fef612fbe565b9050612ffb8484611939565b6130d2576001815f015f8681526020019081526020015f205f015f8573ffffffffffffffffffffffffffffffffffffffff1673ffffffffffffffffffffffffffffffffffffffff1681526020019081526020015f205f6101000a81548160ff02191690831515021790555061306e612e22565b73ffffffffffffffffffffffffffffffffffffffff168373ffffffffffffffffffffffffffffffffffffffff16857f2f8788117e7eff1d82e926ec794901d17c78024a50270940304540a733656f0d60405160405180910390a460019150506130d7565b5f9150505b92915050565b5f5f6130e7612fbe565b90506130f38484611939565b156131ca575f815f015f8681526020019081526020015f205f015f8573ffffffffffffffffffffffffffffffffffffffff1673ffffffffffffffffffffffffffffffffffffffff1681526020019081526020015f205f6101000a81548160ff021916908315150217905550613166612e22565b73ffffffffffffffffffffffffffffffffffffffff168373ffffffffffffffffffffffffffffffffffffffff16857ff6391f5c32d9c69d2a47ea670b442974b53935d1edc7fd64eb21e047a839171b60405160405180910390a460019150506131cf565b5f9150505b92915050565b6131dd61386d565b5f6131e66132c2565b90505f815f015f6101000a81548160ff0219169083151502179055507f5db9ee0a495bf2e6ff9c91a7834c1ba4fdd244a5e8aa4e537bd38aeae4b073aa61322b612e22565b6040516132389190614609565b60405180910390a150565b5f73ffffffffffffffffffffffffffffffffffffffff168273ffffffffffffffffffffffffffffffffffffffff16036132b3575f6040517fec442f050000000000000000000000000000000000000000000000000000000081526004016132aa9190614609565b60405180910390fd5b6132be5f83836133d7565b5050565b5f7fcd5ed15c6e187e77e9aee88184c21f4f2182ab5827cb3b7e07fbedcd63f03300905090565b6132f16138ad565b5f6132fa6132c2565b90506001815f015f6101000a81548160ff0219169083151502179055507f62e78cea01bee320cd4e420270b5ea74000d11b0c9f74754ebdbfc544b05a258613340612e22565b60405161334d9190614609565b60405180910390a150565b5f73ffffffffffffffffffffffffffffffffffffffff168273ffffffffffffffffffffffffffffffffffffffff16036133c8575f6040517f96c6fd1e0000000000000000000000000000000000000000000000000000000081526004016133bf9190614609565b60405180910390fd5b6133d3825f836133d7565b5050565b5f73ffffffffffffffffffffffffffffffffffffffff168373ffffffffffffffffffffffffffffffffffffffff161415801561343f57505f73ffffffffffffffffffffffffffffffffffffffff168273ffffffffffffffffffffffffffffffffffffffff1614155b8015613457575060085f9054906101000a900460ff16155b156134a757613467838383612879565b6134a6576040517f08c379a000000000000000000000000000000000000000000000000000000000815260040161349d90614fc3565b60405180910390fd5b5b6134b28383836138ee565b5f73ffffffffffffffffffffffffffffffffffffffff168373ffffffffffffffffffffffffffffffffffffffff161415801561351a57505f73ffffffffffffffffffffffffffffffffffffffff168273ffffffffffffffffffffffffffffffffffffffff1614155b8015613532575060085f9054906101000a900460ff16155b156135fd575f5f90505b6003805490508110156135fb576003818154811061355d5761355c6144bb565b5b905f5260205f20015f9054906101000a900473ffffffffffffffffffffffffffffffffffffffff1673ffffffffffffffffffffffffffffffffffffffff16638baf29b48585856040518463ffffffff1660e01b81526004016135c1939291906147e8565b5f604051808303815f87803b1580156135d8575f5ffd5b505af11580156135ea573d5f5f3e3d5ffd5b50505050808060010191505061353c565b505b505050565b5f5f61360c613b1d565b90508091505090565b61361d613b46565b6136278282613b86565b5050565b613633613b46565b565b61363d613b46565b565b6136498282611939565b61368c5780826040517fe2517d3f000000000000000000000000000000000000000000000000000000008152600401613683929190614fe1565b60405180910390fd5b5050565b5f613699612dfb565b90505f73ffffffffffffffffffffffffffffffffffffffff168573ffffffffffffffffffffffffffffffffffffffff160361370b575f6040517fe602df050000000000000000000000000000000000000000000000000000000081526004016137029190614609565b60405180910390fd5b5f73ffffffffffffffffffffffffffffffffffffffff168473ffffffffffffffffffffffffffffffffffffffff160361377b575f6040517f94280d620000000000000000000000000000000000000000000000000000000081526004016137729190614609565b60405180910390fd5b82816001015f8773ffffffffffffffffffffffffffffffffffffffff1673ffffffffffffffffffffffffffffffffffffffff1681526020019081526020015f205f8673ffffffffffffffffffffffffffffffffffffffff1673ffffffffffffffffffffffffffffffffffffffff1681526020019081526020015f20819055508115613866578373ffffffffffffffffffffffffffffffffffffffff168573ffffffffffffffffffffffffffffffffffffffff167f8c5be1e5ebec7d5bd14f71427d1e84f3dd0314c0f7b2291e5b200ac8c7c3b9258560405161385d9190613f1c565b60405180910390a35b5050505050565b613875611505565b6138ab576040517f8dfc202b00000000000000000000000000000000000000000000000000000000815260040160405180910390fd5b565b6138b5611505565b156138ec576040517fd93c066500000000000000000000000000000000000000000000000000000000815260040160405180910390fd5b565b5f6138f7612dfb565b90505f73ffffffffffffffffffffffffffffffffffffffff168473ffffffffffffffffffffffffffffffffffffffff160361394b5781816002015f82825461393f9190615008565b92505081905550613a1d565b5f815f015f8673ffffffffffffffffffffffffffffffffffffffff1673ffffffffffffffffffffffffffffffffffffffff1681526020019081526020015f20549050828110156139d6578481846040517fe450d38c0000000000000000000000000000000000000000000000000000000081526004016139cd93929190614f44565b60405180910390fd5b828103825f015f8773ffffffffffffffffffffffffffffffffffffffff1673ffffffffffffffffffffffffffffffffffffffff1681526020019081526020015f2081905550505b5f73ffffffffffffffffffffffffffffffffffffffff168373ffffffffffffffffffffffffffffffffffffffff1603613a665781816002015f8282540392505081905550613ab2565b81815f015f8573ffffffffffffffffffffffffffffffffffffffff1673ffffffffffffffffffffffffffffffffffffffff1681526020019081526020015f205f82825401925050819055505b8273ffffffffffffffffffffffffffffffffffffffff168473ffffffffffffffffffffffffffffffffffffffff167fddf252ad1be2c89b69c2b068fc378daa952ba7f163c4a11628f55a4df523b3ef84604051613b0f9190613f1c565b60405180910390a350505050565b5f7ff0c57e16840df040f15088dc2f81fe391c3923bec73e23a9662efc9c229c6a005f1b905090565b613b4e613bc2565b613b84576040517fd7e6bcf800000000000000000000000000000000000000000000000000000000815260040160405180910390fd5b565b613b8e613b46565b5f613b97612dfb565b905082816003019081613baa9190614e10565b5081816004019081613bbc9190614e10565b50505050565b5f613bcb613602565b5f0160089054906101000a900460ff16905090565b5f604051905090565b5f5ffd5b5f5ffd5b5f73ffffffffffffffffffffffffffffffffffffffff82169050919050565b5f613c1a82613bf1565b9050919050565b613c2a81613c10565b8114613c34575f5ffd5b50565b5f81359050613c4581613c21565b92915050565b5f5f60408385031215613c6157613c60613be9565b5b5f613c6e85828601613c37565b9250506020613c7f85828601613c37565b9150509250929050565b5f7fffffffff0000000000000000000000000000000000000000000000000000000082169050919050565b613cbd81613c89565b8114613cc7575f5ffd5b50565b5f81359050613cd881613cb4565b92915050565b5f60208284031215613cf357613cf2613be9565b5b5f613d0084828501613cca565b91505092915050565b5f8115159050919050565b613d1d81613d09565b82525050565b5f602082019050613d365f830184613d14565b92915050565b5f819050919050565b613d4e81613d3c565b82525050565b5f602082019050613d675f830184613d45565b92915050565b5f81519050919050565b5f82825260208201905092915050565b8281835e5f83830152505050565b5f601f19601f8301169050919050565b5f613daf82613d6d565b613db98185613d77565b9350613dc9818560208601613d87565b613dd281613d95565b840191505092915050565b5f6020820190508181035f830152613df58184613da5565b905092915050565b5f819050919050565b5f613e20613e1b613e1684613bf1565b613dfd565b613bf1565b9050919050565b5f613e3182613e06565b9050919050565b5f613e4282613e27565b9050919050565b613e5281613e38565b82525050565b5f602082019050613e6b5f830184613e49565b92915050565b5f819050919050565b613e8381613e71565b8114613e8d575f5ffd5b50565b5f81359050613e9e81613e7a565b92915050565b5f5f60408385031215613eba57613eb9613be9565b5b5f613ec785828601613c37565b9250506020613ed885828601613e90565b9150509250929050565b5f60208284031215613ef757613ef6613be9565b5b5f613f0484828501613c37565b91505092915050565b613f1681613e71565b82525050565b5f602082019050613f2f5f830184613f0d565b92915050565b5f613f3f82613e27565b9050919050565b613f4f81613f35565b82525050565b5f602082019050613f685f830184613f46565b92915050565b5f60208284031215613f8357613f82613be9565b5b5f613f9084828501613e90565b91505092915050565b5f613fa382613e27565b9050919050565b613fb381613f99565b82525050565b5f602082019050613fcc5f830184613faa565b92915050565b5f81519050919050565b5f82825260208201905092915050565b5f819050602082019050919050565b61400481613c10565b82525050565b5f6140158383613ffb565b60208301905092915050565b5f602082019050919050565b5f61403782613fd2565b6140418185613fdc565b935061404c83613fec565b805f5b8381101561407c578151614063888261400a565b975061406e83614021565b92505060018101905061404f565b5085935050505092915050565b5f6020820190508181035f8301526140a1818461402d565b905092915050565b5f5f5f606084860312156140c0576140bf613be9565b5b5f6140cd86828701613c37565b93505060206140de86828701613c37565b92505060406140ef86828701613e90565b9150509250925092565b61410281613d3c565b811461410c575f5ffd5b50565b5f8135905061411d816140f9565b92915050565b5f6020828403121561413857614137613be9565b5b5f6141458482850161410f565b91505092915050565b5f5f6040838503121561416457614163613be9565b5b5f6141718582860161410f565b925050602061418285828601613c37565b9150509250929050565b5f60ff82169050919050565b6141a18161418c565b82525050565b5f6020820190506141ba5f830184614198565b92915050565b5f5ffd5b5f5ffd5b7f4e487b71000000000000000000000000000000000000000000000000000000005f52604160045260245ffd5b6141fe82613d95565b810181811067ffffffffffffffff8211171561421d5761421c6141c8565b5b80604052505050565b5f61422f613be0565b905061423b82826141f5565b919050565b5f67ffffffffffffffff82111561425a576142596141c8565b5b61426382613d95565b9050602081019050919050565b828183375f83830152505050565b5f61429061428b84614240565b614226565b9050828152602081018484840111156142ac576142ab6141c4565b5b6142b7848285614270565b509392505050565b5f82601f8301126142d3576142d26141c0565b5b81356142e384826020860161427e565b91505092915050565b6142f58161418c565b81146142ff575f5ffd5b50565b5f81359050614310816142ec565b92915050565b5f5f5f5f6080858703121561432e5761432d613be9565b5b5f85013567ffffffffffffffff81111561434b5761434a613bed565b5b614357878288016142bf565b945050602085013567ffffffffffffffff81111561437857614377613bed565b5b614384878288016142bf565b935050604061439587828801614302565b92505060606143a687828801613c37565b91505092959194509250565b5f6143bc82613e27565b9050919050565b6143cc816143b2565b82525050565b5f6020820190506143e55f8301846143c3565b92915050565b7f496e76616c69642061676772656761746f7220616464726573730000000000005f82015250565b5f61441f601a83613d77565b915061442a826143eb565b602082019050919050565b5f6020820190508181035f83015261444c81614413565b9050919050565b7f496e76616c6964206d6f64756c652061646472657373000000000000000000005f82015250565b5f614487601683613d77565b915061449282614453565b602082019050919050565b5f6020820190508181035f8301526144b48161447b565b9050919050565b7f4e487b71000000000000000000000000000000000000000000000000000000005f52603260045260245ffd5b7f41676772656761746f72206e6f7420616464656420617320636f6d706c69616e5f8201527f6365206d6f64756c650000000000000000000000000000000000000000000000602082015250565b5f614542602983613d77565b915061454d826144e8565b604082019050919050565b5f6020820190508181035f83015261456f81614536565b9050919050565b61457f81613c10565b82525050565b5f6040820190506145985f830185614576565b6145a56020830184614576565b9392505050565b7f4e487b71000000000000000000000000000000000000000000000000000000005f52602260045260245ffd5b5f60028204905060018216806145f057607f821691505b602082108103614603576146026145ac565b5b50919050565b5f60208201905061461c5f830184614576565b92915050565b5f8151905061463081613e7a565b92915050565b5f6020828403121561464b5761464a613be9565b5b5f61465884828501614622565b91505092915050565b5f67ffffffffffffffff82111561467b5761467a6141c8565b5b602082029050602081019050919050565b5f5ffd5b5f8151905061469e81613c21565b92915050565b5f6146b66146b184614661565b614226565b905080838252602082019050602084028301858111156146d9576146d861468c565b5b835b8181101561470257806146ee8882614690565b8452602084019350506020810190506146db565b5050509392505050565b5f82601f8301126147205761471f6141c0565b5b81516147308482602086016146a4565b91505092915050565b5f6020828403121561474e5761474d613be9565b5b5f82015167ffffffffffffffff81111561476b5761476a613bed565b5b6147778482850161470c565b91505092915050565b7f526563697069656e74206e6f74207665726966696564000000000000000000005f82015250565b5f6147b4601683613d77565b91506147bf82614780565b602082019050919050565b5f6020820190508181035f8301526147e1816147a8565b9050919050565b5f6060820190506147fb5f830186614576565b6148086020830185614576565b6148156040830184613f0d565b949350505050565b61482681613d09565b8114614830575f5ffd5b50565b5f815190506148418161481d565b92915050565b5f6020828403121561485c5761485b613be9565b5b5f61486984828501614833565b91505092915050565b7f4d696e74206e6f7420636f6d706c69616e7400000000000000000000000000005f82015250565b5f6148a6601283613d77565b91506148b182614872565b602082019050919050565b5f6020820190508181035f8301526148d38161489a565b9050919050565b5f6040820190506148ed5f830185614576565b6148fa6020830184613f0d565b9392505050565b7f496e76616c6964207265676973747279206164647265737300000000000000005f82015250565b5f614935601883613d77565b915061494082614901565b602082019050919050565b5f6020820190508181035f83015261496281614929565b9050919050565b7f496e76616c696420696e646578000000000000000000000000000000000000005f82015250565b5f61499d600d83613d77565b91506149a882614969565b602082019050919050565b5f6020820190508181035f8301526149ca81614991565b9050919050565b7f4e487b71000000000000000000000000000000000000000000000000000000005f52601160045260245ffd5b5f614a0882613e71565b9150614a1383613e71565b9250828203905081811115614a2b57614a2a6149d1565b5b92915050565b7f4e487b71000000000000000000000000000000000000000000000000000000005f52603160045260245ffd5b5f60208284031215614a7357614a72613be9565b5b5f614a8084828501614690565b91505092915050565b5f67ffffffffffffffff821115614aa357614aa26141c8565b5b602082029050602081019050919050565b5f614ac6614ac184614a89565b614226565b90508083825260208201905060208402830185811115614ae957614ae861468c565b5b835b81811015614b125780614afe8882614622565b845260208401935050602081019050614aeb565b5050509392505050565b5f82601f830112614b3057614b2f6141c0565b5b8151614b40848260208601614ab4565b91505092915050565b5f60208284031215614b5e57614b5d613be9565b5b5f82015167ffffffffffffffff811115614b7b57614b7a613bed565b5b614b8784828501614b1c565b91505092915050565b5f604082019050614ba35f830185613f0d565b614bb06020830184614576565b9392505050565b5f81519050919050565b5f81905092915050565b5f614bd582614bb7565b614bdf8185614bc1565b9350614bef818560208601613d87565b80840191505092915050565b5f614c068284614bcb565b915081905092915050565b7f496e76616c69642061646d696e206164647265737300000000000000000000005f82015250565b5f614c45601583613d77565b9150614c5082614c11565b602082019050919050565b5f6020820190508181035f830152614c7281614c39565b9050919050565b5f819050815f5260205f209050919050565b5f6020601f8301049050919050565b5f82821b905092915050565b5f60088302614cd57fffffffffffffffffffffffffffffffffffffffffffffffffffffffffffffffff82614c9a565b614cdf8683614c9a565b95508019841693508086168417925050509392505050565b5f614d11614d0c614d0784613e71565b613dfd565b613e71565b9050919050565b5f819050919050565b614d2a83614cf7565b614d3e614d3682614d18565b848454614ca6565b825550505050565b5f5f905090565b614d55614d46565b614d60818484614d21565b505050565b5b81811015614d8357614d785f82614d4d565b600181019050614d66565b5050565b601f821115614dc857614d9981614c79565b614da284614c8b565b81016020851015614db1578190505b614dc5614dbd85614c8b565b830182614d65565b50505b505050565b5f82821c905092915050565b5f614de85f1984600802614dcd565b1980831691505092915050565b5f614e008383614dd9565b9150826002028217905092915050565b614e1982613d6d565b67ffffffffffffffff811115614e3257614e316141c8565b5b614e3c82546145d9565b614e47828285614d87565b5f60209050601f831160018114614e78575f8415614e66578287015190505b614e708582614df5565b865550614ed7565b601f198416614e8686614c79565b5f5b82811015614ead57848901518255600182019150602085019450602081019050614e88565b86831015614eca5784890151614ec6601f891682614dd9565b8355505b6001600288020188555050505b505050505050565b5f819050919050565b5f67ffffffffffffffff82169050919050565b5f614f15614f10614f0b84614edf565b613dfd565b614ee8565b9050919050565b614f2581614efb565b82525050565b5f602082019050614f3e5f830184614f1c565b92915050565b5f606082019050614f575f830186614576565b614f646020830185613f0d565b614f716040830184613f0d565b949350505050565b7f5472616e73666572206e6f7420636f6d706c69616e74000000000000000000005f82015250565b5f614fad601683613d77565b9150614fb882614f79565b602082019050919050565b5f6020820190508181035f830152614fda81614fa1565b9050919050565b5f604082019050614ff45f830185614576565b6150016020830184613d45565b9392505050565b5f61501282613e71565b915061501d83613e71565b9250828201905080821115615035576150346149d1565b5b9291505056fea2646970667358221220028ebbad54875432eadf181a920e52b535ef7b45a01ec366cb1dc178a8432b2b64736f6c634300081e0033","linkReferences":{}},"methodIdentifiers":{"AGENT_ROLE()":"22459e18","COMPLIANCE_ROLE()":"062d3bd7","DEFAULT_ADMIN_ROLE()":"a217fddf","addComplianceModule(address)":"1b72a105","addModuleThroughAggregator(address,address)":"01f4abf4","allowance(address,address)":"dd62ed3e","approve(address,uint256)":"095ea7b3","balanceOf(address)":"70a08231","burn(address,uint256)":"9dc29fac","canTransfer(address,address,uint256)":"e46638e6","claimTopicsRegistry()":"08761324","complianceModules(uint256)":"1a63fcd8","decimals()":"313ce567","forcedTransfer(address,address,uint256)":"9fc1d0e7","freezeAccount(address)":"f26c159f","getAggregatorModuleCount(address)":"0baba066","getAggregatorModules(address)":"217a1059","getComplianceModules()":"c8be2d1c","getRoleAdmin(bytes32)":"248a9ca3","grantRole(bytes32,address)":"2f2ff15d","hasRole(bytes32,address)":"91d14854","identityRegistry()":"134e18f4","initialize(string,string,uint8,address)":"de7ea79d","isFrozen(address)":"e5839836","isModuleActiveInAggregator(address,address)":"f2d59803","isVerified(address)":"b9209e33","mint(address,uint256)":"40c10f19","name()":"06fdde03","pause()":"8456cb59","paused()":"5c975abb","removeComplianceModule(uint256)":"867f88ce","removeModuleThroughAggregator(address,address)":"25a87867","renounceRole(bytes32,address)":"36568abe","revokeRole(bytes32,address)":"d547741f","setClaimTopicsRegistry(address)":"670af6a9","setIdentityRegistry(address)":"cbf3f861","setTrustedIssuersRegistry(address)":"e744d789","supportsInterface(bytes4)":"01ffc9a7","symbol()":"95d89b41","totalSupply()":"18160ddd","transfer(address,uint256)":"a9059cbb","transferFrom(address,address,uint256)":"23b872dd","trustedIssuersRegistry()":"fb703a7b","unfreezeAccount(address)":"788649ea","unpause()":"3f4ba83a"},"id":50}