{"abi":[{"type":"constructor","inputs":[{"name":"initialOwner","type":"address","internalType":"address"}],"stateMutability":"nonpayable"},{"type":"function","name":"addClaim","inputs":[{"name":"_topic","type":"uint256","internalType":"uint256"},{"name":"_scheme","type":"uint256","internalType":"uint256"},{"name":"_issuer","type":"address","internalType":"address"},{"name":"_signature","type":"bytes","internalType":"bytes"},{"name":"_data","type":"bytes","internalType":"bytes"},{"name":"_uri","type":"string","internalType":"string"}],"outputs":[{"name":"","type":"bytes32","internalType":"bytes32"}],"stateMutability":"nonpayable"},{"type":"function","name":"claimExists","inputs":[{"name":"_topic","type":"uint256","internalType":"uint256"},{"name":"_issuer","type":"address","internalType":"address"}],"outputs":[{"name":"","type":"bool","internalType":"bool"}],"stateMutability":"view"},{"type":"function","name":"getClaim","inputs":[{"name":"_topic","type":"uint256","internalType":"uint256"},{"name":"_issuer","type":"address","internalType":"address"}],"outputs":[{"name":"topic","type":"uint256","internalType":"uint256"},{"name":"scheme","type":"uint256","internalType":"uint256"},{"name":"issuer","type":"address","internalType":"address"},{"name":"signature","type":"bytes","internalType":"bytes"},{"name":"data","type":"bytes","internalType":"bytes"},{"name":"uri","type":"string","internalType":"string"}],"stateMutability":"view"},{"type":"function","name":"owner","inputs":[],"outputs":[{"name":"","type":"address","internalType":"address"}],"stateMutability":"view"},{"type":"function","name":"removeClaim","inputs":[{"name":"_topic","type":"uint256","internalType":"uint256"},{"name":"_issuer","type":"address","internalType":"address"}],"outputs":[{"name":"","type":"bool","internalType":"bool"}],"stateMutability":"nonpayable"},{"type":"function","name":"renounceOwnership","inputs":[],"outputs":[],"stateMutability":"nonpayable"},{"type":"function","name":"transferOwnership","inputs":[{"name":"newOwner","type":"address","internalType":"address"}],"outputs":[],"stateMutability":"nonpayable"},{"type":"event","name":"ClaimAdded","inputs":[{"name":"topic","type":"uint256","indexed":true,"internalType":"uint256"},{"name":"scheme","type":"uint256","indexed":false,"internalType":"uint256"},{"name":"issuer","type":"address","indexed":true,"internalType":"address"},{"name":"signature","type":"bytes","indexed":false,"internalType":"bytes"},{"name":"data","type":"bytes","indexed":false,"internalType":"bytes"},{"name":"uri","type":"string","indexed":false,"internalType":"string"}],"anonymous":false},{"type":"event","name":"ClaimRemoved","inputs":[{"name":"topic","type":"uint256","indexed":true,"internalType":"uint256"},{"name":"issuer","type":"address","indexed":true,"internalType":"address"}],"anonymous":false},{"type":"event","name":"OwnershipTransferred","inputs":[{"name":"previousOwner","type":"address","indexed":true,"internalType":"address"},{"name":"newOwner","type":"address","indexed":true,"internalType":"address"}],"anonymous":false},{"type":"error","name":"OwnableInvalidOwner","inputs":[{"name":"owner","type":"address","internalType":"address"}]},{"type":"error","name":"OwnableUnauthorizedAccount","inputs":[{"name":"account","type":"address","internalType":"address"}]}],"bytecode":{"object":"0x608060405234801561000f575f5ffd5b506040516116a23803806116a2833981810160405281019061003191906101d7565b805f73ffffffffffffffffffffffffffffffffffffffff168173ffffffffffffffffffffffffffffffffffffffff16036100a2575f6040517f1e4fbdf70000000000000000000000000000000000000000000000000000000081526004016100999190610211565b60405180910390fd5b6100b1816100b860201b60201c565b505061022a565b5f5f5f9054906101000a900473ffffffffffffffffffffffffffffffffffffffff169050815f5f6101000a81548173ffffffffffffffffffffffffffffffffffffffff021916908373ffffffffffffffffffffffffffffffffffffffff1602179055508173ffffffffffffffffffffffffffffffffffffffff168173ffffffffffffffffffffffffffffffffffffffff167f8be0079c531659141344cd1fd0a4f28419497f9722a3daafe3b4186f6b6457e060405160405180910390a35050565b5f5ffd5b5f73ffffffffffffffffffffffffffffffffffffffff82169050919050565b5f6101a68261017d565b9050919050565b6101b68161019c565b81146101c0575f5ffd5b50565b5f815190506101d1816101ad565b92915050565b5f602082840312156101ec576101eb610179565b5b5f6101f9848285016101c3565b91505092915050565b61020b8161019c565b82525050565b5f6020820190506102245f830184610202565b92915050565b61146b806102375f395ff3fe608060405234801561000f575f5ffd5b506004361061007b575f3560e01c80638da5cb5b116100595780638da5cb5b146100ee578063b1a34e0d1461010c578063b38175361461013c578063f2fde38b1461016c5761007b565b80632c30941f1461007f57806348e6b5a3146100af578063715018a6146100e4575b5f5ffd5b61009960048036038101906100949190610ae2565b610188565b6040516100a69190610b3a565b60405180910390f35b6100c960048036038101906100c49190610ae2565b61022f565b6040516100db96959493929190610c33565b60405180910390f35b6100ec6104dd565b005b6100f66104f0565b6040516101039190610ca7565b60405180910390f35b61012660048036038101906101219190610e8a565b610517565b6040516101339190610f7f565b60405180910390f35b61015660048036038101906101519190610ae2565b6106d6565b6040516101639190610b3a565b60405180910390f35b61018660048036038101906101819190610f98565b6107dc565b005b5f5f73ffffffffffffffffffffffffffffffffffffffff1660015f8581526020019081526020015f205f8473ffffffffffffffffffffffffffffffffffffffff1673ffffffffffffffffffffffffffffffffffffffff1681526020019081526020015f206002015f9054906101000a900473ffffffffffffffffffffffffffffffffffffffff1673ffffffffffffffffffffffffffffffffffffffff161415905092915050565b5f5f5f60608060605f60015f8a81526020019081526020015f205f8973ffffffffffffffffffffffffffffffffffffffff1673ffffffffffffffffffffffffffffffffffffffff1681526020019081526020015f206040518060c00160405290815f820154815260200160018201548152602001600282015f9054906101000a900473ffffffffffffffffffffffffffffffffffffffff1673ffffffffffffffffffffffffffffffffffffffff1673ffffffffffffffffffffffffffffffffffffffff16815260200160038201805461030790610ff0565b80601f016020809104026020016040519081016040528092919081815260200182805461033390610ff0565b801561037e5780601f106103555761010080835404028352916020019161037e565b820191905f5260205f20905b81548152906001019060200180831161036157829003601f168201915b5050505050815260200160048201805461039790610ff0565b80601f01602080910402602001604051908101604052809291908181526020018280546103c390610ff0565b801561040e5780601f106103e55761010080835404028352916020019161040e565b820191905f5260205f20905b8154815290600101906020018083116103f157829003601f168201915b5050505050815260200160058201805461042790610ff0565b80601f016020809104026020016040519081016040528092919081815260200182805461045390610ff0565b801561049e5780601f106104755761010080835404028352916020019161049e565b820191905f5260205f20905b81548152906001019060200180831161048157829003601f168201915b5050505050815250509050805f015181602001518260400151836060015184608001518560a00151965096509650965096509650509295509295509295565b6104e5610860565b6104ee5f6108e7565b565b5f5f5f9054906101000a900473ffffffffffffffffffffffffffffffffffffffff16905090565b5f610520610860565b6040518060c001604052808881526020018781526020018673ffffffffffffffffffffffffffffffffffffffff1681526020018581526020018481526020018381525060015f8981526020019081526020015f205f8773ffffffffffffffffffffffffffffffffffffffff1673ffffffffffffffffffffffffffffffffffffffff1681526020019081526020015f205f820151815f0155602082015181600101556040820151816002015f6101000a81548173ffffffffffffffffffffffffffffffffffffffff021916908373ffffffffffffffffffffffffffffffffffffffff160217905550606082015181600301908161061c91906111c0565b50608082015181600401908161063291906111c0565b5060a082015181600501908161064891906112e7565b509050508473ffffffffffffffffffffffffffffffffffffffff16877ff825f7a35a4f682de4dcca232921f4c1e2a3d6e5832d851aa3402801f806d64b8887878760405161069994939291906113b6565b60405180910390a384876040516020016106b492919061140e565b6040516020818303038152906040528051906020012090509695505050505050565b5f6106df610860565b60015f8481526020019081526020015f205f8373ffffffffffffffffffffffffffffffffffffffff1673ffffffffffffffffffffffffffffffffffffffff1681526020019081526020015f205f5f82015f9055600182015f9055600282015f6101000a81549073ffffffffffffffffffffffffffffffffffffffff0219169055600382015f61076e91906109af565b600482015f61077d91906109af565b600582015f61078c91906109ec565b50508173ffffffffffffffffffffffffffffffffffffffff16837faff9c51ec88c8ec057348e214050fe508139413df247c5a9af577965e967874760405160405180910390a36001905092915050565b6107e4610860565b5f73ffffffffffffffffffffffffffffffffffffffff168173ffffffffffffffffffffffffffffffffffffffff1603610854575f6040517f1e4fbdf700000000000000000000000000000000000000000000000000000000815260040161084b9190610ca7565b60405180910390fd5b61085d816108e7565b50565b6108686109a8565b73ffffffffffffffffffffffffffffffffffffffff166108866104f0565b73ffffffffffffffffffffffffffffffffffffffff16146108e5576108a96109a8565b6040517f118cdaa70000000000000000000000000000000000000000000000000000000081526004016108dc9190610ca7565b60405180910390fd5b565b5f5f5f9054906101000a900473ffffffffffffffffffffffffffffffffffffffff169050815f5f6101000a81548173ffffffffffffffffffffffffffffffffffffffff021916908373ffffffffffffffffffffffffffffffffffffffff1602179055508173ffffffffffffffffffffffffffffffffffffffff168173ffffffffffffffffffffffffffffffffffffffff167f8be0079c531659141344cd1fd0a4f28419497f9722a3daafe3b4186f6b6457e060405160405180910390a35050565b5f33905090565b5080546109bb90610ff0565b5f825580601f106109cc57506109e9565b601f0160209004905f5260205f20908101906109e89190610a29565b5b50565b5080546109f890610ff0565b5f825580601f10610a095750610a26565b601f0160209004905f5260205f2090810190610a259190610a29565b5b50565b5b80821115610a40575f815f905550600101610a2a565b5090565b5f604051905090565b5f5ffd5b5f5ffd5b5f819050919050565b610a6781610a55565b8114610a71575f5ffd5b50565b5f81359050610a8281610a5e565b92915050565b5f73ffffffffffffffffffffffffffffffffffffffff82169050919050565b5f610ab182610a88565b9050919050565b610ac181610aa7565b8114610acb575f5ffd5b50565b5f81359050610adc81610ab8565b92915050565b5f5f60408385031215610af857610af7610a4d565b5b5f610b0585828601610a74565b9250506020610b1685828601610ace565b9150509250929050565b5f8115159050919050565b610b3481610b20565b82525050565b5f602082019050610b4d5f830184610b2b565b92915050565b610b5c81610a55565b82525050565b610b6b81610aa7565b82525050565b5f81519050919050565b5f82825260208201905092915050565b8281835e5f83830152505050565b5f601f19601f8301169050919050565b5f610bb382610b71565b610bbd8185610b7b565b9350610bcd818560208601610b8b565b610bd681610b99565b840191505092915050565b5f81519050919050565b5f82825260208201905092915050565b5f610c0582610be1565b610c0f8185610beb565b9350610c1f818560208601610b8b565b610c2881610b99565b840191505092915050565b5f60c082019050610c465f830189610b53565b610c536020830188610b53565b610c606040830187610b62565b8181036060830152610c728186610ba9565b90508181036080830152610c868185610ba9565b905081810360a0830152610c9a8184610bfb565b9050979650505050505050565b5f602082019050610cba5f830184610b62565b92915050565b5f5ffd5b5f5ffd5b7f4e487b71000000000000000000000000000000000000000000000000000000005f52604160045260245ffd5b610cfe82610b99565b810181811067ffffffffffffffff82111715610d1d57610d1c610cc8565b5b80604052505050565b5f610d2f610a44565b9050610d3b8282610cf5565b919050565b5f67ffffffffffffffff821115610d5a57610d59610cc8565b5b610d6382610b99565b9050602081019050919050565b828183375f83830152505050565b5f610d90610d8b84610d40565b610d26565b905082815260208101848484011115610dac57610dab610cc4565b5b610db7848285610d70565b509392505050565b5f82601f830112610dd357610dd2610cc0565b5b8135610de3848260208601610d7e565b91505092915050565b5f67ffffffffffffffff821115610e0657610e05610cc8565b5b610e0f82610b99565b9050602081019050919050565b5f610e2e610e2984610dec565b610d26565b905082815260208101848484011115610e4a57610e49610cc4565b5b610e55848285610d70565b509392505050565b5f82601f830112610e7157610e70610cc0565b5b8135610e81848260208601610e1c565b91505092915050565b5f5f5f5f5f5f60c08789031215610ea457610ea3610a4d565b5b5f610eb189828a01610a74565b9650506020610ec289828a01610a74565b9550506040610ed389828a01610ace565b945050606087013567ffffffffffffffff811115610ef457610ef3610a51565b5b610f0089828a01610dbf565b935050608087013567ffffffffffffffff811115610f2157610f20610a51565b5b610f2d89828a01610dbf565b92505060a087013567ffffffffffffffff811115610f4e57610f4d610a51565b5b610f5a89828a01610e5d565b9150509295509295509295565b5f819050919050565b610f7981610f67565b82525050565b5f602082019050610f925f830184610f70565b92915050565b5f60208284031215610fad57610fac610a4d565b5b5f610fba84828501610ace565b91505092915050565b7f4e487b71000000000000000000000000000000000000000000000000000000005f52602260045260245ffd5b5f600282049050600182168061100757607f821691505b60208210810361101a57611019610fc3565b5b50919050565b5f819050815f5260205f209050919050565b5f6020601f8301049050919050565b5f82821b905092915050565b5f6008830261107c7fffffffffffffffffffffffffffffffffffffffffffffffffffffffffffffffff82611041565b6110868683611041565b95508019841693508086168417925050509392505050565b5f819050919050565b5f6110c16110bc6110b784610a55565b61109e565b610a55565b9050919050565b5f819050919050565b6110da836110a7565b6110ee6110e6826110c8565b84845461104d565b825550505050565b5f5f905090565b6111056110f6565b6111108184846110d1565b505050565b5b81811015611133576111285f826110fd565b600181019050611116565b5050565b601f8211156111785761114981611020565b61115284611032565b81016020851015611161578190505b61117561116d85611032565b830182611115565b50505b505050565b5f82821c905092915050565b5f6111985f198460080261117d565b1980831691505092915050565b5f6111b08383611189565b9150826002028217905092915050565b6111c982610b71565b67ffffffffffffffff8111156111e2576111e1610cc8565b5b6111ec8254610ff0565b6111f7828285611137565b5f60209050601f831160018114611228575f8415611216578287015190505b61122085826111a5565b865550611287565b601f19841661123686611020565b5f5b8281101561125d57848901518255600182019150602085019450602081019050611238565b8683101561127a5784890151611276601f891682611189565b8355505b6001600288020188555050505b505050505050565b5f819050815f5260205f209050919050565b601f8211156112e2576112b38161128f565b6112bc84611032565b810160208510156112cb578190505b6112df6112d785611032565b830182611115565b50505b505050565b6112f082610be1565b67ffffffffffffffff81111561130957611308610cc8565b5b6113138254610ff0565b61131e8282856112a1565b5f60209050601f83116001811461134f575f841561133d578287015190505b61134785826111a5565b8655506113ae565b601f19841661135d8661128f565b5f5b828110156113845784890151825560018201915060208501945060208101905061135f565b868310156113a1578489015161139d601f891682611189565b8355505b6001600288020188555050505b505050505050565b5f6080820190506113c95f830187610b53565b81810360208301526113db8186610ba9565b905081810360408301526113ef8185610ba9565b905081810360608301526114038184610bfb565b905095945050505050565b5f6040820190506114215f830185610b62565b61142e6020830184610b53565b939250505056fea2646970667358221220bb62bd4a6b2c4487263bf8a94499f7b8d119a973a5bfff32312e542c3672f44164736f6c634300081e0033","linkReferences":{}},"methodIdentifiers":{"addClaim(uint256,uint256,address,bytes,bytes,string)":"b1a34e0d","claimExists(uint256,address)":"2c30941f","getClaim(uint256,address)":"48e6b5a3","owner()":"8da5cb5b","removeClaim(uint256,address)":"b3817536","renounceOwnership()":"715018a6","transferOwnership(address)":"f2fde38b"},"id":37}