{"abi":[{"type":"constructor","inputs":[{"name":"initialOwner","type":"address","internalType":"address"}],"stateMutability":"nonpayable"},{"type":"function","name":"addClaim","inputs":[{"name":"_topic","type":"uint256","internalType":"uint256"},{"name":"_scheme","type":"uint256","internalType":"uint256"},{"name":"_issuer","type":"address","internalType":"address"},{"name":"_signature","type":"bytes","internalType":"bytes"},{"name":"_data","type":"bytes","internalType":"bytes"},{"name":"_uri","type":"string","internalType":"string"}],"outputs":[{"name":"","type":"bytes32","internalType":"bytes32"}],"stateMutability":"nonpayable"},{"type":"function","name":"claimExists","inputs":[{"name":"_topic","type":"uint256","internalType":"uint256"},{"name":"_issuer","type":"address","internalType":"address"}],"outputs":[{"name":"","type":"bool","internalType":"bool"}],"stateMutability":"view"},{"type":"function","name":"getClaim","inputs":[{"name":"_topic","type":"uint256","internalType":"uint256"},{"name":"_issuer","type":"address","internalType":"address"}],"outputs":[{"name":"topic","type":"uint256","internalType":"uint256"},{"name":"scheme","type":"uint256","internalType":"uint256"},{"name":"issuer","type":"address","internalType":"address"},{"name":"signature","type":"bytes","internalType":"bytes"},{"name":"data","type":"bytes","internalType":"bytes"},{"name":"uri","type":"string","internalType":"string"}],"stateMutability":"view"},{"type":"function","name":"owner","inputs":[],"outputs":[{"name":"","type":"address","internalType":"address"}],"stateMutability":"view"},{"type":"function","name":"removeClaim","inputs":[{"name":"_topic","type":"uint256","internalType":"uint256"},{"name":"_issuer","type":"address","internalType":"address"}],"outputs":[{"name":"","type":"bool","internalType":"bool"}],"stateMutability":"nonpayable"},{"type":"function","name":"renounceOwnership","inputs":[],"outputs":[],"stateMutability":"nonpayable"},{"type":"function","name":"transferOwnership","inputs":[{"name":"newOwner","type":"address","internalType":"address"}],"outputs":[],"stateMutability":"nonpayable"},{"type":"event","name":"ClaimAdded","inputs":[{"name":"topic","type":"uint256","indexed":true,"internalType":"uint256"},{"name":"scheme","type":"uint256","indexed":false,"internalType":"uint256"},{"name":"issuer","type":"address","indexed":true,"internalType":"address"},{"name":"signature","type":"bytes","indexed":false,"internalType":"bytes"},{"name":"data","type":"bytes","indexed":false,"internalType":"bytes"},{"name":"uri","type":"string","indexed":false,"internalType":"string"}],"anonymous":false},{"type":"event","name":"ClaimRemoved","inputs":[{"name":"topic","type":"uint256","indexed":true,"internalType":"uint256"},{"name":"issuer","type":"address","indexed":true,"internalType":"address"}],"anonymous":false},{"type":"event","name":"OwnershipTransferred","inputs":[{"name":"previousOwner","type":"address","indexed":true,"internalType":"address"},{"name":"newOwner","type":"address","indexed":true,"internalType":"address"}],"anonymous":false},{"type":"error","name":"OwnableInvalidOwner","inputs":[{"name":"owner","type":"address","internalType":"address"}]},{"type":"error","name":"OwnableUnauthorizedAccount","inputs":[{"name":"account","type":"address","internalType":"address"}]}],"bytecode":{"object":"0x608060405234801561000f575f5ffd5b50604051611662380380611662833981810160405281019061003191906101d7565b805f73ffffffffffffffffffffffffffffffffffffffff168173ffffffffffffffffffffffffffffffffffffffff16036100a2575f6040517f1e4fbdf70000000000000000000000000000000000000000000000000000000081526004016100999190610211565b60405180910390fd5b6100b1816100b860201b60201c565b505061022a565b5f5f5f9054906101000a900473ffffffffffffffffffffffffffffffffffffffff169050815f5f6101000a81548173ffffffffffffffffffffffffffffffffffffffff021916908373ffffffffffffffffffffffffffffffffffffffff1602179055508173ffffffffffffffffffffffffffffffffffffffff168173ffffffffffffffffffffffffffffffffffffffff167f8be0079c531659141344cd1fd0a4f28419497f9722a3daafe3b4186f6b6457e060405160405180910390a35050565b5f5ffd5b5f73ffffffffffffffffffffffffffffffffffffffff82169050919050565b5f6101a68261017d565b9050919050565b6101b68161019c565b81146101c0575f5ffd5b50565b5f815190506101d1816101ad565b92915050565b5f602082840312156101ec576101eb610179565b5b5f6101f9848285016101c3565b91505092915050565b61020b8161019c565b82525050565b5f6020820190506102245f830184610202565b92915050565b61142b806102375f395ff3fe608060405234801561000f575f5ffd5b506004361061007b575f3560e01c80638da5cb5b116100595780638da5cb5b146100ee578063b1a34e0d1461010c578063b38175361461013c578063f2fde38b1461016c5761007b565b80632c30941f1461007f57806348e6b5a3146100af578063715018a6146100e4575b5f5ffd5b61009960048036038101906100949190610ac9565b610188565b6040516100a69190610b21565b60405180910390f35b6100c960048036038101906100c49190610ac9565b61022f565b6040516100db96959493929190610c1a565b60405180910390f35b6100ec6104dd565b005b6100f66104f0565b6040516101039190610c8e565b60405180910390f35b61012660048036038101906101219190610e71565b610517565b6040516101339190610f66565b60405180910390f35b61015660048036038101906101519190610ac9565b6106bd565b6040516101639190610b21565b60405180910390f35b61018660048036038101906101819190610f7f565b6107c3565b005b5f5f73ffffffffffffffffffffffffffffffffffffffff1660015f8581526020019081526020015f205f8473ffffffffffffffffffffffffffffffffffffffff1673ffffffffffffffffffffffffffffffffffffffff1681526020019081526020015f206002015f9054906101000a900473ffffffffffffffffffffffffffffffffffffffff1673ffffffffffffffffffffffffffffffffffffffff161415905092915050565b5f5f5f60608060605f60015f8a81526020019081526020015f205f8973ffffffffffffffffffffffffffffffffffffffff1673ffffffffffffffffffffffffffffffffffffffff1681526020019081526020015f206040518060c00160405290815f820154815260200160018201548152602001600282015f9054906101000a900473ffffffffffffffffffffffffffffffffffffffff1673ffffffffffffffffffffffffffffffffffffffff1673ffffffffffffffffffffffffffffffffffffffff16815260200160038201805461030790610fd7565b80601f016020809104026020016040519081016040528092919081815260200182805461033390610fd7565b801561037e5780601f106103555761010080835404028352916020019161037e565b820191905f5260205f20905b81548152906001019060200180831161036157829003601f168201915b5050505050815260200160048201805461039790610fd7565b80601f01602080910402602001604051908101604052809291908181526020018280546103c390610fd7565b801561040e5780601f106103e55761010080835404028352916020019161040e565b820191905f5260205f20905b8154815290600101906020018083116103f157829003601f168201915b5050505050815260200160058201805461042790610fd7565b80601f016020809104026020016040519081016040528092919081815260200182805461045390610fd7565b801561049e5780601f106104755761010080835404028352916020019161049e565b820191905f5260205f20905b81548152906001019060200180831161048157829003601f168201915b5050505050815250509050805f015181602001518260400151836060015184608001518560a00151965096509650965096509650509295509295509295565b6104e5610847565b6104ee5f6108ce565b565b5f5f5f9054906101000a900473ffffffffffffffffffffffffffffffffffffffff16905090565b5f610520610847565b6040518060c001604052808881526020018781526020018673ffffffffffffffffffffffffffffffffffffffff1681526020018581526020018481526020018381525060015f8981526020019081526020015f205f8773ffffffffffffffffffffffffffffffffffffffff1673ffffffffffffffffffffffffffffffffffffffff1681526020019081526020015f205f820151815f0155602082015181600101556040820151816002015f6101000a81548173ffffffffffffffffffffffffffffffffffffffff021916908373ffffffffffffffffffffffffffffffffffffffff160217905550606082015181600301908161061c91906111a7565b50608082015181600401908161063291906111a7565b5060a082015181600501908161064891906112ce565b509050508473ffffffffffffffffffffffffffffffffffffffff16877ff825f7a35a4f682de4dcca232921f4c1e2a3d6e5832d851aa3402801f806d64b88878787604051610699949392919061139d565b60405180910390a35f855f528760205260405f209050809150509695505050505050565b5f6106c6610847565b60015f8481526020019081526020015f205f8373ffffffffffffffffffffffffffffffffffffffff1673ffffffffffffffffffffffffffffffffffffffff1681526020019081526020015f205f5f82015f9055600182015f9055600282015f6101000a81549073ffffffffffffffffffffffffffffffffffffffff0219169055600382015f6107559190610996565b600482015f6107649190610996565b600582015f61077391906109d3565b50508173ffffffffffffffffffffffffffffffffffffffff16837faff9c51ec88c8ec057348e214050fe508139413df247c5a9af577965e967874760405160405180910390a36001905092915050565b6107cb610847565b5f73ffffffffffffffffffffffffffffffffffffffff168173ffffffffffffffffffffffffffffffffffffffff160361083b575f6040517f1e4fbdf70000000000000000000000000000000000000000000000000000000081526004016108329190610c8e565b60405180910390fd5b610844816108ce565b50565b61084f61098f565b73ffffffffffffffffffffffffffffffffffffffff1661086d6104f0565b73ffffffffffffffffffffffffffffffffffffffff16146108cc5761089061098f565b6040517f118cdaa70000000000000000000000000000000000000000000000000000000081526004016108c39190610c8e565b60405180910390fd5b565b5f5f5f9054906101000a900473ffffffffffffffffffffffffffffffffffffffff169050815f5f6101000a81548173ffffffffffffffffffffffffffffffffffffffff021916908373ffffffffffffffffffffffffffffffffffffffff1602179055508173ffffffffffffffffffffffffffffffffffffffff168173ffffffffffffffffffffffffffffffffffffffff167f8be0079c531659141344cd1fd0a4f28419497f9722a3daafe3b4186f6b6457e060405160405180910390a35050565b5f33905090565b5080546109a290610fd7565b5f825580601f106109b357506109d0565b601f0160209004905f5260205f20908101906109cf9190610a10565b5b50565b5080546109df90610fd7565b5f825580601f106109f05750610a0d565b601f0160209004905f5260205f2090810190610a0c9190610a10565b5b50565b5b80821115610a27575f815f905550600101610a11565b5090565b5f604051905090565b5f5ffd5b5f5ffd5b5f819050919050565b610a4e81610a3c565b8114610a58575f5ffd5b50565b5f81359050610a6981610a45565b92915050565b5f73ffffffffffffffffffffffffffffffffffffffff82169050919050565b5f610a9882610a6f565b9050919050565b610aa881610a8e565b8114610ab2575f5ffd5b50565b5f81359050610ac381610a9f565b92915050565b5f5f60408385031215610adf57610ade610a34565b5b5f610aec85828601610a5b565b9250506020610afd85828601610ab5565b9150509250929050565b5f8115159050919050565b610b1b81610b07565b82525050565b5f602082019050610b345f830184610b12565b92915050565b610b4381610a3c565b82525050565b610b5281610a8e565b82525050565b5f81519050919050565b5f82825260208201905092915050565b8281835e5f83830152505050565b5f601f19601f8301169050919050565b5f610b9a82610b58565b610ba48185610b62565b9350610bb4818560208601610b72565b610bbd81610b80565b840191505092915050565b5f81519050919050565b5f82825260208201905092915050565b5f610bec82610bc8565b610bf68185610bd2565b9350610c06818560208601610b72565b610c0f81610b80565b840191505092915050565b5f60c082019050610c2d5f830189610b3a565b610c3a6020830188610b3a565b610c476040830187610b49565b8181036060830152610c598186610b90565b90508181036080830152610c6d8185610b90565b905081810360a0830152610c818184610be2565b9050979650505050505050565b5f602082019050610ca15f830184610b49565b92915050565b5f5ffd5b5f5ffd5b7f4e487b71000000000000000000000000000000000000000000000000000000005f52604160045260245ffd5b610ce582610b80565b810181811067ffffffffffffffff82111715610d0457610d03610caf565b5b80604052505050565b5f610d16610a2b565b9050610d228282610cdc565b919050565b5f67ffffffffffffffff821115610d4157610d40610caf565b5b610d4a82610b80565b9050602081019050919050565b828183375f83830152505050565b5f610d77610d7284610d27565b610d0d565b905082815260208101848484011115610d9357610d92610cab565b5b610d9e848285610d57565b509392505050565b5f82601f830112610dba57610db9610ca7565b5b8135610dca848260208601610d65565b91505092915050565b5f67ffffffffffffffff821115610ded57610dec610caf565b5b610df682610b80565b9050602081019050919050565b5f610e15610e1084610dd3565b610d0d565b905082815260208101848484011115610e3157610e30610cab565b5b610e3c848285610d57565b509392505050565b5f82601f830112610e5857610e57610ca7565b5b8135610e68848260208601610e03565b91505092915050565b5f5f5f5f5f5f60c08789031215610e8b57610e8a610a34565b5b5f610e9889828a01610a5b565b9650506020610ea989828a01610a5b565b9550506040610eba89828a01610ab5565b945050606087013567ffffffffffffffff811115610edb57610eda610a38565b5b610ee789828a01610da6565b935050608087013567ffffffffffffffff811115610f0857610f07610a38565b5b610f1489828a01610da6565b92505060a087013567ffffffffffffffff811115610f3557610f34610a38565b5b610f4189828a01610e44565b9150509295509295509295565b5f819050919050565b610f6081610f4e565b82525050565b5f602082019050610f795f830184610f57565b92915050565b5f60208284031215610f9457610f93610a34565b5b5f610fa184828501610ab5565b91505092915050565b7f4e487b71000000000000000000000000000000000000000000000000000000005f52602260045260245ffd5b5f6002820490506001821680610fee57607f821691505b60208210810361100157611000610faa565b5b50919050565b5f819050815f5260205f209050919050565b5f6020601f8301049050919050565b5f82821b905092915050565b5f600883026110637fffffffffffffffffffffffffffffffffffffffffffffffffffffffffffffffff82611028565b61106d8683611028565b95508019841693508086168417925050509392505050565b5f819050919050565b5f6110a86110a361109e84610a3c565b611085565b610a3c565b9050919050565b5f819050919050565b6110c18361108e565b6110d56110cd826110af565b848454611034565b825550505050565b5f5f905090565b6110ec6110dd565b6110f78184846110b8565b505050565b5b8181101561111a5761110f5f826110e4565b6001810190506110fd565b5050565b601f82111561115f5761113081611007565b61113984611019565b81016020851015611148578190505b61115c61115485611019565b8301826110fc565b50505b505050565b5f82821c905092915050565b5f61117f5f1984600802611164565b1980831691505092915050565b5f6111978383611170565b9150826002028217905092915050565b6111b082610b58565b67ffffffffffffffff8111156111c9576111c8610caf565b5b6111d38254610fd7565b6111de82828561111e565b5f60209050601f83116001811461120f575f84156111fd578287015190505b611207858261118c565b86555061126e565b601f19841661121d86611007565b5f5b828110156112445784890151825560018201915060208501945060208101905061121f565b86831015611261578489015161125d601f891682611170565b8355505b6001600288020188555050505b505050505050565b5f819050815f5260205f209050919050565b601f8211156112c95761129a81611276565b6112a384611019565b810160208510156112b2578190505b6112c66112be85611019565b8301826110fc565b50505b505050565b6112d782610bc8565b67ffffffffffffffff8111156112f0576112ef610caf565b5b6112fa8254610fd7565b611305828285611288565b5f60209050601f831160018114611336575f8415611324578287015190505b61132e858261118c565b865550611395565b601f19841661134486611276565b5f5b8281101561136b57848901518255600182019150602085019450602081019050611346565b868310156113885784890151611384601f891682611170565b8355505b6001600288020188555050505b505050505050565b5f6080820190506113b05f830187610b3a565b81810360208301526113c28186610b90565b905081810360408301526113d68185610b90565b905081810360608301526113ea8184610be2565b90509594505050505056fea26469706673582212203b68b2862048efd5612eb3ba6861fda02c74655158f2b7d8240b2bd45825022e64736f6c634300081e0033","linkReferences":{}},"methodIdentifiers":{"addClaim(uint256,uint256,address,bytes,bytes,string)":"b1a34e0d","claimExists(uint256,address)":"2c30941f","getClaim(uint256,address)":"48e6b5a3","owner()":"8da5cb5b","removeClaim(uint256,address)":"b3817536","renounceOwnership()":"715018a6","transferOwnership(address)":"f2fde38b"},"id":37}