{"abi":[{"type":"constructor","inputs":[{"name":"initialOwner","type":"address","internalType":"address"}],"stateMutability":"nonpayable"},{"type":"function","name":"addModule","inputs":[{"name":"token","type":"address","internalType":"address"},{"name":"module","type":"address","internalType":"address"}],"outputs":[],"stateMutability":"nonpayable"},{"type":"function","name":"canTransfer","inputs":[{"name":"from","type":"address","internalType":"address"},{"name":"to","type":"address","internalType":"address"},{"name":"amount","type":"uint256","internalType":"uint256"}],"outputs":[{"name":"","type":"bool","internalType":"bool"}],"stateMutability":"view"},{"type":"function","name":"created","inputs":[{"name":"to","type":"address","internalType":"address"},{"name":"amount","type":"uint256","internalType":"uint256"}],"outputs":[],"stateMutability":"nonpayable"},{"type":"function","name":"destroyed","inputs":[{"name":"from","type":"address","internalType":"address"},{"name":"amount","type":"uint256","internalType":"uint256"}],"outputs":[],"stateMutability":"nonpayable"},{"type":"function","name":"getModuleAt","inputs":[{"name":"token","type":"address","internalType":"address"},{"name":"index","type":"uint256","internalType":"uint256"}],"outputs":[{"name":"","type":"address","internalType":"address"}],"stateMutability":"view"},{"type":"function","name":"getModuleCount","inputs":[{"name":"token","type":"address","internalType":"address"}],"outputs":[{"name":"","type":"uint256","internalType":"uint256"}],"stateMutability":"view"},{"type":"function","name":"getModules","inputs":[{"name":"token","type":"address","internalType":"address"}],"outputs":[{"name":"","type":"address[]","internalType":"address[]"}],"stateMutability":"view"},{"type":"function","name":"getTokenCount","inputs":[],"outputs":[{"name":"","type":"uint256","internalType":"uint256"}],"stateMutability":"view"},{"type":"function","name":"getTokens","inputs":[],"outputs":[{"name":"","type":"address[]","internalType":"address[]"}],"stateMutability":"view"},{"type":"function","name":"isModuleActiveForToken","inputs":[{"name":"token","type":"address","internalType":"address"},{"name":"module","type":"address","internalType":"address"}],"outputs":[{"name":"","type":"bool","internalType":"bool"}],"stateMutability":"view"},{"type":"function","name":"isTokenRegistered","inputs":[{"name":"token","type":"address","internalType":"address"}],"outputs":[{"name":"","type":"bool","internalType":"bool"}],"stateMutability":"view"},{"type":"function","name":"owner","inputs":[],"outputs":[{"name":"","type":"address","internalType":"address"}],"stateMutability":"view"},{"type":"function","name":"removeModule","inputs":[{"name":"token","type":"address","internalType":"address"},{"name":"module","type":"address","internalType":"address"}],"outputs":[],"stateMutability":"nonpayable"},{"type":"function","name":"renounceOwnership","inputs":[],"outputs":[],"stateMutability":"nonpayable"},{"type":"function","name":"transferOwnership","inputs":[{"name":"newOwner","type":"address","internalType":"address"}],"outputs":[],"stateMutability":"nonpayable"},{"type":"function","name":"transferred","inputs":[{"name":"from","type":"address","internalType":"address"},{"name":"to","type":"address","internalType":"address"},{"name":"amount","type":"uint256","internalType":"uint256"}],"outputs":[],"stateMutability":"nonpayable"},{"type":"event","name":"ModuleAdded","inputs":[{"name":"token","type":"address","indexed":true,"internalType":"address"},{"name":"module","type":"address","indexed":true,"internalType":"address"}],"anonymous":false},{"type":"event","name":"ModuleRemoved","inputs":[{"name":"token","type":"address","indexed":true,"internalType":"address"},{"name":"module","type":"address","indexed":true,"internalType":"address"}],"anonymous":false},{"type":"event","name":"OwnershipTransferred","inputs":[{"name":"previousOwner","type":"address","indexed":true,"internalType":"address"},{"name":"newOwner","type":"address","indexed":true,"internalType":"address"}],"anonymous":false},{"type":"event","name":"TokenRegistered","inputs":[{"name":"token","type":"address","indexed":true,"internalType":"address"}],"anonymous":false},{"type":"error","name":"OwnableInvalidOwner","inputs":[{"name":"owner","type":"address","internalType":"address"}]},{"type":"error","name":"OwnableUnauthorizedAccount","inputs":[{"name":"account","type":"address","internalType":"address"}]}],"bytecode":{"object":"0x608060405234801561000f575f5ffd5b50604051612417380380612417833981810160405281019061003191906101d7565b805f73ffffffffffffffffffffffffffffffffffffffff168173ffffffffffffffffffffffffffffffffffffffff16036100a2575f6040517f1e4fbdf70000000000000000000000000000000000000000000000000000000081526004016100999190610211565b60405180910390fd5b6100b1816100b860201b60201c565b505061022a565b5f5f5f9054906101000a900473ffffffffffffffffffffffffffffffffffffffff169050815f5f6101000a81548173ffffffffffffffffffffffffffffffffffffffff021916908373ffffffffffffffffffffffffffffffffffffffff1602179055508173ffffffffffffffffffffffffffffffffffffffff168173ffffffffffffffffffffffffffffffffffffffff167f8be0079c531659141344cd1fd0a4f28419497f9722a3daafe3b4186f6b6457e060405160405180910390a35050565b5f5ffd5b5f73ffffffffffffffffffffffffffffffffffffffff82169050919050565b5f6101a68261017d565b9050919050565b6101b68161019c565b81146101c0575f5ffd5b50565b5f815190506101d1816101ad565b92915050565b5f602082840312156101ec576101eb610179565b5b5f6101f9848285016101c3565b91505092915050565b61020b8161019c565b82525050565b5f6020820190506102245f830184610202565b92915050565b6121e0806102375f395ff3fe608060405234801561000f575f5ffd5b50600436106100fe575f3560e01c80638baf29b411610095578063ddd23c3f11610064578063ddd23c3f14610282578063e46638e6146102b2578063e5faf00a146102e2578063f2fde38b14610312576100fe565b80638baf29b41461020e5780638d2ea7721461022a5780638da5cb5b14610246578063aa6ca80814610264576100fe565b806366764500116100d1578063667645001461019a5780636a36e3a2146101ca578063715018a6146101e657806378a89567146101f0576100fe565b806326aa101f146101025780634ed72ef8146101325780635a1db8c4146101625780635f8dead31461017e575b5f5ffd5b61011c60048036038101906101179190611b0e565b61032e565b6040516101299190611b53565b60405180910390f35b61014c60048036038101906101479190611b0e565b610380565b6040516101599190611b84565b60405180910390f35b61017c60048036038101906101779190611b9d565b6103c9565b005b61019860048036038101906101939190611c05565b6109a4565b005b6101b460048036038101906101af9190611b0e565b610ae6565b6040516101c19190611cfa565b60405180910390f35b6101e460048036038101906101df9190611b9d565b610c85565b005b6101ee611237565b005b6101f861124a565b6040516102059190611b84565b60405180910390f35b61022860048036038101906102239190611d1a565b611256565b005b610244600480360381019061023f9190611c05565b61139b565b005b61024e6114dd565b60405161025b9190611d79565b60405180910390f35b61026c611504565b6040516102799190611cfa565b60405180910390f35b61029c60048036038101906102979190611c05565b61158f565b6040516102a99190611d79565b60405180910390f35b6102cc60048036038101906102c79190611d1a565b611691565b6040516102d99190611b53565b60405180910390f35b6102fc60048036038101906102f79190611b9d565b61184f565b6040516103099190611b53565b60405180910390f35b61032c60048036038101906103279190611b0e565b6118dd565b005b5f60055f8373ffffffffffffffffffffffffffffffffffffffff1673ffffffffffffffffffffffffffffffffffffffff1681526020019081526020015f205f9054906101000a900460ff169050919050565b5f60015f8373ffffffffffffffffffffffffffffffffffffffff1673ffffffffffffffffffffffffffffffffffffffff1681526020019081526020015f20805490509050919050565b816103d26114dd565b73ffffffffffffffffffffffffffffffffffffffff163373ffffffffffffffffffffffffffffffffffffffff16148061043657508073ffffffffffffffffffffffffffffffffffffffff163373ffffffffffffffffffffffffffffffffffffffff16145b610475576040517f08c379a000000000000000000000000000000000000000000000000000000000815260040161046c90611dec565b60405180910390fd5b5f73ffffffffffffffffffffffffffffffffffffffff168373ffffffffffffffffffffffffffffffffffffffff16036104e3576040517f08c379a00000000000000000000000000000000000000000000000000000000081526004016104da90611e54565b60405180910390fd5b5f73ffffffffffffffffffffffffffffffffffffffff168273ffffffffffffffffffffffffffffffffffffffff1603610551576040517f08c379a000000000000000000000000000000000000000000000000000000000815260040161054890611ebc565b60405180910390fd5b60035f8473ffffffffffffffffffffffffffffffffffffffff1673ffffffffffffffffffffffffffffffffffffffff1681526020019081526020015f205f8373ffffffffffffffffffffffffffffffffffffffff1673ffffffffffffffffffffffffffffffffffffffff1681526020019081526020015f205f9054906101000a900460ff1615610616576040517f08c379a000000000000000000000000000000000000000000000000000000000815260040161060d90611f24565b60405180910390fd5b60055f8473ffffffffffffffffffffffffffffffffffffffff1673ffffffffffffffffffffffffffffffffffffffff1681526020019081526020015f205f9054906101000a900460ff1661075d57600483908060018154018082558091505060019003905f5260205f20015f9091909190916101000a81548173ffffffffffffffffffffffffffffffffffffffff021916908373ffffffffffffffffffffffffffffffffffffffff160217905550600160055f8573ffffffffffffffffffffffffffffffffffffffff1673ffffffffffffffffffffffffffffffffffffffff1681526020019081526020015f205f6101000a81548160ff0219169083151502179055508273ffffffffffffffffffffffffffffffffffffffff167f158412daecdc1456d01568828bcdb18464cc7f1ce0215ddbc3f3cfede9d1e63d60405160405180910390a25b60015f8473ffffffffffffffffffffffffffffffffffffffff1673ffffffffffffffffffffffffffffffffffffffff1681526020019081526020015f208054905060025f8573ffffffffffffffffffffffffffffffffffffffff1673ffffffffffffffffffffffffffffffffffffffff1681526020019081526020015f205f8473ffffffffffffffffffffffffffffffffffffffff1673ffffffffffffffffffffffffffffffffffffffff1681526020019081526020015f208190555060015f8473ffffffffffffffffffffffffffffffffffffffff1673ffffffffffffffffffffffffffffffffffffffff1681526020019081526020015f2082908060018154018082558091505060019003905f5260205f20015f9091909190916101000a81548173ffffffffffffffffffffffffffffffffffffffff021916908373ffffffffffffffffffffffffffffffffffffffff160217905550600160035f8573ffffffffffffffffffffffffffffffffffffffff1673ffffffffffffffffffffffffffffffffffffffff1681526020019081526020015f205f8473ffffffffffffffffffffffffffffffffffffffff1673ffffffffffffffffffffffffffffffffffffffff1681526020019081526020015f205f6101000a81548160ff0219169083151502179055508173ffffffffffffffffffffffffffffffffffffffff168373ffffffffffffffffffffffffffffffffffffffff167f6747ba5f58d92b555f5c5c205368cf129b6272420800074194c91c8bb33644e060405160405180910390a3505050565b5f3390505f5f90505b60015f8373ffffffffffffffffffffffffffffffffffffffff1673ffffffffffffffffffffffffffffffffffffffff1681526020019081526020015f2080549050811015610ae05760015f8373ffffffffffffffffffffffffffffffffffffffff1673ffffffffffffffffffffffffffffffffffffffff1681526020019081526020015f208181548110610a4457610a43611f42565b5b905f5260205f20015f9054906101000a900473ffffffffffffffffffffffffffffffffffffffff1673ffffffffffffffffffffffffffffffffffffffff16635f8dead385856040518363ffffffff1660e01b8152600401610aa6929190611f6f565b5f604051808303815f87803b158015610abd575f5ffd5b505af1158015610acf573d5f5f3e3d5ffd5b5050505080806001019150506109ad565b50505050565b60605f60015f8473ffffffffffffffffffffffffffffffffffffffff1673ffffffffffffffffffffffffffffffffffffffff1681526020019081526020015f20805480602002602001604051908101604052809291908181526020018280548015610ba357602002820191905f5260205f20905b815f9054906101000a900473ffffffffffffffffffffffffffffffffffffffff1673ffffffffffffffffffffffffffffffffffffffff1681526020019060010190808311610b5a575b505050505090505f815167ffffffffffffffff811115610bc657610bc5611f96565b5b604051908082528060200260200182016040528015610bf45781602001602082028036833780820191505090505b5090505f5f90505b8251811015610c7a57828181518110610c1857610c17611f42565b5b6020026020010151828281518110610c3357610c32611f42565b5b602002602001019073ffffffffffffffffffffffffffffffffffffffff16908173ffffffffffffffffffffffffffffffffffffffff16815250508080600101915050610bfc565b508092505050919050565b81610c8e6114dd565b73ffffffffffffffffffffffffffffffffffffffff163373ffffffffffffffffffffffffffffffffffffffff161480610cf257508073ffffffffffffffffffffffffffffffffffffffff163373ffffffffffffffffffffffffffffffffffffffff16145b610d31576040517f08c379a0000000000000000000000000000000000000000000000000000000008152600401610d2890611dec565b60405180910390fd5b60035f8473ffffffffffffffffffffffffffffffffffffffff1673ffffffffffffffffffffffffffffffffffffffff1681526020019081526020015f205f8373ffffffffffffffffffffffffffffffffffffffff1673ffffffffffffffffffffffffffffffffffffffff1681526020019081526020015f205f9054906101000a900460ff16610df5576040517f08c379a0000000000000000000000000000000000000000000000000000000008152600401610dec9061200d565b60405180910390fd5b5f60025f8573ffffffffffffffffffffffffffffffffffffffff1673ffffffffffffffffffffffffffffffffffffffff1681526020019081526020015f205f8473ffffffffffffffffffffffffffffffffffffffff1673ffffffffffffffffffffffffffffffffffffffff1681526020019081526020015f205490505f6001805f8773ffffffffffffffffffffffffffffffffffffffff1673ffffffffffffffffffffffffffffffffffffffff1681526020019081526020015f2080549050610ebe9190612058565b9050808214611055575f60015f8773ffffffffffffffffffffffffffffffffffffffff1673ffffffffffffffffffffffffffffffffffffffff1681526020019081526020015f208281548110610f1757610f16611f42565b5b905f5260205f20015f9054906101000a900473ffffffffffffffffffffffffffffffffffffffff1690508060015f8873ffffffffffffffffffffffffffffffffffffffff1673ffffffffffffffffffffffffffffffffffffffff1681526020019081526020015f208481548110610f9157610f90611f42565b5b905f5260205f20015f6101000a81548173ffffffffffffffffffffffffffffffffffffffff021916908373ffffffffffffffffffffffffffffffffffffffff1602179055508260025f8873ffffffffffffffffffffffffffffffffffffffff1673ffffffffffffffffffffffffffffffffffffffff1681526020019081526020015f205f8373ffffffffffffffffffffffffffffffffffffffff1673ffffffffffffffffffffffffffffffffffffffff1681526020019081526020015f2081905550505b60015f8673ffffffffffffffffffffffffffffffffffffffff1673ffffffffffffffffffffffffffffffffffffffff1681526020019081526020015f208054806110a2576110a161208b565b5b600190038181905f5260205f20015f6101000a81549073ffffffffffffffffffffffffffffffffffffffff0219169055905560025f8673ffffffffffffffffffffffffffffffffffffffff1673ffffffffffffffffffffffffffffffffffffffff1681526020019081526020015f205f8573ffffffffffffffffffffffffffffffffffffffff1673ffffffffffffffffffffffffffffffffffffffff1681526020019081526020015f205f905560035f8673ffffffffffffffffffffffffffffffffffffffff1673ffffffffffffffffffffffffffffffffffffffff1681526020019081526020015f205f8573ffffffffffffffffffffffffffffffffffffffff1673ffffffffffffffffffffffffffffffffffffffff1681526020019081526020015f205f6101000a81549060ff02191690558373ffffffffffffffffffffffffffffffffffffffff168573ffffffffffffffffffffffffffffffffffffffff167fd66772358582078947c11fa70e2860b3ffa915277e6181a4aa293072cb57ed3c60405160405180910390a35050505050565b61123f611961565b6112485f6119e8565b565b5f600480549050905090565b5f3390505f5f90505b60015f8373ffffffffffffffffffffffffffffffffffffffff1673ffffffffffffffffffffffffffffffffffffffff1681526020019081526020015f20805490508110156113945760015f8373ffffffffffffffffffffffffffffffffffffffff1673ffffffffffffffffffffffffffffffffffffffff1681526020019081526020015f2081815481106112f6576112f5611f42565b5b905f5260205f20015f9054906101000a900473ffffffffffffffffffffffffffffffffffffffff1673ffffffffffffffffffffffffffffffffffffffff16638baf29b48686866040518463ffffffff1660e01b815260040161135a939291906120b8565b5f604051808303815f87803b158015611371575f5ffd5b505af1158015611383573d5f5f3e3d5ffd5b50505050808060010191505061125f565b5050505050565b5f3390505f5f90505b60015f8373ffffffffffffffffffffffffffffffffffffffff1673ffffffffffffffffffffffffffffffffffffffff1681526020019081526020015f20805490508110156114d75760015f8373ffffffffffffffffffffffffffffffffffffffff1673ffffffffffffffffffffffffffffffffffffffff1681526020019081526020015f20818154811061143b5761143a611f42565b5b905f5260205f20015f9054906101000a900473ffffffffffffffffffffffffffffffffffffffff1673ffffffffffffffffffffffffffffffffffffffff16638d2ea77285856040518363ffffffff1660e01b815260040161149d929190611f6f565b5f604051808303815f87803b1580156114b4575f5ffd5b505af11580156114c6573d5f5f3e3d5ffd5b5050505080806001019150506113a4565b50505050565b5f5f5f9054906101000a900473ffffffffffffffffffffffffffffffffffffffff16905090565b6060600480548060200260200160405190810160405280929190818152602001828054801561158557602002820191905f5260205f20905b815f9054906101000a900473ffffffffffffffffffffffffffffffffffffffff1673ffffffffffffffffffffffffffffffffffffffff168152602001906001019080831161153c575b5050505050905090565b5f60015f8473ffffffffffffffffffffffffffffffffffffffff1673ffffffffffffffffffffffffffffffffffffffff1681526020019081526020015f20805490508210611612576040517f08c379a000000000000000000000000000000000000000000000000000000000815260040161160990612137565b60405180910390fd5b60015f8473ffffffffffffffffffffffffffffffffffffffff1673ffffffffffffffffffffffffffffffffffffffff1681526020019081526020015f20828154811061166157611660611f42565b5b905f5260205f20015f9054906101000a900473ffffffffffffffffffffffffffffffffffffffff16905092915050565b5f5f3390505f60015f8373ffffffffffffffffffffffffffffffffffffffff1673ffffffffffffffffffffffffffffffffffffffff1681526020019081526020015f2080549050036116e7576001915050611848565b5f5f90505b60015f8373ffffffffffffffffffffffffffffffffffffffff1673ffffffffffffffffffffffffffffffffffffffff1681526020019081526020015f20805490508110156118415760015f8373ffffffffffffffffffffffffffffffffffffffff1673ffffffffffffffffffffffffffffffffffffffff1681526020019081526020015f20818154811061178357611782611f42565b5b905f5260205f20015f9054906101000a900473ffffffffffffffffffffffffffffffffffffffff1673ffffffffffffffffffffffffffffffffffffffff1663e46638e68787876040518463ffffffff1660e01b81526004016117e7939291906120b8565b602060405180830381865afa158015611802573d5f5f3e3d5ffd5b505050506040513d601f19601f82011682018060405250810190611826919061217f565b611834575f92505050611848565b80806001019150506116ec565b5060019150505b9392505050565b5f60035f8473ffffffffffffffffffffffffffffffffffffffff1673ffffffffffffffffffffffffffffffffffffffff1681526020019081526020015f205f8373ffffffffffffffffffffffffffffffffffffffff1673ffffffffffffffffffffffffffffffffffffffff1681526020019081526020015f205f9054906101000a900460ff16905092915050565b6118e5611961565b5f73ffffffffffffffffffffffffffffffffffffffff168173ffffffffffffffffffffffffffffffffffffffff1603611955575f6040517f1e4fbdf700000000000000000000000000000000000000000000000000000000815260040161194c9190611d79565b60405180910390fd5b61195e816119e8565b50565b611969611aa9565b73ffffffffffffffffffffffffffffffffffffffff166119876114dd565b73ffffffffffffffffffffffffffffffffffffffff16146119e6576119aa611aa9565b6040517f118cdaa70000000000000000000000000000000000000000000000000000000081526004016119dd9190611d79565b60405180910390fd5b565b5f5f5f9054906101000a900473ffffffffffffffffffffffffffffffffffffffff169050815f5f6101000a81548173ffffffffffffffffffffffffffffffffffffffff021916908373ffffffffffffffffffffffffffffffffffffffff1602179055508173ffffffffffffffffffffffffffffffffffffffff168173ffffffffffffffffffffffffffffffffffffffff167f8be0079c531659141344cd1fd0a4f28419497f9722a3daafe3b4186f6b6457e060405160405180910390a35050565b5f33905090565b5f5ffd5b5f73ffffffffffffffffffffffffffffffffffffffff82169050919050565b5f611add82611ab4565b9050919050565b611aed81611ad3565b8114611af7575f5ffd5b50565b5f81359050611b0881611ae4565b92915050565b5f60208284031215611b2357611b22611ab0565b5b5f611b3084828501611afa565b91505092915050565b5f8115159050919050565b611b4d81611b39565b82525050565b5f602082019050611b665f830184611b44565b92915050565b5f819050919050565b611b7e81611b6c565b82525050565b5f602082019050611b975f830184611b75565b92915050565b5f5f60408385031215611bb357611bb2611ab0565b5b5f611bc085828601611afa565b9250506020611bd185828601611afa565b9150509250929050565b611be481611b6c565b8114611bee575f5ffd5b50565b5f81359050611bff81611bdb565b92915050565b5f5f60408385031215611c1b57611c1a611ab0565b5b5f611c2885828601611afa565b9250506020611c3985828601611bf1565b9150509250929050565b5f81519050919050565b5f82825260208201905092915050565b5f819050602082019050919050565b611c7581611ad3565b82525050565b5f611c868383611c6c565b60208301905092915050565b5f602082019050919050565b5f611ca882611c43565b611cb28185611c4d565b9350611cbd83611c5d565b805f5b83811015611ced578151611cd48882611c7b565b9750611cdf83611c92565b925050600181019050611cc0565b5085935050505092915050565b5f6020820190508181035f830152611d128184611c9e565b905092915050565b5f5f5f60608486031215611d3157611d30611ab0565b5b5f611d3e86828701611afa565b9350506020611d4f86828701611afa565b9250506040611d6086828701611bf1565b9150509250925092565b611d7381611ad3565b82525050565b5f602082019050611d8c5f830184611d6a565b92915050565b5f82825260208201905092915050565b7f4f6e6c79206f776e6572206f7220746f6b656e2063616e2063616c6c000000005f82015250565b5f611dd6601c83611d92565b9150611de182611da2565b602082019050919050565b5f6020820190508181035f830152611e0381611dca565b9050919050565b7f496e76616c696420746f6b656e206164647265737300000000000000000000005f82015250565b5f611e3e601583611d92565b9150611e4982611e0a565b602082019050919050565b5f6020820190508181035f830152611e6b81611e32565b9050919050565b7f496e76616c6964206d6f64756c652061646472657373000000000000000000005f82015250565b5f611ea6601683611d92565b9150611eb182611e72565b602082019050919050565b5f6020820190508181035f830152611ed381611e9a565b9050919050565b7f4d6f64756c6520616c72656164792061646465640000000000000000000000005f82015250565b5f611f0e601483611d92565b9150611f1982611eda565b602082019050919050565b5f6020820190508181035f830152611f3b81611f02565b9050919050565b7f4e487b71000000000000000000000000000000000000000000000000000000005f52603260045260245ffd5b5f604082019050611f825f830185611d6a565b611f8f6020830184611b75565b9392505050565b7f4e487b71000000000000000000000000000000000000000000000000000000005f52604160045260245ffd5b7f4d6f64756c65206e6f74206163746976650000000000000000000000000000005f82015250565b5f611ff7601183611d92565b915061200282611fc3565b602082019050919050565b5f6020820190508181035f83015261202481611feb565b9050919050565b7f4e487b71000000000000000000000000000000000000000000000000000000005f52601160045260245ffd5b5f61206282611b6c565b915061206d83611b6c565b92508282039050818111156120855761208461202b565b5b92915050565b7f4e487b71000000000000000000000000000000000000000000000000000000005f52603160045260245ffd5b5f6060820190506120cb5f830186611d6a565b6120d86020830185611d6a565b6120e56040830184611b75565b949350505050565b7f496e646578206f7574206f6620626f756e6473000000000000000000000000005f82015250565b5f612121601383611d92565b915061212c826120ed565b602082019050919050565b5f6020820190508181035f83015261214e81612115565b9050919050565b61215e81611b39565b8114612168575f5ffd5b50565b5f8151905061217981612155565b92915050565b5f6020828403121561219457612193611ab0565b5b5f6121a18482850161216b565b9150509291505056fea2646970667358221220ae815c49a7af3b4c87e92dd3cc51c403711f99e5a43251c886fa29fefcd1584164736f6c634300081e0033","linkReferences":{}},"methodIdentifiers":{"addModule(address,address)":"5a1db8c4","canTransfer(address,address,uint256)":"e46638e6","created(address,uint256)":"5f8dead3","destroyed(address,uint256)":"8d2ea772","getModuleAt(address,uint256)":"ddd23c3f","getModuleCount(address)":"4ed72ef8","getModules(address)":"66764500","getTokenCount()":"78a89567","getTokens()":"aa6ca808","isModuleActiveForToken(address,address)":"e5faf00a","isTokenRegistered(address)":"26aa101f","owner()":"8da5cb5b","removeModule(address,address)":"6a36e3a2","renounceOwnership()":"715018a6","transferOwnership(address)":"f2fde38b","transferred(address,address,uint256)":"8baf29b4"},"id":52}