{"abi":[{"type":"constructor","inputs":[{"name":"name_","type":"string","internalType":"string"},{"name":"symbol_","type":"string","internalType":"string"},{"name":"decimals_","type":"uint8","internalType":"uint8"},{"name":"admin","type":"address","internalType":"address"}],"stateMutability":"nonpayable"},{"type":"function","name":"AGENT_ROLE","inputs":[],"outputs":[{"name":"","type":"bytes32","internalType":"bytes32"}],"stateMutability":"view"},{"type":"function","name":"COMPLIANCE_ROLE","inputs":[],"outputs":[{"name":"","type":"bytes32","internalType":"bytes32"}],"stateMutability":"view"},{"type":"function","name":"DEFAULT_ADMIN_ROLE","inputs":[],"outputs":[{"name":"","type":"bytes32","internalType":"bytes32"}],"stateMutability":"view"},{"type":"function","name":"addComplianceModule","inputs":[{"name":"module","type":"address","internalType":"address"}],"outputs":[],"stateMutability":"nonpayable"},{"type":"function","name":"addModuleThroughAggregator","inputs":[{"name":"aggregator","type":"address","internalType":"address"},{"name":"module","type":"address","internalType":"address"}],"outputs":[],"stateMutability":"nonpayable"},{"type":"function","name":"allowance","inputs":[{"name":"owner","type":"address","internalType":"address"},{"name":"spender","type":"address","internalType":"address"}],"outputs":[{"name":"","type":"uint256","internalType":"uint256"}],"stateMutability":"view"},{"type":"function","name":"approve","inputs":[{"name":"spender","type":"address","internalType":"address"},{"name":"value","type":"uint256","internalType":"uint256"}],"outputs":[{"name":"","type":"bool","internalType":"bool"}],"stateMutability":"nonpayable"},{"type":"function","name":"balanceOf","inputs":[{"name":"account","type":"address","internalType":"address"}],"outputs":[{"name":"","type":"uint256","internalType":"uint256"}],"stateMutability":"view"},{"type":"function","name":"burn","inputs":[{"name":"from","type":"address","internalType":"address"},{"name":"amount","type":"uint256","internalType":"uint256"}],"outputs":[],"stateMutability":"nonpayable"},{"type":"function","name":"canTransfer","inputs":[{"name":"from","type":"address","internalType":"address"},{"name":"to","type":"address","internalType":"address"},{"name":"amount","type":"uint256","internalType":"uint256"}],"outputs":[{"name":"","type":"bool","internalType":"bool"}],"stateMutability":"view"},{"type":"function","name":"claimTopicsRegistry","inputs":[],"outputs":[{"name":"","type":"address","internalType":"contract ClaimTopicsRegistry"}],"stateMutability":"view"},{"type":"function","name":"complianceModules","inputs":[{"name":"","type":"uint256","internalType":"uint256"}],"outputs":[{"name":"","type":"address","internalType":"contract ICompliance"}],"stateMutability":"view"},{"type":"function","name":"decimals","inputs":[],"outputs":[{"name":"","type":"uint8","internalType":"uint8"}],"stateMutability":"view"},{"type":"function","name":"forcedTransfer","inputs":[{"name":"from","type":"address","internalType":"address"},{"name":"to","type":"address","internalType":"address"},{"name":"amount","type":"uint256","internalType":"uint256"}],"outputs":[],"stateMutability":"nonpayable"},{"type":"function","name":"freezeAccount","inputs":[{"name":"account","type":"address","internalType":"address"}],"outputs":[],"stateMutability":"nonpayable"},{"type":"function","name":"getAggregatorModuleCount","inputs":[{"name":"aggregator","type":"address","internalType":"address"}],"outputs":[{"name":"","type":"uint256","internalType":"uint256"}],"stateMutability":"view"},{"type":"function","name":"getAggregatorModules","inputs":[{"name":"aggregator","type":"address","internalType":"address"}],"outputs":[{"name":"","type":"address[]","internalType":"address[]"}],"stateMutability":"view"},{"type":"function","name":"getComplianceModules","inputs":[],"outputs":[{"name":"","type":"address[]","internalType":"address[]"}],"stateMutability":"view"},{"type":"function","name":"getRoleAdmin","inputs":[{"name":"role","type":"bytes32","internalType":"bytes32"}],"outputs":[{"name":"","type":"bytes32","internalType":"bytes32"}],"stateMutability":"view"},{"type":"function","name":"grantRole","inputs":[{"name":"role","type":"bytes32","internalType":"bytes32"},{"name":"account","type":"address","internalType":"address"}],"outputs":[],"stateMutability":"nonpayable"},{"type":"function","name":"hasRole","inputs":[{"name":"role","type":"bytes32","internalType":"bytes32"},{"name":"account","type":"address","internalType":"address"}],"outputs":[{"name":"","type":"bool","internalType":"bool"}],"stateMutability":"view"},{"type":"function","name":"identityRegistry","inputs":[],"outputs":[{"name":"","type":"address","internalType":"contract IdentityRegistry"}],"stateMutability":"view"},{"type":"function","name":"isFrozen","inputs":[{"name":"account","type":"address","internalType":"address"}],"outputs":[{"name":"","type":"bool","internalType":"bool"}],"stateMutability":"view"},{"type":"function","name":"isModuleActiveInAggregator","inputs":[{"name":"aggregator","type":"address","internalType":"address"},{"name":"module","type":"address","internalType":"address"}],"outputs":[{"name":"","type":"bool","internalType":"bool"}],"stateMutability":"view"},{"type":"function","name":"isVerified","inputs":[{"name":"account","type":"address","internalType":"address"}],"outputs":[{"name":"","type":"bool","internalType":"bool"}],"stateMutability":"view"},{"type":"function","name":"mint","inputs":[{"name":"to","type":"address","internalType":"address"},{"name":"amount","type":"uint256","internalType":"uint256"}],"outputs":[],"stateMutability":"nonpayable"},{"type":"function","name":"name","inputs":[],"outputs":[{"name":"","type":"string","internalType":"string"}],"stateMutability":"view"},{"type":"function","name":"pause","inputs":[],"outputs":[],"stateMutability":"nonpayable"},{"type":"function","name":"paused","inputs":[],"outputs":[{"name":"","type":"bool","internalType":"bool"}],"stateMutability":"view"},{"type":"function","name":"removeComplianceModule","inputs":[{"name":"index","type":"uint256","internalType":"uint256"}],"outputs":[],"stateMutability":"nonpayable"},{"type":"function","name":"removeModuleThroughAggregator","inputs":[{"name":"aggregator","type":"address","internalType":"address"},{"name":"module","type":"address","internalType":"address"}],"outputs":[],"stateMutability":"nonpayable"},{"type":"function","name":"renounceRole","inputs":[{"name":"role","type":"bytes32","internalType":"bytes32"},{"name":"callerConfirmation","type":"address","internalType":"address"}],"outputs":[],"stateMutability":"nonpayable"},{"type":"function","name":"revokeRole","inputs":[{"name":"role","type":"bytes32","internalType":"bytes32"},{"name":"account","type":"address","internalType":"address"}],"outputs":[],"stateMutability":"nonpayable"},{"type":"function","name":"setClaimTopicsRegistry","inputs":[{"name":"registry","type":"address","internalType":"address"}],"outputs":[],"stateMutability":"nonpayable"},{"type":"function","name":"setIdentityRegistry","inputs":[{"name":"registry","type":"address","internalType":"address"}],"outputs":[],"stateMutability":"nonpayable"},{"type":"function","name":"setTrustedIssuersRegistry","inputs":[{"name":"registry","type":"address","internalType":"address"}],"outputs":[],"stateMutability":"nonpayable"},{"type":"function","name":"supportsInterface","inputs":[{"name":"interfaceId","type":"bytes4","internalType":"bytes4"}],"outputs":[{"name":"","type":"bool","internalType":"bool"}],"stateMutability":"view"},{"type":"function","name":"symbol","inputs":[],"outputs":[{"name":"","type":"string","internalType":"string"}],"stateMutability":"view"},{"type":"function","name":"totalSupply","inputs":[],"outputs":[{"name":"","type":"uint256","internalType":"uint256"}],"stateMutability":"view"},{"type":"function","name":"transfer","inputs":[{"name":"to","type":"address","internalType":"address"},{"name":"value","type":"uint256","internalType":"uint256"}],"outputs":[{"name":"","type":"bool","internalType":"bool"}],"stateMutability":"nonpayable"},{"type":"function","name":"transferFrom","inputs":[{"name":"from","type":"address","internalType":"address"},{"name":"to","type":"address","internalType":"address"},{"name":"value","type":"uint256","internalType":"uint256"}],"outputs":[{"name":"","type":"bool","internalType":"bool"}],"stateMutability":"nonpayable"},{"type":"function","name":"trustedIssuersRegistry","inputs":[],"outputs":[{"name":"","type":"address","internalType":"contract TrustedIssuersRegistry"}],"stateMutability":"view"},{"type":"function","name":"unfreezeAccount","inputs":[{"name":"account","type":"address","internalType":"address"}],"outputs":[],"stateMutability":"nonpayable"},{"type":"function","name":"unpause","inputs":[],"outputs":[],"stateMutability":"nonpayable"},{"type":"event","name":"Approval","inputs":[{"name":"owner","type":"address","indexed":true,"internalType":"address"},{"name":"spender","type":"address","indexed":true,"internalType":"address"},{"name":"value","type":"uint256","indexed":false,"internalType":"uint256"}],"anonymous":false},{"type":"event","name":"ClaimTopicsRegistrySet","inputs":[{"name":"registry","type":"address","indexed":true,"internalType":"address"}],"anonymous":false},{"type":"event","name":"ComplianceModuleAdded","inputs":[{"name":"module","type":"address","indexed":true,"internalType":"address"}],"anonymous":false},{"type":"event","name":"ComplianceModuleRemoved","inputs":[{"name":"module","type":"address","indexed":true,"internalType":"address"}],"anonymous":false},{"type":"event","name":"Frozen","inputs":[{"name":"account","type":"address","indexed":true,"internalType":"address"}],"anonymous":false},{"type":"event","name":"IdentityRegistrySet","inputs":[{"name":"registry","type":"address","indexed":true,"internalType":"address"}],"anonymous":false},{"type":"event","name":"Paused","inputs":[{"name":"account","type":"address","indexed":false,"internalType":"address"}],"anonymous":false},{"type":"event","name":"RoleAdminChanged","inputs":[{"name":"role","type":"bytes32","indexed":true,"internalType":"bytes32"},{"name":"previousAdminRole","type":"bytes32","indexed":true,"internalType":"bytes32"},{"name":"newAdminRole","type":"bytes32","indexed":true,"internalType":"bytes32"}],"anonymous":false},{"type":"event","name":"RoleGranted","inputs":[{"name":"role","type":"bytes32","indexed":true,"internalType":"bytes32"},{"name":"account","type":"address","indexed":true,"internalType":"address"},{"name":"sender","type":"address","indexed":true,"internalType":"address"}],"anonymous":false},{"type":"event","name":"RoleRevoked","inputs":[{"name":"role","type":"bytes32","indexed":true,"internalType":"bytes32"},{"name":"account","type":"address","indexed":true,"internalType":"address"},{"name":"sender","type":"address","indexed":true,"internalType":"address"}],"anonymous":false},{"type":"event","name":"Transfer","inputs":[{"name":"from","type":"address","indexed":true,"internalType":"address"},{"name":"to","type":"address","indexed":true,"internalType":"address"},{"name":"value","type":"uint256","indexed":false,"internalType":"uint256"}],"anonymous":false},{"type":"event","name":"TrustedIssuersRegistrySet","inputs":[{"name":"registry","type":"address","indexed":true,"internalType":"address"}],"anonymous":false},{"type":"event","name":"Unfrozen","inputs":[{"name":"account","type":"address","indexed":true,"internalType":"address"}],"anonymous":false},{"type":"event","name":"Unpaused","inputs":[{"name":"account","type":"address","indexed":false,"internalType":"address"}],"anonymous":false},{"type":"error","name":"AccessControlBadConfirmation","inputs":[]},{"type":"error","name":"AccessControlUnauthorizedAccount","inputs":[{"name":"account","type":"address","internalType":"address"},{"name":"neededRole","type":"bytes32","internalType":"bytes32"}]},{"type":"error","name":"ERC20InsufficientAllowance","inputs":[{"name":"spender","type":"address","internalType":"address"},{"name":"allowance","type":"uint256","internalType":"uint256"},{"name":"needed","type":"uint256","internalType":"uint256"}]},{"type":"error","name":"ERC20InsufficientBalance","inputs":[{"name":"sender","type":"address","internalType":"address"},{"name":"balance","type":"uint256","internalType":"uint256"},{"name":"needed","type":"uint256","internalType":"uint256"}]},{"type":"error","name":"ERC20InvalidApprover","inputs":[{"name":"approver","type":"address","internalType":"address"}]},{"type":"error","name":"ERC20InvalidReceiver","inputs":[{"name":"receiver","type":"address","internalType":"address"}]},{"type":"error","name":"ERC20InvalidSender","inputs":[{"name":"sender","type":"address","internalType":"address"}]},{"type":"error","name":"ERC20InvalidSpender","inputs":[{"name":"spender","type":"address","internalType":"address"}]},{"type":"error","name":"EnforcedPause","inputs":[]},{"type":"error","name":"ExpectedPause","inputs":[]}],"bytecode":{"object":"0x608060405234801561000f575f5ffd5b50604051614ea2380380614ea28339818101604052810190610031919061044b565b8383816003908161004291906106f7565b50806004908161005291906106f7565b50505083600a908161006491906106f7565b5082600b908161007491906106f7565b5081600c5f6101000a81548160ff021916908360ff1602179055506100a15f5f1b8261010d60201b60201c565b506100d27fcab5a0bfe0b79d2c4b1c2e02599fa044d115b7511f9659307cb42769509677098261010d60201b60201c565b506101037f442a94f1a1fac79af32856af2a64f63648cfa2ef3b98610a5bb7cbec4cee69858261010d60201b60201c565b50505050506107c6565b5f61011e838361020360201b60201c565b6101f957600160055f8581526020019081526020015f205f015f8473ffffffffffffffffffffffffffffffffffffffff1673ffffffffffffffffffffffffffffffffffffffff1681526020019081526020015f205f6101000a81548160ff02191690831515021790555061019661026760201b60201c565b73ffffffffffffffffffffffffffffffffffffffff168273ffffffffffffffffffffffffffffffffffffffff16847f2f8788117e7eff1d82e926ec794901d17c78024a50270940304540a733656f0d60405160405180910390a4600190506101fd565b5f90505b92915050565b5f60055f8481526020019081526020015f205f015f8373ffffffffffffffffffffffffffffffffffffffff1673ffffffffffffffffffffffffffffffffffffffff1681526020019081526020015f205f9054906101000a900460ff16905092915050565b5f33905090565b5f604051905090565b5f5ffd5b5f5ffd5b5f5ffd5b5f5ffd5b5f601f19601f8301169050919050565b7f4e487b71000000000000000000000000000000000000000000000000000000005f52604160045260245ffd5b6102cd82610287565b810181811067ffffffffffffffff821117156102ec576102eb610297565b5b80604052505050565b5f6102fe61026e565b905061030a82826102c4565b919050565b5f67ffffffffffffffff82111561032957610328610297565b5b61033282610287565b9050602081019050919050565b8281835e5f83830152505050565b5f61035f61035a8461030f565b6102f5565b90508281526020810184848401111561037b5761037a610283565b5b61038684828561033f565b509392505050565b5f82601f8301126103a2576103a161027f565b5b81516103b284826020860161034d565b91505092915050565b5f60ff82169050919050565b6103d0816103bb565b81146103da575f5ffd5b50565b5f815190506103eb816103c7565b92915050565b5f73ffffffffffffffffffffffffffffffffffffffff82169050919050565b5f61041a826103f1565b9050919050565b61042a81610410565b8114610434575f5ffd5b50565b5f8151905061044581610421565b92915050565b5f5f5f5f6080858703121561046357610462610277565b5b5f85015167ffffffffffffffff8111156104805761047f61027b565b5b61048c8782880161038e565b945050602085015167ffffffffffffffff8111156104ad576104ac61027b565b5b6104b98782880161038e565b93505060406104ca878288016103dd565b92505060606104db87828801610437565b91505092959194509250565b5f81519050919050565b7f4e487b71000000000000000000000000000000000000000000000000000000005f52602260045260245ffd5b5f600282049050600182168061053557607f821691505b602082108103610548576105476104f1565b5b50919050565b5f819050815f5260205f209050919050565b5f6020601f8301049050919050565b5f82821b905092915050565b5f600883026105aa7fffffffffffffffffffffffffffffffffffffffffffffffffffffffffffffffff8261056f565b6105b4868361056f565b95508019841693508086168417925050509392505050565b5f819050919050565b5f819050919050565b5f6105f86105f36105ee846105cc565b6105d5565b6105cc565b9050919050565b5f819050919050565b610611836105de565b61062561061d826105ff565b84845461057b565b825550505050565b5f5f905090565b61063c61062d565b610647818484610608565b505050565b5b8181101561066a5761065f5f82610634565b60018101905061064d565b5050565b601f8211156106af576106808161054e565b61068984610560565b81016020851015610698578190505b6106ac6106a485610560565b83018261064c565b50505b505050565b5f82821c905092915050565b5f6106cf5f19846008026106b4565b1980831691505092915050565b5f6106e783836106c0565b9150826002028217905092915050565b610700826104e7565b67ffffffffffffffff81111561071957610718610297565b5b610723825461051e565b61072e82828561066e565b5f60209050601f83116001811461075f575f841561074d578287015190505b61075785826106dc565b8655506107be565b601f19841661076d8661054e565b5f5b828110156107945784890151825560018201915060208501945060208101905061076f565b868310156107b157848901516107ad601f8916826106c0565b8355505b6001600288020188555050505b505050505050565b6146cf806107d35f395ff3fe608060405234801561000f575f5ffd5b5060043610610272575f3560e01c8063670af6a91161014f578063b9209e33116100c1578063e46638e611610085578063e46638e614610780578063e5839836146107b0578063e744d789146107e0578063f26c159f146107fc578063f2d5980314610818578063fb703a7b1461084857610272565b8063b9209e33146106ca578063c8be2d1c146106fa578063cbf3f86114610718578063d547741f14610734578063dd62ed3e1461075057610272565b806391d148541161011357806391d14854146105f657806395d89b41146106265780639dc29fac146106445780639fc1d0e714610660578063a217fddf1461067c578063a9059cbb1461069a57610272565b8063670af6a91461056857806370a0823114610584578063788649ea146105b45780638456cb59146105d0578063867f88ce146105da57610272565b8063217a1059116101e85780632f2ff15d116101ac5780632f2ff15d146104ce578063313ce567146104ea57806336568abe146105085780633f4ba83a1461052457806340c10f191461052e5780635c975abb1461054a57610272565b8063217a10591461040457806322459e181461043457806323b872dd14610452578063248a9ca31461048257806325a87867146104b257610272565b8063095ea7b31161023a578063095ea7b31461031c5780630baba0661461034c578063134e18f41461037c57806318160ddd1461039a5780631a63fcd8146103b85780631b72a105146103e857610272565b806301f4abf41461027657806301ffc9a714610292578063062d3bd7146102c257806306fdde03146102e057806308761324146102fe575b5f5ffd5b610290600480360381019061028b9190613752565b610866565b005b6102ac60048036038101906102a791906137e5565b610ab5565b6040516102b9919061382a565b60405180910390f35b6102ca610b2e565b6040516102d7919061385b565b60405180910390f35b6102e8610b52565b6040516102f591906138e4565b60405180910390f35b610306610be2565b604051610313919061395f565b60405180910390f35b610336600480360381019061033191906139ab565b610c07565b604051610343919061382a565b60405180910390f35b610366600480360381019061036191906139e9565b610c29565b6040516103739190613a23565b60405180910390f35b610384610d17565b6040516103919190613a5c565b60405180910390f35b6103a2610d3d565b6040516103af9190613a23565b60405180910390f35b6103d260048036038101906103cd9190613a75565b610d46565b6040516103df9190613ac0565b60405180910390f35b61040260048036038101906103fd91906139e9565b610d81565b005b61041e600480360381019061041991906139e9565b610ec0565b60405161042b9190613b90565b60405180910390f35b61043c610fb2565b604051610449919061385b565b60405180910390f35b61046c60048036038101906104679190613bb0565b610fd6565b604051610479919061382a565b60405180910390f35b61049c60048036038101906104979190613c2a565b611004565b6040516104a9919061385b565b60405180910390f35b6104cc60048036038101906104c79190613752565b611021565b005b6104e860048036038101906104e39190613c55565b611194565b005b6104f26111b6565b6040516104ff9190613cae565b60405180910390f35b610522600480360381019061051d9190613c55565b6111cb565b005b61052c611246565b005b610548600480360381019061054391906139ab565b61125d565b005b6105526114b7565b60405161055f919061382a565b60405180910390f35b610582600480360381019061057d91906139e9565b6114cc565b005b61059e600480360381019061059991906139e9565b6115cd565b6040516105ab9190613a23565b60405180910390f35b6105ce60048036038101906105c991906139e9565b611612565b005b6105d86116d7565b005b6105f460048036038101906105ef9190613a75565b6116ee565b005b610610600480360381019061060b9190613c55565b6118d0565b60405161061d919061382a565b60405180910390f35b61062e611934565b60405161063b91906138e4565b60405180910390f35b61065e600480360381019061065991906139ab565b6119c4565b005b61067a60048036038101906106759190613bb0565b611ac0565b005b610684611c3b565b604051610691919061385b565b60405180910390f35b6106b460048036038101906106af91906139ab565b611c41565b6040516106c1919061382a565b60405180910390f35b6106e460048036038101906106df91906139e9565b611c63565b6040516106f1919061382a565b60405180910390f35b6107026122a6565b60405161070f9190613b90565b60405180910390f35b610732600480360381019061072d91906139e9565b6123a9565b005b61074e60048036038101906107499190613c55565b6124ab565b005b61076a60048036038101906107659190613752565b6124cd565b6040516107779190613a23565b60405180910390f35b61079a60048036038101906107959190613bb0565b61254f565b6040516107a7919061382a565b60405180910390f35b6107ca60048036038101906107c591906139e9565b612725565b6040516107d7919061382a565b60405180910390f35b6107fa60048036038101906107f591906139e9565b612777565b005b610816600480360381019061081191906139e9565b612878565b005b610832600480360381019061082d9190613752565b61293e565b60405161083f919061382a565b60405180910390f35b610850612a2f565b60405161085d9190613ce7565b60405180910390f35b7f442a94f1a1fac79af32856af2a64f63648cfa2ef3b98610a5bb7cbec4cee698561089081612a54565b5f73ffffffffffffffffffffffffffffffffffffffff168373ffffffffffffffffffffffffffffffffffffffff16036108fe576040517f08c379a00000000000000000000000000000000000000000000000000000000081526004016108f590613d4a565b60405180910390fd5b5f73ffffffffffffffffffffffffffffffffffffffff168273ffffffffffffffffffffffffffffffffffffffff160361096c576040517f08c379a000000000000000000000000000000000000000000000000000000000815260040161096390613db2565b60405180910390fd5b5f5f90505f5f90505b600980549050811015610a06578473ffffffffffffffffffffffffffffffffffffffff16600982815481106109ad576109ac613dd0565b5b905f5260205f20015f9054906101000a900473ffffffffffffffffffffffffffffffffffffffff1673ffffffffffffffffffffffffffffffffffffffff16036109f95760019150610a06565b8080600101915050610975565b5080610a47576040517f08c379a0000000000000000000000000000000000000000000000000000000008152600401610a3e90613e6d565b60405180910390fd5b8373ffffffffffffffffffffffffffffffffffffffff16635a1db8c430856040518363ffffffff1660e01b8152600401610a82929190613e9a565b5f604051808303815f87803b158015610a99575f5ffd5b505af1158015610aab573d5f5f3e3d5ffd5b5050505050505050565b5f7f7965db0b000000000000000000000000000000000000000000000000000000007bffffffffffffffffffffffffffffffffffffffffffffffffffffffff1916827bffffffffffffffffffffffffffffffffffffffffffffffffffffffff19161480610b275750610b2682612a68565b5b9050919050565b7f442a94f1a1fac79af32856af2a64f63648cfa2ef3b98610a5bb7cbec4cee698581565b606060038054610b6190613eee565b80601f0160208091040260200160405190810160405280929190818152602001828054610b8d90613eee565b8015610bd85780601f10610baf57610100808354040283529160200191610bd8565b820191905f5260205f20905b815481529060010190602001808311610bbb57829003601f168201915b5050505050905090565b60085f9054906101000a900473ffffffffffffffffffffffffffffffffffffffff1681565b5f5f610c11612ad1565b9050610c1e818585612ad8565b600191505092915050565b5f5f73ffffffffffffffffffffffffffffffffffffffff168273ffffffffffffffffffffffffffffffffffffffff1603610c98576040517f08c379a0000000000000000000000000000000000000000000000000000000008152600401610c8f90613d4a565b60405180910390fd5b8173ffffffffffffffffffffffffffffffffffffffff16634ed72ef8306040518263ffffffff1660e01b8152600401610cd19190613f1e565b602060405180830381865afa158015610cec573d5f5f3e3d5ffd5b505050506040513d601f19601f82011682018060405250810190610d109190613f4b565b9050919050565b600660019054906101000a900473ffffffffffffffffffffffffffffffffffffffff1681565b5f600254905090565b60098181548110610d55575f80fd5b905f5260205f20015f915054906101000a900473ffffffffffffffffffffffffffffffffffffffff1681565b7f442a94f1a1fac79af32856af2a64f63648cfa2ef3b98610a5bb7cbec4cee6985610dab81612a54565b5f73ffffffffffffffffffffffffffffffffffffffff168273ffffffffffffffffffffffffffffffffffffffff1603610e19576040517f08c379a0000000000000000000000000000000000000000000000000000000008152600401610e1090613db2565b60405180910390fd5b600982908060018154018082558091505060019003905f5260205f20015f9091909190916101000a81548173ffffffffffffffffffffffffffffffffffffffff021916908373ffffffffffffffffffffffffffffffffffffffff1602179055508173ffffffffffffffffffffffffffffffffffffffff167fe1be16b136432bd24b5b1388a40ec7863174aff11cc151ab59749f87da9fdee160405160405180910390a25050565b60605f73ffffffffffffffffffffffffffffffffffffffff168273ffffffffffffffffffffffffffffffffffffffff1603610f30576040517f08c379a0000000000000000000000000000000000000000000000000000000008152600401610f2790613d4a565b60405180910390fd5b8173ffffffffffffffffffffffffffffffffffffffff166366764500306040518263ffffffff1660e01b8152600401610f699190613f1e565b5f60405180830381865afa158015610f83573d5f5f3e3d5ffd5b505050506040513d5f823e3d601f19601f82011682018060405250810190610fab91906140ca565b9050919050565b7fcab5a0bfe0b79d2c4b1c2e02599fa044d115b7511f9659307cb427695096770981565b5f5f610fe0612ad1565b9050610fed858285612aea565b610ff8858585612b7d565b60019150509392505050565b5f60055f8381526020019081526020015f20600101549050919050565b7f442a94f1a1fac79af32856af2a64f63648cfa2ef3b98610a5bb7cbec4cee698561104b81612a54565b5f73ffffffffffffffffffffffffffffffffffffffff168373ffffffffffffffffffffffffffffffffffffffff16036110b9576040517f08c379a00000000000000000000000000000000000000000000000000000000081526004016110b090613d4a565b60405180910390fd5b5f73ffffffffffffffffffffffffffffffffffffffff168273ffffffffffffffffffffffffffffffffffffffff1603611127576040517f08c379a000000000000000000000000000000000000000000000000000000000815260040161111e90613db2565b60405180910390fd5b8273ffffffffffffffffffffffffffffffffffffffff16636a36e3a230846040518363ffffffff1660e01b8152600401611162929190613e9a565b5f604051808303815f87803b158015611179575f5ffd5b505af115801561118b573d5f5f3e3d5ffd5b50505050505050565b61119d82611004565b6111a681612a54565b6111b08383612c6d565b50505050565b5f600c5f9054906101000a900460ff16905090565b6111d3612ad1565b73ffffffffffffffffffffffffffffffffffffffff168173ffffffffffffffffffffffffffffffffffffffff1614611237576040517f6697b23200000000000000000000000000000000000000000000000000000000815260040160405180910390fd5b6112418282612d57565b505050565b5f5f1b61125281612a54565b61125a612e41565b50565b7fcab5a0bfe0b79d2c4b1c2e02599fa044d115b7511f9659307cb427695096770961128781612a54565b61129083611c63565b6112cf576040517f08c379a00000000000000000000000000000000000000000000000000000000081526004016112c69061415b565b60405180910390fd5b5f5f90505b6009805490508110156113e457600981815481106112f5576112f4613dd0565b5b905f5260205f20015f9054906101000a900473ffffffffffffffffffffffffffffffffffffffff1673ffffffffffffffffffffffffffffffffffffffff1663e46638e65f86866040518463ffffffff1660e01b815260040161135993929190614179565b602060405180830381865afa158015611374573d5f5f3e3d5ffd5b505050506040513d601f19601f8201168201806040525081019061139891906141d8565b6113d7576040517f08c379a00000000000000000000000000000000000000000000000000000000081526004016113ce9061424d565b60405180910390fd5b80806001019150506112d4565b506113ef8383612ea2565b5f5f90505b6009805490508110156114b1576009818154811061141557611414613dd0565b5b905f5260205f20015f9054906101000a900473ffffffffffffffffffffffffffffffffffffffff1673ffffffffffffffffffffffffffffffffffffffff16635f8dead385856040518363ffffffff1660e01b815260040161147792919061426b565b5f604051808303815f87803b15801561148e575f5ffd5b505af11580156114a0573d5f5f3e3d5ffd5b5050505080806001019150506113f4565b50505050565b5f60065f9054906101000a900460ff16905090565b5f5f1b6114d881612a54565b5f73ffffffffffffffffffffffffffffffffffffffff168273ffffffffffffffffffffffffffffffffffffffff1603611546576040517f08c379a000000000000000000000000000000000000000000000000000000000815260040161153d906142dc565b60405180910390fd5b8160085f6101000a81548173ffffffffffffffffffffffffffffffffffffffff021916908373ffffffffffffffffffffffffffffffffffffffff1602179055508173ffffffffffffffffffffffffffffffffffffffff167f7170bf15b246e880b2369cd7c67d057760d8a35149e8c64dde91efa22bcc76d060405160405180910390a25050565b5f5f5f8373ffffffffffffffffffffffffffffffffffffffff1673ffffffffffffffffffffffffffffffffffffffff1681526020019081526020015f20549050919050565b7fcab5a0bfe0b79d2c4b1c2e02599fa044d115b7511f9659307cb427695096770961163c81612a54565b5f600d5f8473ffffffffffffffffffffffffffffffffffffffff1673ffffffffffffffffffffffffffffffffffffffff1681526020019081526020015f205f6101000a81548160ff0219169083151502179055508173ffffffffffffffffffffffffffffffffffffffff167f4feb53e305297ab8fb8f3420c95ea04737addc254a7270d8fc4605d2b9c61dba60405160405180910390a25050565b5f5f1b6116e381612a54565b6116eb612f21565b50565b7f442a94f1a1fac79af32856af2a64f63648cfa2ef3b98610a5bb7cbec4cee698561171881612a54565b600980549050821061175f576040517f08c379a000000000000000000000000000000000000000000000000000000000815260040161175690614344565b60405180910390fd5b5f6009838154811061177457611773613dd0565b5b905f5260205f20015f9054906101000a900473ffffffffffffffffffffffffffffffffffffffff169050600960016009805490506117b2919061438f565b815481106117c3576117c2613dd0565b5b905f5260205f20015f9054906101000a900473ffffffffffffffffffffffffffffffffffffffff16600984815481106117ff576117fe613dd0565b5b905f5260205f20015f6101000a81548173ffffffffffffffffffffffffffffffffffffffff021916908373ffffffffffffffffffffffffffffffffffffffff1602179055506009805480611856576118556143c2565b5b600190038181905f5260205f20015f6101000a81549073ffffffffffffffffffffffffffffffffffffffff021916905590558073ffffffffffffffffffffffffffffffffffffffff167ff3f11f4e6b87d4c3587a337c4533dab5c1dee243f72c0e77c1341a876157bbbe60405160405180910390a2505050565b5f60055f8481526020019081526020015f205f015f8373ffffffffffffffffffffffffffffffffffffffff1673ffffffffffffffffffffffffffffffffffffffff1681526020019081526020015f205f9054906101000a900460ff16905092915050565b60606004805461194390613eee565b80601f016020809104026020016040519081016040528092919081815260200182805461196f90613eee565b80156119ba5780601f10611991576101008083540402835291602001916119ba565b820191905f5260205f20905b81548152906001019060200180831161199d57829003601f168201915b5050505050905090565b7fcab5a0bfe0b79d2c4b1c2e02599fa044d115b7511f9659307cb42769509677096119ee81612a54565b6119f88383612f83565b5f5f90505b600980549050811015611aba5760098181548110611a1e57611a1d613dd0565b5b905f5260205f20015f9054906101000a900473ffffffffffffffffffffffffffffffffffffffff1673ffffffffffffffffffffffffffffffffffffffff16638d2ea77285856040518363ffffffff1660e01b8152600401611a8092919061426b565b5f604051808303815f87803b158015611a97575f5ffd5b505af1158015611aa9573d5f5f3e3d5ffd5b5050505080806001019150506119fd565b50505050565b7fcab5a0bfe0b79d2c4b1c2e02599fa044d115b7511f9659307cb4276950967709611aea81612a54565b611af383611c63565b611b32576040517f08c379a0000000000000000000000000000000000000000000000000000000008152600401611b299061415b565b60405180910390fd5b6001600e5f6101000a81548160ff021916908315150217905550611b57848484613002565b5f600e5f6101000a81548160ff0219169083151502179055505f5f90505b600980549050811015611c345760098181548110611b9657611b95613dd0565b5b905f5260205f20015f9054906101000a900473ffffffffffffffffffffffffffffffffffffffff1673ffffffffffffffffffffffffffffffffffffffff16638baf29b48686866040518463ffffffff1660e01b8152600401611bfa93929190614179565b5f604051808303815f87803b158015611c11575f5ffd5b505af1158015611c23573d5f5f3e3d5ffd5b505050508080600101915050611b75565b5050505050565b5f5f1b81565b5f5f611c4b612ad1565b9050611c58818585612b7d565b600191505092915050565b5f5f73ffffffffffffffffffffffffffffffffffffffff16600660019054906101000a900473ffffffffffffffffffffffffffffffffffffffff1673ffffffffffffffffffffffffffffffffffffffff1603611cc1575f90506122a1565b600660019054906101000a900473ffffffffffffffffffffffffffffffffffffffff1673ffffffffffffffffffffffffffffffffffffffff1663c3c5a547836040518263ffffffff1660e01b8152600401611d1c9190613f1e565b602060405180830381865afa158015611d37573d5f5f3e3d5ffd5b505050506040513d601f19601f82011682018060405250810190611d5b91906141d8565b611d67575f90506122a1565b5f600660019054906101000a900473ffffffffffffffffffffffffffffffffffffffff1673ffffffffffffffffffffffffffffffffffffffff16632fea7b81846040518263ffffffff1660e01b8152600401611dc39190613f1e565b602060405180830381865afa158015611dde573d5f5f3e3d5ffd5b505050506040513d601f19601f82011682018060405250810190611e0291906143ef565b90505f73ffffffffffffffffffffffffffffffffffffffff168173ffffffffffffffffffffffffffffffffffffffff1603611e40575f9150506122a1565b5f73ffffffffffffffffffffffffffffffffffffffff1660085f9054906101000a900473ffffffffffffffffffffffffffffffffffffffff1673ffffffffffffffffffffffffffffffffffffffff1603611e9e5760019150506122a1565b5f60085f9054906101000a900473ffffffffffffffffffffffffffffffffffffffff1673ffffffffffffffffffffffffffffffffffffffff1663df09d6046040518163ffffffff1660e01b81526004015f60405180830381865afa158015611f08573d5f5f3e3d5ffd5b505050506040513d5f823e3d601f19601f82011682018060405250810190611f3091906144da565b90505f5f90505b8151811015612299575f5f90505f73ffffffffffffffffffffffffffffffffffffffff1660075f9054906101000a900473ffffffffffffffffffffffffffffffffffffffff1673ffffffffffffffffffffffffffffffffffffffff161461227a575f60075f9054906101000a900473ffffffffffffffffffffffffffffffffffffffff1673ffffffffffffffffffffffffffffffffffffffff1663d9dd24c56040518163ffffffff1660e01b81526004015f60405180830381865afa158015612002573d5f5f3e3d5ffd5b505050506040513d5f823e3d601f19601f8201168201806040525081019061202a91906140ca565b90505f5f90505b81518110156122775760075f9054906101000a900473ffffffffffffffffffffffffffffffffffffffff1673ffffffffffffffffffffffffffffffffffffffff166334a8998783838151811061208a57612089613dd0565b5b60200260200101518787815181106120a5576120a4613dd0565b5b60200260200101516040518363ffffffff1660e01b81526004016120ca92919061426b565b602060405180830381865afa1580156120e5573d5f5f3e3d5ffd5b505050506040513d601f19601f8201168201806040525081019061210991906141d8565b1561226a575f5f8773ffffffffffffffffffffffffffffffffffffffff1687878151811061213a57612139613dd0565b5b602002602001015185858151811061215557612154613dd0565b5b602002602001015160405160240161216e929190614521565b6040516020818303038152906040527f2c30941f000000000000000000000000000000000000000000000000000000007bffffffffffffffffffffffffffffffffffffffffffffffffffffffff19166020820180517bffffffffffffffffffffffffffffffffffffffffffffffffffffffff83818316178352505050506040516121f8919061458c565b5f60405180830381855afa9150503d805f8114612230576040519150601f19603f3d011682016040523d82523d5f602084013e612235565b606091505b509150915081801561225757508080602001905181019061225691906141d8565b5b1561226757600194505050612277565b50505b8080600101915050612031565b50505b8061228b575f9450505050506122a1565b508080600101915050611f37565b506001925050505b919050565b60605f60098054905067ffffffffffffffff8111156122c8576122c7613f7a565b5b6040519080825280602002602001820160405280156122f65781602001602082028036833780820191505090505b5090505f5f90505b6009805490508110156123a1576009818154811061231f5761231e613dd0565b5b905f5260205f20015f9054906101000a900473ffffffffffffffffffffffffffffffffffffffff1682828151811061235a57612359613dd0565b5b602002602001019073ffffffffffffffffffffffffffffffffffffffff16908173ffffffffffffffffffffffffffffffffffffffff168152505080806001019150506122fe565b508091505090565b5f5f1b6123b581612a54565b5f73ffffffffffffffffffffffffffffffffffffffff168273ffffffffffffffffffffffffffffffffffffffff1603612423576040517f08c379a000000000000000000000000000000000000000000000000000000000815260040161241a906142dc565b60405180910390fd5b81600660016101000a81548173ffffffffffffffffffffffffffffffffffffffff021916908373ffffffffffffffffffffffffffffffffffffffff1602179055508173ffffffffffffffffffffffffffffffffffffffff167f8aa6172b9dcbe4f05892121059bc535d4743d706ba3ac6cbabf4a40de229e38860405160405180910390a25050565b6124b482611004565b6124bd81612a54565b6124c78383612d57565b50505050565b5f60015f8473ffffffffffffffffffffffffffffffffffffffff1673ffffffffffffffffffffffffffffffffffffffff1681526020019081526020015f205f8373ffffffffffffffffffffffffffffffffffffffff1673ffffffffffffffffffffffffffffffffffffffff1681526020019081526020015f2054905092915050565b5f6125586114b7565b15612565575f905061271e565b600d5f8573ffffffffffffffffffffffffffffffffffffffff1673ffffffffffffffffffffffffffffffffffffffff1681526020019081526020015f205f9054906101000a900460ff16806126005750600d5f8473ffffffffffffffffffffffffffffffffffffffff1673ffffffffffffffffffffffffffffffffffffffff1681526020019081526020015f205f9054906101000a900460ff165b1561260d575f905061271e565b61261684611c63565b1580612628575061262683611c63565b155b15612635575f905061271e565b5f5f90505b600980549050811015612718576009818154811061265b5761265a613dd0565b5b905f5260205f20015f9054906101000a900473ffffffffffffffffffffffffffffffffffffffff1673ffffffffffffffffffffffffffffffffffffffff1663e46638e68686866040518463ffffffff1660e01b81526004016126bf93929190614179565b602060405180830381865afa1580156126da573d5f5f3e3d5ffd5b505050506040513d601f19601f820116820180604052508101906126fe91906141d8565b61270b575f91505061271e565b808060010191505061263a565b50600190505b9392505050565b5f600d5f8373ffffffffffffffffffffffffffffffffffffffff1673ffffffffffffffffffffffffffffffffffffffff1681526020019081526020015f205f9054906101000a900460ff169050919050565b5f5f1b61278381612a54565b5f73ffffffffffffffffffffffffffffffffffffffff168273ffffffffffffffffffffffffffffffffffffffff16036127f1576040517f08c379a00000000000000000000000000000000000000000000000000000000081526004016127e8906142dc565b60405180910390fd5b8160075f6101000a81548173ffffffffffffffffffffffffffffffffffffffff021916908373ffffffffffffffffffffffffffffffffffffffff1602179055508173ffffffffffffffffffffffffffffffffffffffff167f1b98cb79e6f73020175fe87333f1b91ad6a881519c0afe30340c2599b2b4bde060405160405180910390a25050565b7fcab5a0bfe0b79d2c4b1c2e02599fa044d115b7511f9659307cb42769509677096128a281612a54565b6001600d5f8473ffffffffffffffffffffffffffffffffffffffff1673ffffffffffffffffffffffffffffffffffffffff1681526020019081526020015f205f6101000a81548160ff0219169083151502179055508173ffffffffffffffffffffffffffffffffffffffff167f8a5c4736a33c7b7f29a2c34ea9ff9608afc5718d56f6fd6dcbd2d3711a1a491360405160405180910390a25050565b5f5f73ffffffffffffffffffffffffffffffffffffffff168373ffffffffffffffffffffffffffffffffffffffff16036129ad576040517f08c379a00000000000000000000000000000000000000000000000000000000081526004016129a490613d4a565b60405180910390fd5b8273ffffffffffffffffffffffffffffffffffffffff1663e5faf00a30846040518363ffffffff1660e01b81526004016129e8929190613e9a565b602060405180830381865afa158015612a03573d5f5f3e3d5ffd5b505050506040513d601f19601f82011682018060405250810190612a2791906141d8565b905092915050565b60075f9054906101000a900473ffffffffffffffffffffffffffffffffffffffff1681565b612a6581612a60612ad1565b61322d565b50565b5f7f01ffc9a7000000000000000000000000000000000000000000000000000000007bffffffffffffffffffffffffffffffffffffffffffffffffffffffff1916827bffffffffffffffffffffffffffffffffffffffffffffffffffffffff1916149050919050565b5f33905090565b612ae5838383600161327e565b505050565b5f612af584846124cd565b90507fffffffffffffffffffffffffffffffffffffffffffffffffffffffffffffffff811015612b775781811015612b68578281836040517ffb8f41b2000000000000000000000000000000000000000000000000000000008152600401612b5f939291906145a2565b60405180910390fd5b612b7684848484035f61327e565b5b50505050565b5f73ffffffffffffffffffffffffffffffffffffffff168373ffffffffffffffffffffffffffffffffffffffff1603612bed575f6040517f96c6fd1e000000000000000000000000000000000000000000000000000000008152600401612be49190613f1e565b60405180910390fd5b5f73ffffffffffffffffffffffffffffffffffffffff168273ffffffffffffffffffffffffffffffffffffffff1603612c5d575f6040517fec442f05000000000000000000000000000000000000000000000000000000008152600401612c549190613f1e565b60405180910390fd5b612c68838383613002565b505050565b5f612c7883836118d0565b612d4d57600160055f8581526020019081526020015f205f015f8473ffffffffffffffffffffffffffffffffffffffff1673ffffffffffffffffffffffffffffffffffffffff1681526020019081526020015f205f6101000a81548160ff021916908315150217905550612cea612ad1565b73ffffffffffffffffffffffffffffffffffffffff168273ffffffffffffffffffffffffffffffffffffffff16847f2f8788117e7eff1d82e926ec794901d17c78024a50270940304540a733656f0d60405160405180910390a460019050612d51565b5f90505b92915050565b5f612d6283836118d0565b15612e37575f60055f8581526020019081526020015f205f015f8473ffffffffffffffffffffffffffffffffffffffff1673ffffffffffffffffffffffffffffffffffffffff1681526020019081526020015f205f6101000a81548160ff021916908315150217905550612dd4612ad1565b73ffffffffffffffffffffffffffffffffffffffff168273ffffffffffffffffffffffffffffffffffffffff16847ff6391f5c32d9c69d2a47ea670b442974b53935d1edc7fd64eb21e047a839171b60405160405180910390a460019050612e3b565b5f90505b92915050565b612e4961344d565b5f60065f6101000a81548160ff0219169083151502179055507f5db9ee0a495bf2e6ff9c91a7834c1ba4fdd244a5e8aa4e537bd38aeae4b073aa612e8b612ad1565b604051612e989190613f1e565b60405180910390a1565b5f73ffffffffffffffffffffffffffffffffffffffff168273ffffffffffffffffffffffffffffffffffffffff1603612f12575f6040517fec442f05000000000000000000000000000000000000000000000000000000008152600401612f099190613f1e565b60405180910390fd5b612f1d5f8383613002565b5050565b612f2961348d565b600160065f6101000a81548160ff0219169083151502179055507f62e78cea01bee320cd4e420270b5ea74000d11b0c9f74754ebdbfc544b05a258612f6c612ad1565b604051612f799190613f1e565b60405180910390a1565b5f73ffffffffffffffffffffffffffffffffffffffff168273ffffffffffffffffffffffffffffffffffffffff1603612ff3575f6040517f96c6fd1e000000000000000000000000000000000000000000000000000000008152600401612fea9190613f1e565b60405180910390fd5b612ffe825f83613002565b5050565b5f73ffffffffffffffffffffffffffffffffffffffff168373ffffffffffffffffffffffffffffffffffffffff161415801561306a57505f73ffffffffffffffffffffffffffffffffffffffff168273ffffffffffffffffffffffffffffffffffffffff1614155b80156130825750600e5f9054906101000a900460ff16155b156130d25761309283838361254f565b6130d1576040517f08c379a00000000000000000000000000000000000000000000000000000000081526004016130c890614621565b60405180910390fd5b5b6130dd8383836134ce565b5f73ffffffffffffffffffffffffffffffffffffffff168373ffffffffffffffffffffffffffffffffffffffff161415801561314557505f73ffffffffffffffffffffffffffffffffffffffff168273ffffffffffffffffffffffffffffffffffffffff1614155b801561315d5750600e5f9054906101000a900460ff16155b15613228575f5f90505b600980549050811015613226576009818154811061318857613187613dd0565b5b905f5260205f20015f9054906101000a900473ffffffffffffffffffffffffffffffffffffffff1673ffffffffffffffffffffffffffffffffffffffff16638baf29b48585856040518463ffffffff1660e01b81526004016131ec93929190614179565b5f604051808303815f87803b158015613203575f5ffd5b505af1158015613215573d5f5f3e3d5ffd5b505050508080600101915050613167565b505b505050565b61323782826118d0565b61327a5780826040517fe2517d3f00000000000000000000000000000000000000000000000000000000815260040161327192919061463f565b60405180910390fd5b5050565b5f73ffffffffffffffffffffffffffffffffffffffff168473ffffffffffffffffffffffffffffffffffffffff16036132ee575f6040517fe602df050000000000000000000000000000000000000000000000000000000081526004016132e59190613f1e565b60405180910390fd5b5f73ffffffffffffffffffffffffffffffffffffffff168373ffffffffffffffffffffffffffffffffffffffff160361335e575f6040517f94280d620000000000000000000000000000000000000000000000000000000081526004016133559190613f1e565b60405180910390fd5b8160015f8673ffffffffffffffffffffffffffffffffffffffff1673ffffffffffffffffffffffffffffffffffffffff1681526020019081526020015f205f8573ffffffffffffffffffffffffffffffffffffffff1673ffffffffffffffffffffffffffffffffffffffff1681526020019081526020015f20819055508015613447578273ffffffffffffffffffffffffffffffffffffffff168473ffffffffffffffffffffffffffffffffffffffff167f8c5be1e5ebec7d5bd14f71427d1e84f3dd0314c0f7b2291e5b200ac8c7c3b9258460405161343e9190613a23565b60405180910390a35b50505050565b6134556114b7565b61348b576040517f8dfc202b00000000000000000000000000000000000000000000000000000000815260040160405180910390fd5b565b6134956114b7565b156134cc576040517fd93c066500000000000000000000000000000000000000000000000000000000815260040160405180910390fd5b565b5f73ffffffffffffffffffffffffffffffffffffffff168373ffffffffffffffffffffffffffffffffffffffff160361351e578060025f8282546135129190614666565b925050819055506135ec565b5f5f5f8573ffffffffffffffffffffffffffffffffffffffff1673ffffffffffffffffffffffffffffffffffffffff1681526020019081526020015f20549050818110156135a7578381836040517fe450d38c00000000000000000000000000000000000000000000000000000000815260040161359e939291906145a2565b60405180910390fd5b8181035f5f8673ffffffffffffffffffffffffffffffffffffffff1673ffffffffffffffffffffffffffffffffffffffff1681526020019081526020015f2081905550505b5f73ffffffffffffffffffffffffffffffffffffffff168273ffffffffffffffffffffffffffffffffffffffff1603613633578060025f828254039250508190555061367d565b805f5f8473ffffffffffffffffffffffffffffffffffffffff1673ffffffffffffffffffffffffffffffffffffffff1681526020019081526020015f205f82825401925050819055505b8173ffffffffffffffffffffffffffffffffffffffff168373ffffffffffffffffffffffffffffffffffffffff167fddf252ad1be2c89b69c2b068fc378daa952ba7f163c4a11628f55a4df523b3ef836040516136da9190613a23565b60405180910390a3505050565b5f604051905090565b5f5ffd5b5f5ffd5b5f73ffffffffffffffffffffffffffffffffffffffff82169050919050565b5f613721826136f8565b9050919050565b61373181613717565b811461373b575f5ffd5b50565b5f8135905061374c81613728565b92915050565b5f5f60408385031215613768576137676136f0565b5b5f6137758582860161373e565b92505060206137868582860161373e565b9150509250929050565b5f7fffffffff0000000000000000000000000000000000000000000000000000000082169050919050565b6137c481613790565b81146137ce575f5ffd5b50565b5f813590506137df816137bb565b92915050565b5f602082840312156137fa576137f96136f0565b5b5f613807848285016137d1565b91505092915050565b5f8115159050919050565b61382481613810565b82525050565b5f60208201905061383d5f83018461381b565b92915050565b5f819050919050565b61385581613843565b82525050565b5f60208201905061386e5f83018461384c565b92915050565b5f81519050919050565b5f82825260208201905092915050565b8281835e5f83830152505050565b5f601f19601f8301169050919050565b5f6138b682613874565b6138c0818561387e565b93506138d081856020860161388e565b6138d98161389c565b840191505092915050565b5f6020820190508181035f8301526138fc81846138ac565b905092915050565b5f819050919050565b5f61392761392261391d846136f8565b613904565b6136f8565b9050919050565b5f6139388261390d565b9050919050565b5f6139498261392e565b9050919050565b6139598161393f565b82525050565b5f6020820190506139725f830184613950565b92915050565b5f819050919050565b61398a81613978565b8114613994575f5ffd5b50565b5f813590506139a581613981565b92915050565b5f5f604083850312156139c1576139c06136f0565b5b5f6139ce8582860161373e565b92505060206139df85828601613997565b9150509250929050565b5f602082840312156139fe576139fd6136f0565b5b5f613a0b8482850161373e565b91505092915050565b613a1d81613978565b82525050565b5f602082019050613a365f830184613a14565b92915050565b5f613a468261392e565b9050919050565b613a5681613a3c565b82525050565b5f602082019050613a6f5f830184613a4d565b92915050565b5f60208284031215613a8a57613a896136f0565b5b5f613a9784828501613997565b91505092915050565b5f613aaa8261392e565b9050919050565b613aba81613aa0565b82525050565b5f602082019050613ad35f830184613ab1565b92915050565b5f81519050919050565b5f82825260208201905092915050565b5f819050602082019050919050565b613b0b81613717565b82525050565b5f613b1c8383613b02565b60208301905092915050565b5f602082019050919050565b5f613b3e82613ad9565b613b488185613ae3565b9350613b5383613af3565b805f5b83811015613b83578151613b6a8882613b11565b9750613b7583613b28565b925050600181019050613b56565b5085935050505092915050565b5f6020820190508181035f830152613ba88184613b34565b905092915050565b5f5f5f60608486031215613bc757613bc66136f0565b5b5f613bd48682870161373e565b9350506020613be58682870161373e565b9250506040613bf686828701613997565b9150509250925092565b613c0981613843565b8114613c13575f5ffd5b50565b5f81359050613c2481613c00565b92915050565b5f60208284031215613c3f57613c3e6136f0565b5b5f613c4c84828501613c16565b91505092915050565b5f5f60408385031215613c6b57613c6a6136f0565b5b5f613c7885828601613c16565b9250506020613c898582860161373e565b9150509250929050565b5f60ff82169050919050565b613ca881613c93565b82525050565b5f602082019050613cc15f830184613c9f565b92915050565b5f613cd18261392e565b9050919050565b613ce181613cc7565b82525050565b5f602082019050613cfa5f830184613cd8565b92915050565b7f496e76616c69642061676772656761746f7220616464726573730000000000005f82015250565b5f613d34601a8361387e565b9150613d3f82613d00565b602082019050919050565b5f6020820190508181035f830152613d6181613d28565b9050919050565b7f496e76616c6964206d6f64756c652061646472657373000000000000000000005f82015250565b5f613d9c60168361387e565b9150613da782613d68565b602082019050919050565b5f6020820190508181035f830152613dc981613d90565b9050919050565b7f4e487b71000000000000000000000000000000000000000000000000000000005f52603260045260245ffd5b7f41676772656761746f72206e6f7420616464656420617320636f6d706c69616e5f8201527f6365206d6f64756c650000000000000000000000000000000000000000000000602082015250565b5f613e5760298361387e565b9150613e6282613dfd565b604082019050919050565b5f6020820190508181035f830152613e8481613e4b565b9050919050565b613e9481613717565b82525050565b5f604082019050613ead5f830185613e8b565b613eba6020830184613e8b565b9392505050565b7f4e487b71000000000000000000000000000000000000000000000000000000005f52602260045260245ffd5b5f6002820490506001821680613f0557607f821691505b602082108103613f1857613f17613ec1565b5b50919050565b5f602082019050613f315f830184613e8b565b92915050565b5f81519050613f4581613981565b92915050565b5f60208284031215613f6057613f5f6136f0565b5b5f613f6d84828501613f37565b91505092915050565b5f5ffd5b7f4e487b71000000000000000000000000000000000000000000000000000000005f52604160045260245ffd5b613fb08261389c565b810181811067ffffffffffffffff82111715613fcf57613fce613f7a565b5b80604052505050565b5f613fe16136e7565b9050613fed8282613fa7565b919050565b5f67ffffffffffffffff82111561400c5761400b613f7a565b5b602082029050602081019050919050565b5f5ffd5b5f8151905061402f81613728565b92915050565b5f61404761404284613ff2565b613fd8565b9050808382526020820190506020840283018581111561406a5761406961401d565b5b835b81811015614093578061407f8882614021565b84526020840193505060208101905061406c565b5050509392505050565b5f82601f8301126140b1576140b0613f76565b5b81516140c1848260208601614035565b91505092915050565b5f602082840312156140df576140de6136f0565b5b5f82015167ffffffffffffffff8111156140fc576140fb6136f4565b5b6141088482850161409d565b91505092915050565b7f526563697069656e74206e6f74207665726966696564000000000000000000005f82015250565b5f61414560168361387e565b915061415082614111565b602082019050919050565b5f6020820190508181035f83015261417281614139565b9050919050565b5f60608201905061418c5f830186613e8b565b6141996020830185613e8b565b6141a66040830184613a14565b949350505050565b6141b781613810565b81146141c1575f5ffd5b50565b5f815190506141d2816141ae565b92915050565b5f602082840312156141ed576141ec6136f0565b5b5f6141fa848285016141c4565b91505092915050565b7f4d696e74206e6f7420636f6d706c69616e7400000000000000000000000000005f82015250565b5f61423760128361387e565b915061424282614203565b602082019050919050565b5f6020820190508181035f8301526142648161422b565b9050919050565b5f60408201905061427e5f830185613e8b565b61428b6020830184613a14565b9392505050565b7f496e76616c6964207265676973747279206164647265737300000000000000005f82015250565b5f6142c660188361387e565b91506142d182614292565b602082019050919050565b5f6020820190508181035f8301526142f3816142ba565b9050919050565b7f496e76616c696420696e646578000000000000000000000000000000000000005f82015250565b5f61432e600d8361387e565b9150614339826142fa565b602082019050919050565b5f6020820190508181035f83015261435b81614322565b9050919050565b7f4e487b71000000000000000000000000000000000000000000000000000000005f52601160045260245ffd5b5f61439982613978565b91506143a483613978565b92508282039050818111156143bc576143bb614362565b5b92915050565b7f4e487b71000000000000000000000000000000000000000000000000000000005f52603160045260245ffd5b5f60208284031215614404576144036136f0565b5b5f61441184828501614021565b91505092915050565b5f67ffffffffffffffff82111561443457614433613f7a565b5b602082029050602081019050919050565b5f6144576144528461441a565b613fd8565b9050808382526020820190506020840283018581111561447a5761447961401d565b5b835b818110156144a3578061448f8882613f37565b84526020840193505060208101905061447c565b5050509392505050565b5f82601f8301126144c1576144c0613f76565b5b81516144d1848260208601614445565b91505092915050565b5f602082840312156144ef576144ee6136f0565b5b5f82015167ffffffffffffffff81111561450c5761450b6136f4565b5b614518848285016144ad565b91505092915050565b5f6040820190506145345f830185613a14565b6145416020830184613e8b565b9392505050565b5f81519050919050565b5f81905092915050565b5f61456682614548565b6145708185614552565b935061458081856020860161388e565b80840191505092915050565b5f614597828461455c565b915081905092915050565b5f6060820190506145b55f830186613e8b565b6145c26020830185613a14565b6145cf6040830184613a14565b949350505050565b7f5472616e73666572206e6f7420636f6d706c69616e74000000000000000000005f82015250565b5f61460b60168361387e565b9150614616826145d7565b602082019050919050565b5f6020820190508181035f830152614638816145ff565b9050919050565b5f6040820190506146525f830185613e8b565b61465f602083018461384c565b9392505050565b5f61467082613978565b915061467b83613978565b925082820190508082111561469357614692614362565b5b9291505056fea2646970667358221220ec4eda69a74b012f024c2045494bd9f2533a6f738742aa9a54aace175c83959364736f6c634300081e0033","linkReferences":{}},"methodIdentifiers":{"AGENT_ROLE()":"22459e18","COMPLIANCE_ROLE()":"062d3bd7","DEFAULT_ADMIN_ROLE()":"a217fddf","addComplianceModule(address)":"1b72a105","addModuleThroughAggregator(address,address)":"01f4abf4","allowance(address,address)":"dd62ed3e","approve(address,uint256)":"095ea7b3","balanceOf(address)":"70a08231","burn(address,uint256)":"9dc29fac","canTransfer(address,address,uint256)":"e46638e6","claimTopicsRegistry()":"08761324","complianceModules(uint256)":"1a63fcd8","decimals()":"313ce567","forcedTransfer(address,address,uint256)":"9fc1d0e7","freezeAccount(address)":"f26c159f","getAggregatorModuleCount(address)":"0baba066","getAggregatorModules(address)":"217a1059","getComplianceModules()":"c8be2d1c","getRoleAdmin(bytes32)":"248a9ca3","grantRole(bytes32,address)":"2f2ff15d","hasRole(bytes32,address)":"91d14854","identityRegistry()":"134e18f4","isFrozen(address)":"e5839836","isModuleActiveInAggregator(address,address)":"f2d59803","isVerified(address)":"b9209e33","mint(address,uint256)":"40c10f19","name()":"06fdde03","pause()":"8456cb59","paused()":"5c975abb","removeComplianceModule(uint256)":"867f88ce","removeModuleThroughAggregator(address,address)":"25a87867","renounceRole(bytes32,address)":"36568abe","revokeRole(bytes32,address)":"d547741f","setClaimTopicsRegistry(address)":"670af6a9","setIdentityRegistry(address)":"cbf3f861","setTrustedIssuersRegistry(address)":"e744d789","supportsInterface(bytes4)":"01ffc9a7","symbol()":"95d89b41","totalSupply()":"18160ddd","transfer(address,uint256)":"a9059cbb","transferFrom(address,address,uint256)":"23b872dd","trustedIssuersRegistry()":"fb703a7b","unfreezeAccount(address)":"788649ea","unpause()":"3f4ba83a"},"id":48}