{"abi":[{"type":"constructor","inputs":[{"name":"name_","type":"string","internalType":"string"},{"name":"symbol_","type":"string","internalType":"string"},{"name":"decimals_","type":"uint8","internalType":"uint8"},{"name":"admin","type":"address","internalType":"address"}],"stateMutability":"nonpayable"},{"type":"function","name":"AGENT_ROLE","inputs":[],"outputs":[{"name":"","type":"bytes32","internalType":"bytes32"}],"stateMutability":"view"},{"type":"function","name":"COMPLIANCE_ROLE","inputs":[],"outputs":[{"name":"","type":"bytes32","internalType":"bytes32"}],"stateMutability":"view"},{"type":"function","name":"DEFAULT_ADMIN_ROLE","inputs":[],"outputs":[{"name":"","type":"bytes32","internalType":"bytes32"}],"stateMutability":"view"},{"type":"function","name":"addComplianceModule","inputs":[{"name":"module","type":"address","internalType":"address"}],"outputs":[],"stateMutability":"nonpayable"},{"type":"function","name":"allowance","inputs":[{"name":"owner","type":"address","internalType":"address"},{"name":"spender","type":"address","internalType":"address"}],"outputs":[{"name":"","type":"uint256","internalType":"uint256"}],"stateMutability":"view"},{"type":"function","name":"approve","inputs":[{"name":"spender","type":"address","internalType":"address"},{"name":"value","type":"uint256","internalType":"uint256"}],"outputs":[{"name":"","type":"bool","internalType":"bool"}],"stateMutability":"nonpayable"},{"type":"function","name":"balanceOf","inputs":[{"name":"account","type":"address","internalType":"address"}],"outputs":[{"name":"","type":"uint256","internalType":"uint256"}],"stateMutability":"view"},{"type":"function","name":"burn","inputs":[{"name":"from","type":"address","internalType":"address"},{"name":"amount","type":"uint256","internalType":"uint256"}],"outputs":[],"stateMutability":"nonpayable"},{"type":"function","name":"canTransfer","inputs":[{"name":"from","type":"address","internalType":"address"},{"name":"to","type":"address","internalType":"address"},{"name":"amount","type":"uint256","internalType":"uint256"}],"outputs":[{"name":"","type":"bool","internalType":"bool"}],"stateMutability":"view"},{"type":"function","name":"claimTopicsRegistry","inputs":[],"outputs":[{"name":"","type":"address","internalType":"contract ClaimTopicsRegistry"}],"stateMutability":"view"},{"type":"function","name":"complianceModules","inputs":[{"name":"","type":"uint256","internalType":"uint256"}],"outputs":[{"name":"","type":"address","internalType":"contract ICompliance"}],"stateMutability":"view"},{"type":"function","name":"decimals","inputs":[],"outputs":[{"name":"","type":"uint8","internalType":"uint8"}],"stateMutability":"view"},{"type":"function","name":"forcedTransfer","inputs":[{"name":"from","type":"address","internalType":"address"},{"name":"to","type":"address","internalType":"address"},{"name":"amount","type":"uint256","internalType":"uint256"}],"outputs":[],"stateMutability":"nonpayable"},{"type":"function","name":"freezeAccount","inputs":[{"name":"account","type":"address","internalType":"address"}],"outputs":[],"stateMutability":"nonpayable"},{"type":"function","name":"getComplianceModules","inputs":[],"outputs":[{"name":"","type":"address[]","internalType":"address[]"}],"stateMutability":"view"},{"type":"function","name":"getRoleAdmin","inputs":[{"name":"role","type":"bytes32","internalType":"bytes32"}],"outputs":[{"name":"","type":"bytes32","internalType":"bytes32"}],"stateMutability":"view"},{"type":"function","name":"grantRole","inputs":[{"name":"role","type":"bytes32","internalType":"bytes32"},{"name":"account","type":"address","internalType":"address"}],"outputs":[],"stateMutability":"nonpayable"},{"type":"function","name":"hasRole","inputs":[{"name":"role","type":"bytes32","internalType":"bytes32"},{"name":"account","type":"address","internalType":"address"}],"outputs":[{"name":"","type":"bool","internalType":"bool"}],"stateMutability":"view"},{"type":"function","name":"identityRegistry","inputs":[],"outputs":[{"name":"","type":"address","internalType":"contract IdentityRegistry"}],"stateMutability":"view"},{"type":"function","name":"isFrozen","inputs":[{"name":"account","type":"address","internalType":"address"}],"outputs":[{"name":"","type":"bool","internalType":"bool"}],"stateMutability":"view"},{"type":"function","name":"isVerified","inputs":[{"name":"account","type":"address","internalType":"address"}],"outputs":[{"name":"","type":"bool","internalType":"bool"}],"stateMutability":"view"},{"type":"function","name":"mint","inputs":[{"name":"to","type":"address","internalType":"address"},{"name":"amount","type":"uint256","internalType":"uint256"}],"outputs":[],"stateMutability":"nonpayable"},{"type":"function","name":"name","inputs":[],"outputs":[{"name":"","type":"string","internalType":"string"}],"stateMutability":"view"},{"type":"function","name":"pause","inputs":[],"outputs":[],"stateMutability":"nonpayable"},{"type":"function","name":"paused","inputs":[],"outputs":[{"name":"","type":"bool","internalType":"bool"}],"stateMutability":"view"},{"type":"function","name":"removeComplianceModule","inputs":[{"name":"index","type":"uint256","internalType":"uint256"}],"outputs":[],"stateMutability":"nonpayable"},{"type":"function","name":"renounceRole","inputs":[{"name":"role","type":"bytes32","internalType":"bytes32"},{"name":"callerConfirmation","type":"address","internalType":"address"}],"outputs":[],"stateMutability":"nonpayable"},{"type":"function","name":"revokeRole","inputs":[{"name":"role","type":"bytes32","internalType":"bytes32"},{"name":"account","type":"address","internalType":"address"}],"outputs":[],"stateMutability":"nonpayable"},{"type":"function","name":"setClaimTopicsRegistry","inputs":[{"name":"registry","type":"address","internalType":"address"}],"outputs":[],"stateMutability":"nonpayable"},{"type":"function","name":"setIdentityRegistry","inputs":[{"name":"registry","type":"address","internalType":"address"}],"outputs":[],"stateMutability":"nonpayable"},{"type":"function","name":"setTrustedIssuersRegistry","inputs":[{"name":"registry","type":"address","internalType":"address"}],"outputs":[],"stateMutability":"nonpayable"},{"type":"function","name":"supportsInterface","inputs":[{"name":"interfaceId","type":"bytes4","internalType":"bytes4"}],"outputs":[{"name":"","type":"bool","internalType":"bool"}],"stateMutability":"view"},{"type":"function","name":"symbol","inputs":[],"outputs":[{"name":"","type":"string","internalType":"string"}],"stateMutability":"view"},{"type":"function","name":"totalSupply","inputs":[],"outputs":[{"name":"","type":"uint256","internalType":"uint256"}],"stateMutability":"view"},{"type":"function","name":"transfer","inputs":[{"name":"to","type":"address","internalType":"address"},{"name":"value","type":"uint256","internalType":"uint256"}],"outputs":[{"name":"","type":"bool","internalType":"bool"}],"stateMutability":"nonpayable"},{"type":"function","name":"transferFrom","inputs":[{"name":"from","type":"address","internalType":"address"},{"name":"to","type":"address","internalType":"address"},{"name":"value","type":"uint256","internalType":"uint256"}],"outputs":[{"name":"","type":"bool","internalType":"bool"}],"stateMutability":"nonpayable"},{"type":"function","name":"trustedIssuersRegistry","inputs":[],"outputs":[{"name":"","type":"address","internalType":"contract TrustedIssuersRegistry"}],"stateMutability":"view"},{"type":"function","name":"unfreezeAccount","inputs":[{"name":"account","type":"address","internalType":"address"}],"outputs":[],"stateMutability":"nonpayable"},{"type":"function","name":"unpause","inputs":[],"outputs":[],"stateMutability":"nonpayable"},{"type":"event","name":"Approval","inputs":[{"name":"owner","type":"address","indexed":true,"internalType":"address"},{"name":"spender","type":"address","indexed":true,"internalType":"address"},{"name":"value","type":"uint256","indexed":false,"internalType":"uint256"}],"anonymous":false},{"type":"event","name":"ClaimTopicsRegistrySet","inputs":[{"name":"registry","type":"address","indexed":true,"internalType":"address"}],"anonymous":false},{"type":"event","name":"ComplianceModuleAdded","inputs":[{"name":"module","type":"address","indexed":true,"internalType":"address"}],"anonymous":false},{"type":"event","name":"ComplianceModuleRemoved","inputs":[{"name":"module","type":"address","indexed":true,"internalType":"address"}],"anonymous":false},{"type":"event","name":"Frozen","inputs":[{"name":"account","type":"address","indexed":true,"internalType":"address"}],"anonymous":false},{"type":"event","name":"IdentityRegistrySet","inputs":[{"name":"registry","type":"address","indexed":true,"internalType":"address"}],"anonymous":false},{"type":"event","name":"Paused","inputs":[{"name":"account","type":"address","indexed":false,"internalType":"address"}],"anonymous":false},{"type":"event","name":"RoleAdminChanged","inputs":[{"name":"role","type":"bytes32","indexed":true,"internalType":"bytes32"},{"name":"previousAdminRole","type":"bytes32","indexed":true,"internalType":"bytes32"},{"name":"newAdminRole","type":"bytes32","indexed":true,"internalType":"bytes32"}],"anonymous":false},{"type":"event","name":"RoleGranted","inputs":[{"name":"role","type":"bytes32","indexed":true,"internalType":"bytes32"},{"name":"account","type":"address","indexed":true,"internalType":"address"},{"name":"sender","type":"address","indexed":true,"internalType":"address"}],"anonymous":false},{"type":"event","name":"RoleRevoked","inputs":[{"name":"role","type":"bytes32","indexed":true,"internalType":"bytes32"},{"name":"account","type":"address","indexed":true,"internalType":"address"},{"name":"sender","type":"address","indexed":true,"internalType":"address"}],"anonymous":false},{"type":"event","name":"Transfer","inputs":[{"name":"from","type":"address","indexed":true,"internalType":"address"},{"name":"to","type":"address","indexed":true,"internalType":"address"},{"name":"value","type":"uint256","indexed":false,"internalType":"uint256"}],"anonymous":false},{"type":"event","name":"TrustedIssuersRegistrySet","inputs":[{"name":"registry","type":"address","indexed":true,"internalType":"address"}],"anonymous":false},{"type":"event","name":"Unfrozen","inputs":[{"name":"account","type":"address","indexed":true,"internalType":"address"}],"anonymous":false},{"type":"event","name":"Unpaused","inputs":[{"name":"account","type":"address","indexed":false,"internalType":"address"}],"anonymous":false},{"type":"error","name":"AccessControlBadConfirmation","inputs":[]},{"type":"error","name":"AccessControlUnauthorizedAccount","inputs":[{"name":"account","type":"address","internalType":"address"},{"name":"neededRole","type":"bytes32","internalType":"bytes32"}]},{"type":"error","name":"ERC20InsufficientAllowance","inputs":[{"name":"spender","type":"address","internalType":"address"},{"name":"allowance","type":"uint256","internalType":"uint256"},{"name":"needed","type":"uint256","internalType":"uint256"}]},{"type":"error","name":"ERC20InsufficientBalance","inputs":[{"name":"sender","type":"address","internalType":"address"},{"name":"balance","type":"uint256","internalType":"uint256"},{"name":"needed","type":"uint256","internalType":"uint256"}]},{"type":"error","name":"ERC20InvalidApprover","inputs":[{"name":"approver","type":"address","internalType":"address"}]},{"type":"error","name":"ERC20InvalidReceiver","inputs":[{"name":"receiver","type":"address","internalType":"address"}]},{"type":"error","name":"ERC20InvalidSender","inputs":[{"name":"sender","type":"address","internalType":"address"}]},{"type":"error","name":"ERC20InvalidSpender","inputs":[{"name":"spender","type":"address","internalType":"address"}]},{"type":"error","name":"EnforcedPause","inputs":[]},{"type":"error","name":"ExpectedPause","inputs":[]}],"bytecode":{"object":"0x608060405234801561000f575f5ffd5b506040516145c83803806145c88339818101604052810190610031919061044b565b8383816003908161004291906106f7565b50806004908161005291906106f7565b50505083600a908161006491906106f7565b5082600b908161007491906106f7565b5081600c5f6101000a81548160ff021916908360ff1602179055506100a15f5f1b8261010d60201b60201c565b506100d27fcab5a0bfe0b79d2c4b1c2e02599fa044d115b7511f9659307cb42769509677098261010d60201b60201c565b506101037f442a94f1a1fac79af32856af2a64f63648cfa2ef3b98610a5bb7cbec4cee69858261010d60201b60201c565b50505050506107c6565b5f61011e838361020360201b60201c565b6101f957600160055f8581526020019081526020015f205f015f8473ffffffffffffffffffffffffffffffffffffffff1673ffffffffffffffffffffffffffffffffffffffff1681526020019081526020015f205f6101000a81548160ff02191690831515021790555061019661026760201b60201c565b73ffffffffffffffffffffffffffffffffffffffff168273ffffffffffffffffffffffffffffffffffffffff16847f2f8788117e7eff1d82e926ec794901d17c78024a50270940304540a733656f0d60405160405180910390a4600190506101fd565b5f90505b92915050565b5f60055f8481526020019081526020015f205f015f8373ffffffffffffffffffffffffffffffffffffffff1673ffffffffffffffffffffffffffffffffffffffff1681526020019081526020015f205f9054906101000a900460ff16905092915050565b5f33905090565b5f604051905090565b5f5ffd5b5f5ffd5b5f5ffd5b5f5ffd5b5f601f19601f8301169050919050565b7f4e487b71000000000000000000000000000000000000000000000000000000005f52604160045260245ffd5b6102cd82610287565b810181811067ffffffffffffffff821117156102ec576102eb610297565b5b80604052505050565b5f6102fe61026e565b905061030a82826102c4565b919050565b5f67ffffffffffffffff82111561032957610328610297565b5b61033282610287565b9050602081019050919050565b8281835e5f83830152505050565b5f61035f61035a8461030f565b6102f5565b90508281526020810184848401111561037b5761037a610283565b5b61038684828561033f565b509392505050565b5f82601f8301126103a2576103a161027f565b5b81516103b284826020860161034d565b91505092915050565b5f60ff82169050919050565b6103d0816103bb565b81146103da575f5ffd5b50565b5f815190506103eb816103c7565b92915050565b5f73ffffffffffffffffffffffffffffffffffffffff82169050919050565b5f61041a826103f1565b9050919050565b61042a81610410565b8114610434575f5ffd5b50565b5f8151905061044581610421565b92915050565b5f5f5f5f6080858703121561046357610462610277565b5b5f85015167ffffffffffffffff8111156104805761047f61027b565b5b61048c8782880161038e565b945050602085015167ffffffffffffffff8111156104ad576104ac61027b565b5b6104b98782880161038e565b93505060406104ca878288016103dd565b92505060606104db87828801610437565b91505092959194509250565b5f81519050919050565b7f4e487b71000000000000000000000000000000000000000000000000000000005f52602260045260245ffd5b5f600282049050600182168061053557607f821691505b602082108103610548576105476104f1565b5b50919050565b5f819050815f5260205f209050919050565b5f6020601f8301049050919050565b5f82821b905092915050565b5f600883026105aa7fffffffffffffffffffffffffffffffffffffffffffffffffffffffffffffffff8261056f565b6105b4868361056f565b95508019841693508086168417925050509392505050565b5f819050919050565b5f819050919050565b5f6105f86105f36105ee846105cc565b6105d5565b6105cc565b9050919050565b5f819050919050565b610611836105de565b61062561061d826105ff565b84845461057b565b825550505050565b5f5f905090565b61063c61062d565b610647818484610608565b505050565b5b8181101561066a5761065f5f82610634565b60018101905061064d565b5050565b601f8211156106af576106808161054e565b61068984610560565b81016020851015610698578190505b6106ac6106a485610560565b83018261064c565b50505b505050565b5f82821c905092915050565b5f6106cf5f19846008026106b4565b1980831691505092915050565b5f6106e783836106c0565b9150826002028217905092915050565b610700826104e7565b67ffffffffffffffff81111561071957610718610297565b5b610723825461051e565b61072e82828561066e565b5f60209050601f83116001811461075f575f841561074d578287015190505b61075785826106dc565b8655506107be565b601f19841661076d8661054e565b5f5b828110156107945784890151825560018201915060208501945060208101905061076f565b868310156107b157848901516107ad601f8916826106c0565b8355505b6001600288020188555050505b505050505050565b613df5806107d35f395ff3fe608060405234801561000f575f5ffd5b506004361061023b575f3560e01c806370a0823111610139578063b9209e33116100b6578063e46638e61161007a578063e46638e6146106b1578063e5839836146106e1578063e744d78914610711578063f26c159f1461072d578063fb703a7b146107495761023b565b8063b9209e33146105fb578063c8be2d1c1461062b578063cbf3f86114610649578063d547741f14610665578063dd62ed3e146106815761023b565b806395d89b41116100fd57806395d89b41146105575780639dc29fac146105755780639fc1d0e714610591578063a217fddf146105ad578063a9059cbb146105cb5761023b565b806370a08231146104b5578063788649ea146104e55780638456cb5914610501578063867f88ce1461050b57806391d14854146105275761023b565b806322459e18116101c757806336568abe1161018b57806336568abe146104395780633f4ba83a1461045557806340c10f191461045f5780635c975abb1461047b578063670af6a9146104995761023b565b806322459e181461038157806323b872dd1461039f578063248a9ca3146103cf5780632f2ff15d146103ff578063313ce5671461041b5761023b565b8063095ea7b31161020e578063095ea7b3146102c9578063134e18f4146102f957806318160ddd146103175780631a63fcd8146103355780631b72a105146103655761023b565b806301ffc9a71461023f578063062d3bd71461026f57806306fdde031461028d57806308761324146102ab575b5f5ffd5b61025960048036038101906102549190612fbb565b610767565b6040516102669190613000565b60405180910390f35b6102776107e0565b6040516102849190613031565b60405180910390f35b610295610804565b6040516102a291906130ba565b60405180910390f35b6102b3610894565b6040516102c09190613154565b60405180910390f35b6102e360048036038101906102de91906131db565b6108b9565b6040516102f09190613000565b60405180910390f35b6103016108db565b60405161030e9190613239565b60405180910390f35b61031f610901565b60405161032c9190613261565b60405180910390f35b61034f600480360381019061034a919061327a565b61090a565b60405161035c91906132c5565b60405180910390f35b61037f600480360381019061037a91906132de565b610945565b005b610389610a84565b6040516103969190613031565b60405180910390f35b6103b960048036038101906103b49190613309565b610aa8565b6040516103c69190613000565b60405180910390f35b6103e960048036038101906103e49190613383565b610ad6565b6040516103f69190613031565b60405180910390f35b610419600480360381019061041491906133ae565b610af3565b005b610423610b15565b6040516104309190613407565b60405180910390f35b610453600480360381019061044e91906133ae565b610b2a565b005b61045d610ba5565b005b610479600480360381019061047491906131db565b610bbc565b005b610483610e16565b6040516104909190613000565b60405180910390f35b6104b360048036038101906104ae91906132de565b610e2b565b005b6104cf60048036038101906104ca91906132de565b610f2c565b6040516104dc9190613261565b60405180910390f35b6104ff60048036038101906104fa91906132de565b610f71565b005b610509611036565b005b6105256004803603810190610520919061327a565b61104d565b005b610541600480360381019061053c91906133ae565b61122f565b60405161054e9190613000565b60405180910390f35b61055f611293565b60405161056c91906130ba565b60405180910390f35b61058f600480360381019061058a91906131db565b611323565b005b6105ab60048036038101906105a69190613309565b61141f565b005b6105b561159a565b6040516105c29190613031565b60405180910390f35b6105e560048036038101906105e091906131db565b6115a0565b6040516105f29190613000565b60405180910390f35b610615600480360381019061061091906132de565b6115c2565b6040516106229190613000565b60405180910390f35b610633611c05565b60405161064091906134d7565b60405180910390f35b610663600480360381019061065e91906132de565b611d08565b005b61067f600480360381019061067a91906133ae565b611e0a565b005b61069b600480360381019061069691906134f7565b611e2c565b6040516106a89190613261565b60405180910390f35b6106cb60048036038101906106c69190613309565b611eae565b6040516106d89190613000565b60405180910390f35b6106fb60048036038101906106f691906132de565b612084565b6040516107089190613000565b60405180910390f35b61072b600480360381019061072691906132de565b6120d6565b005b610747600480360381019061074291906132de565b6121d7565b005b61075161229d565b60405161075e9190613555565b60405180910390f35b5f7f7965db0b000000000000000000000000000000000000000000000000000000007bffffffffffffffffffffffffffffffffffffffffffffffffffffffff1916827bffffffffffffffffffffffffffffffffffffffffffffffffffffffff191614806107d957506107d8826122c2565b5b9050919050565b7f442a94f1a1fac79af32856af2a64f63648cfa2ef3b98610a5bb7cbec4cee698581565b6060600380546108139061359b565b80601f016020809104026020016040519081016040528092919081815260200182805461083f9061359b565b801561088a5780601f106108615761010080835404028352916020019161088a565b820191905f5260205f20905b81548152906001019060200180831161086d57829003601f168201915b5050505050905090565b60085f9054906101000a900473ffffffffffffffffffffffffffffffffffffffff1681565b5f5f6108c361232b565b90506108d0818585612332565b600191505092915050565b600660019054906101000a900473ffffffffffffffffffffffffffffffffffffffff1681565b5f600254905090565b60098181548110610919575f80fd5b905f5260205f20015f915054906101000a900473ffffffffffffffffffffffffffffffffffffffff1681565b7f442a94f1a1fac79af32856af2a64f63648cfa2ef3b98610a5bb7cbec4cee698561096f81612344565b5f73ffffffffffffffffffffffffffffffffffffffff168273ffffffffffffffffffffffffffffffffffffffff16036109dd576040517f08c379a00000000000000000000000000000000000000000000000000000000081526004016109d490613615565b60405180910390fd5b600982908060018154018082558091505060019003905f5260205f20015f9091909190916101000a81548173ffffffffffffffffffffffffffffffffffffffff021916908373ffffffffffffffffffffffffffffffffffffffff1602179055508173ffffffffffffffffffffffffffffffffffffffff167fe1be16b136432bd24b5b1388a40ec7863174aff11cc151ab59749f87da9fdee160405160405180910390a25050565b7fcab5a0bfe0b79d2c4b1c2e02599fa044d115b7511f9659307cb427695096770981565b5f5f610ab261232b565b9050610abf858285612358565b610aca8585856123eb565b60019150509392505050565b5f60055f8381526020019081526020015f20600101549050919050565b610afc82610ad6565b610b0581612344565b610b0f83836124db565b50505050565b5f600c5f9054906101000a900460ff16905090565b610b3261232b565b73ffffffffffffffffffffffffffffffffffffffff168173ffffffffffffffffffffffffffffffffffffffff1614610b96576040517f6697b23200000000000000000000000000000000000000000000000000000000815260040160405180910390fd5b610ba082826125c5565b505050565b5f5f1b610bb181612344565b610bb96126af565b50565b7fcab5a0bfe0b79d2c4b1c2e02599fa044d115b7511f9659307cb4276950967709610be681612344565b610bef836115c2565b610c2e576040517f08c379a0000000000000000000000000000000000000000000000000000000008152600401610c259061367d565b60405180910390fd5b5f5f90505b600980549050811015610d435760098181548110610c5457610c5361369b565b5b905f5260205f20015f9054906101000a900473ffffffffffffffffffffffffffffffffffffffff1673ffffffffffffffffffffffffffffffffffffffff1663e46638e65f86866040518463ffffffff1660e01b8152600401610cb8939291906136d7565b602060405180830381865afa158015610cd3573d5f5f3e3d5ffd5b505050506040513d601f19601f82011682018060405250810190610cf79190613736565b610d36576040517f08c379a0000000000000000000000000000000000000000000000000000000008152600401610d2d906137ab565b60405180910390fd5b8080600101915050610c33565b50610d4e8383612710565b5f5f90505b600980549050811015610e105760098181548110610d7457610d7361369b565b5b905f5260205f20015f9054906101000a900473ffffffffffffffffffffffffffffffffffffffff1673ffffffffffffffffffffffffffffffffffffffff16635f8dead385856040518363ffffffff1660e01b8152600401610dd69291906137c9565b5f604051808303815f87803b158015610ded575f5ffd5b505af1158015610dff573d5f5f3e3d5ffd5b505050508080600101915050610d53565b50505050565b5f60065f9054906101000a900460ff16905090565b5f5f1b610e3781612344565b5f73ffffffffffffffffffffffffffffffffffffffff168273ffffffffffffffffffffffffffffffffffffffff1603610ea5576040517f08c379a0000000000000000000000000000000000000000000000000000000008152600401610e9c9061383a565b60405180910390fd5b8160085f6101000a81548173ffffffffffffffffffffffffffffffffffffffff021916908373ffffffffffffffffffffffffffffffffffffffff1602179055508173ffffffffffffffffffffffffffffffffffffffff167f7170bf15b246e880b2369cd7c67d057760d8a35149e8c64dde91efa22bcc76d060405160405180910390a25050565b5f5f5f8373ffffffffffffffffffffffffffffffffffffffff1673ffffffffffffffffffffffffffffffffffffffff1681526020019081526020015f20549050919050565b7fcab5a0bfe0b79d2c4b1c2e02599fa044d115b7511f9659307cb4276950967709610f9b81612344565b5f600d5f8473ffffffffffffffffffffffffffffffffffffffff1673ffffffffffffffffffffffffffffffffffffffff1681526020019081526020015f205f6101000a81548160ff0219169083151502179055508173ffffffffffffffffffffffffffffffffffffffff167f4feb53e305297ab8fb8f3420c95ea04737addc254a7270d8fc4605d2b9c61dba60405160405180910390a25050565b5f5f1b61104281612344565b61104a61278f565b50565b7f442a94f1a1fac79af32856af2a64f63648cfa2ef3b98610a5bb7cbec4cee698561107781612344565b60098054905082106110be576040517f08c379a00000000000000000000000000000000000000000000000000000000081526004016110b5906138a2565b60405180910390fd5b5f600983815481106110d3576110d261369b565b5b905f5260205f20015f9054906101000a900473ffffffffffffffffffffffffffffffffffffffff1690506009600160098054905061111191906138ed565b815481106111225761112161369b565b5b905f5260205f20015f9054906101000a900473ffffffffffffffffffffffffffffffffffffffff166009848154811061115e5761115d61369b565b5b905f5260205f20015f6101000a81548173ffffffffffffffffffffffffffffffffffffffff021916908373ffffffffffffffffffffffffffffffffffffffff16021790555060098054806111b5576111b4613920565b5b600190038181905f5260205f20015f6101000a81549073ffffffffffffffffffffffffffffffffffffffff021916905590558073ffffffffffffffffffffffffffffffffffffffff167ff3f11f4e6b87d4c3587a337c4533dab5c1dee243f72c0e77c1341a876157bbbe60405160405180910390a2505050565b5f60055f8481526020019081526020015f205f015f8373ffffffffffffffffffffffffffffffffffffffff1673ffffffffffffffffffffffffffffffffffffffff1681526020019081526020015f205f9054906101000a900460ff16905092915050565b6060600480546112a29061359b565b80601f01602080910402602001604051908101604052809291908181526020018280546112ce9061359b565b80156113195780601f106112f057610100808354040283529160200191611319565b820191905f5260205f20905b8154815290600101906020018083116112fc57829003601f168201915b5050505050905090565b7fcab5a0bfe0b79d2c4b1c2e02599fa044d115b7511f9659307cb427695096770961134d81612344565b61135783836127f1565b5f5f90505b600980549050811015611419576009818154811061137d5761137c61369b565b5b905f5260205f20015f9054906101000a900473ffffffffffffffffffffffffffffffffffffffff1673ffffffffffffffffffffffffffffffffffffffff16638d2ea77285856040518363ffffffff1660e01b81526004016113df9291906137c9565b5f604051808303815f87803b1580156113f6575f5ffd5b505af1158015611408573d5f5f3e3d5ffd5b50505050808060010191505061135c565b50505050565b7fcab5a0bfe0b79d2c4b1c2e02599fa044d115b7511f9659307cb427695096770961144981612344565b611452836115c2565b611491576040517f08c379a00000000000000000000000000000000000000000000000000000000081526004016114889061367d565b60405180910390fd5b6001600e5f6101000a81548160ff0219169083151502179055506114b6848484612870565b5f600e5f6101000a81548160ff0219169083151502179055505f5f90505b60098054905081101561159357600981815481106114f5576114f461369b565b5b905f5260205f20015f9054906101000a900473ffffffffffffffffffffffffffffffffffffffff1673ffffffffffffffffffffffffffffffffffffffff16638baf29b48686866040518463ffffffff1660e01b8152600401611559939291906136d7565b5f604051808303815f87803b158015611570575f5ffd5b505af1158015611582573d5f5f3e3d5ffd5b5050505080806001019150506114d4565b5050505050565b5f5f1b81565b5f5f6115aa61232b565b90506115b78185856123eb565b600191505092915050565b5f5f73ffffffffffffffffffffffffffffffffffffffff16600660019054906101000a900473ffffffffffffffffffffffffffffffffffffffff1673ffffffffffffffffffffffffffffffffffffffff1603611620575f9050611c00565b600660019054906101000a900473ffffffffffffffffffffffffffffffffffffffff1673ffffffffffffffffffffffffffffffffffffffff1663c3c5a547836040518263ffffffff1660e01b815260040161167b919061394d565b602060405180830381865afa158015611696573d5f5f3e3d5ffd5b505050506040513d601f19601f820116820180604052508101906116ba9190613736565b6116c6575f9050611c00565b5f600660019054906101000a900473ffffffffffffffffffffffffffffffffffffffff1673ffffffffffffffffffffffffffffffffffffffff16632fea7b81846040518263ffffffff1660e01b8152600401611722919061394d565b602060405180830381865afa15801561173d573d5f5f3e3d5ffd5b505050506040513d601f19601f82011682018060405250810190611761919061397a565b90505f73ffffffffffffffffffffffffffffffffffffffff168173ffffffffffffffffffffffffffffffffffffffff160361179f575f915050611c00565b5f73ffffffffffffffffffffffffffffffffffffffff1660085f9054906101000a900473ffffffffffffffffffffffffffffffffffffffff1673ffffffffffffffffffffffffffffffffffffffff16036117fd576001915050611c00565b5f60085f9054906101000a900473ffffffffffffffffffffffffffffffffffffffff1673ffffffffffffffffffffffffffffffffffffffff1663df09d6046040518163ffffffff1660e01b81526004015f60405180830381865afa158015611867573d5f5f3e3d5ffd5b505050506040513d5f823e3d601f19601f8201168201806040525081019061188f9190613af9565b90505f5f90505b8151811015611bf8575f5f90505f73ffffffffffffffffffffffffffffffffffffffff1660075f9054906101000a900473ffffffffffffffffffffffffffffffffffffffff1673ffffffffffffffffffffffffffffffffffffffff1614611bd9575f60075f9054906101000a900473ffffffffffffffffffffffffffffffffffffffff1673ffffffffffffffffffffffffffffffffffffffff1663d9dd24c56040518163ffffffff1660e01b81526004015f60405180830381865afa158015611961573d5f5f3e3d5ffd5b505050506040513d5f823e3d601f19601f820116820180604052508101906119899190613c00565b90505f5f90505b8151811015611bd65760075f9054906101000a900473ffffffffffffffffffffffffffffffffffffffff1673ffffffffffffffffffffffffffffffffffffffff166334a899878383815181106119e9576119e861369b565b5b6020026020010151878781518110611a0457611a0361369b565b5b60200260200101516040518363ffffffff1660e01b8152600401611a299291906137c9565b602060405180830381865afa158015611a44573d5f5f3e3d5ffd5b505050506040513d601f19601f82011682018060405250810190611a689190613736565b15611bc9575f5f8773ffffffffffffffffffffffffffffffffffffffff16878781518110611a9957611a9861369b565b5b6020026020010151858581518110611ab457611ab361369b565b5b6020026020010151604051602401611acd929190613c47565b6040516020818303038152906040527f2c30941f000000000000000000000000000000000000000000000000000000007bffffffffffffffffffffffffffffffffffffffffffffffffffffffff19166020820180517bffffffffffffffffffffffffffffffffffffffffffffffffffffffff8381831617835250505050604051611b579190613cb2565b5f60405180830381855afa9150503d805f8114611b8f576040519150601f19603f3d011682016040523d82523d5f602084013e611b94565b606091505b5091509150818015611bb6575080806020019051810190611bb59190613736565b5b15611bc657600194505050611bd6565b50505b8080600101915050611990565b50505b80611bea575f945050505050611c00565b508080600101915050611896565b506001925050505b919050565b60605f60098054905067ffffffffffffffff811115611c2757611c266139a9565b5b604051908082528060200260200182016040528015611c555781602001602082028036833780820191505090505b5090505f5f90505b600980549050811015611d005760098181548110611c7e57611c7d61369b565b5b905f5260205f20015f9054906101000a900473ffffffffffffffffffffffffffffffffffffffff16828281518110611cb957611cb861369b565b5b602002602001019073ffffffffffffffffffffffffffffffffffffffff16908173ffffffffffffffffffffffffffffffffffffffff16815250508080600101915050611c5d565b508091505090565b5f5f1b611d1481612344565b5f73ffffffffffffffffffffffffffffffffffffffff168273ffffffffffffffffffffffffffffffffffffffff1603611d82576040517f08c379a0000000000000000000000000000000000000000000000000000000008152600401611d799061383a565b60405180910390fd5b81600660016101000a81548173ffffffffffffffffffffffffffffffffffffffff021916908373ffffffffffffffffffffffffffffffffffffffff1602179055508173ffffffffffffffffffffffffffffffffffffffff167f8aa6172b9dcbe4f05892121059bc535d4743d706ba3ac6cbabf4a40de229e38860405160405180910390a25050565b611e1382610ad6565b611e1c81612344565b611e2683836125c5565b50505050565b5f60015f8473ffffffffffffffffffffffffffffffffffffffff1673ffffffffffffffffffffffffffffffffffffffff1681526020019081526020015f205f8373ffffffffffffffffffffffffffffffffffffffff1673ffffffffffffffffffffffffffffffffffffffff1681526020019081526020015f2054905092915050565b5f611eb7610e16565b15611ec4575f905061207d565b600d5f8573ffffffffffffffffffffffffffffffffffffffff1673ffffffffffffffffffffffffffffffffffffffff1681526020019081526020015f205f9054906101000a900460ff1680611f5f5750600d5f8473ffffffffffffffffffffffffffffffffffffffff1673ffffffffffffffffffffffffffffffffffffffff1681526020019081526020015f205f9054906101000a900460ff165b15611f6c575f905061207d565b611f75846115c2565b1580611f875750611f85836115c2565b155b15611f94575f905061207d565b5f5f90505b6009805490508110156120775760098181548110611fba57611fb961369b565b5b905f5260205f20015f9054906101000a900473ffffffffffffffffffffffffffffffffffffffff1673ffffffffffffffffffffffffffffffffffffffff1663e46638e68686866040518463ffffffff1660e01b815260040161201e939291906136d7565b602060405180830381865afa158015612039573d5f5f3e3d5ffd5b505050506040513d601f19601f8201168201806040525081019061205d9190613736565b61206a575f91505061207d565b8080600101915050611f99565b50600190505b9392505050565b5f600d5f8373ffffffffffffffffffffffffffffffffffffffff1673ffffffffffffffffffffffffffffffffffffffff1681526020019081526020015f205f9054906101000a900460ff169050919050565b5f5f1b6120e281612344565b5f73ffffffffffffffffffffffffffffffffffffffff168273ffffffffffffffffffffffffffffffffffffffff1603612150576040517f08c379a00000000000000000000000000000000000000000000000000000000081526004016121479061383a565b60405180910390fd5b8160075f6101000a81548173ffffffffffffffffffffffffffffffffffffffff021916908373ffffffffffffffffffffffffffffffffffffffff1602179055508173ffffffffffffffffffffffffffffffffffffffff167f1b98cb79e6f73020175fe87333f1b91ad6a881519c0afe30340c2599b2b4bde060405160405180910390a25050565b7fcab5a0bfe0b79d2c4b1c2e02599fa044d115b7511f9659307cb427695096770961220181612344565b6001600d5f8473ffffffffffffffffffffffffffffffffffffffff1673ffffffffffffffffffffffffffffffffffffffff1681526020019081526020015f205f6101000a81548160ff0219169083151502179055508173ffffffffffffffffffffffffffffffffffffffff167f8a5c4736a33c7b7f29a2c34ea9ff9608afc5718d56f6fd6dcbd2d3711a1a491360405160405180910390a25050565b60075f9054906101000a900473ffffffffffffffffffffffffffffffffffffffff1681565b5f7f01ffc9a7000000000000000000000000000000000000000000000000000000007bffffffffffffffffffffffffffffffffffffffffffffffffffffffff1916827bffffffffffffffffffffffffffffffffffffffffffffffffffffffff1916149050919050565b5f33905090565b61233f8383836001612a9b565b505050565b6123558161235061232b565b612c6a565b50565b5f6123638484611e2c565b90507fffffffffffffffffffffffffffffffffffffffffffffffffffffffffffffffff8110156123e557818110156123d6578281836040517ffb8f41b20000000000000000000000000000000000000000000000000000000081526004016123cd93929190613cc8565b60405180910390fd5b6123e484848484035f612a9b565b5b50505050565b5f73ffffffffffffffffffffffffffffffffffffffff168373ffffffffffffffffffffffffffffffffffffffff160361245b575f6040517f96c6fd1e000000000000000000000000000000000000000000000000000000008152600401612452919061394d565b60405180910390fd5b5f73ffffffffffffffffffffffffffffffffffffffff168273ffffffffffffffffffffffffffffffffffffffff16036124cb575f6040517fec442f050000000000000000000000000000000000000000000000000000000081526004016124c2919061394d565b60405180910390fd5b6124d6838383612870565b505050565b5f6124e6838361122f565b6125bb57600160055f8581526020019081526020015f205f015f8473ffffffffffffffffffffffffffffffffffffffff1673ffffffffffffffffffffffffffffffffffffffff1681526020019081526020015f205f6101000a81548160ff02191690831515021790555061255861232b565b73ffffffffffffffffffffffffffffffffffffffff168273ffffffffffffffffffffffffffffffffffffffff16847f2f8788117e7eff1d82e926ec794901d17c78024a50270940304540a733656f0d60405160405180910390a4600190506125bf565b5f90505b92915050565b5f6125d0838361122f565b156126a5575f60055f8581526020019081526020015f205f015f8473ffffffffffffffffffffffffffffffffffffffff1673ffffffffffffffffffffffffffffffffffffffff1681526020019081526020015f205f6101000a81548160ff02191690831515021790555061264261232b565b73ffffffffffffffffffffffffffffffffffffffff168273ffffffffffffffffffffffffffffffffffffffff16847ff6391f5c32d9c69d2a47ea670b442974b53935d1edc7fd64eb21e047a839171b60405160405180910390a4600190506126a9565b5f90505b92915050565b6126b7612cbb565b5f60065f6101000a81548160ff0219169083151502179055507f5db9ee0a495bf2e6ff9c91a7834c1ba4fdd244a5e8aa4e537bd38aeae4b073aa6126f961232b565b604051612706919061394d565b60405180910390a1565b5f73ffffffffffffffffffffffffffffffffffffffff168273ffffffffffffffffffffffffffffffffffffffff1603612780575f6040517fec442f05000000000000000000000000000000000000000000000000000000008152600401612777919061394d565b60405180910390fd5b61278b5f8383612870565b5050565b612797612cfb565b600160065f6101000a81548160ff0219169083151502179055507f62e78cea01bee320cd4e420270b5ea74000d11b0c9f74754ebdbfc544b05a2586127da61232b565b6040516127e7919061394d565b60405180910390a1565b5f73ffffffffffffffffffffffffffffffffffffffff168273ffffffffffffffffffffffffffffffffffffffff1603612861575f6040517f96c6fd1e000000000000000000000000000000000000000000000000000000008152600401612858919061394d565b60405180910390fd5b61286c825f83612870565b5050565b5f73ffffffffffffffffffffffffffffffffffffffff168373ffffffffffffffffffffffffffffffffffffffff16141580156128d857505f73ffffffffffffffffffffffffffffffffffffffff168273ffffffffffffffffffffffffffffffffffffffff1614155b80156128f05750600e5f9054906101000a900460ff16155b1561294057612900838383611eae565b61293f576040517f08c379a000000000000000000000000000000000000000000000000000000000815260040161293690613d47565b60405180910390fd5b5b61294b838383612d3c565b5f73ffffffffffffffffffffffffffffffffffffffff168373ffffffffffffffffffffffffffffffffffffffff16141580156129b357505f73ffffffffffffffffffffffffffffffffffffffff168273ffffffffffffffffffffffffffffffffffffffff1614155b80156129cb5750600e5f9054906101000a900460ff16155b15612a96575f5f90505b600980549050811015612a9457600981815481106129f6576129f561369b565b5b905f5260205f20015f9054906101000a900473ffffffffffffffffffffffffffffffffffffffff1673ffffffffffffffffffffffffffffffffffffffff16638baf29b48585856040518463ffffffff1660e01b8152600401612a5a939291906136d7565b5f604051808303815f87803b158015612a71575f5ffd5b505af1158015612a83573d5f5f3e3d5ffd5b5050505080806001019150506129d5565b505b505050565b5f73ffffffffffffffffffffffffffffffffffffffff168473ffffffffffffffffffffffffffffffffffffffff1603612b0b575f6040517fe602df05000000000000000000000000000000000000000000000000000000008152600401612b02919061394d565b60405180910390fd5b5f73ffffffffffffffffffffffffffffffffffffffff168373ffffffffffffffffffffffffffffffffffffffff1603612b7b575f6040517f94280d62000000000000000000000000000000000000000000000000000000008152600401612b72919061394d565b60405180910390fd5b8160015f8673ffffffffffffffffffffffffffffffffffffffff1673ffffffffffffffffffffffffffffffffffffffff1681526020019081526020015f205f8573ffffffffffffffffffffffffffffffffffffffff1673ffffffffffffffffffffffffffffffffffffffff1681526020019081526020015f20819055508015612c64578273ffffffffffffffffffffffffffffffffffffffff168473ffffffffffffffffffffffffffffffffffffffff167f8c5be1e5ebec7d5bd14f71427d1e84f3dd0314c0f7b2291e5b200ac8c7c3b92584604051612c5b9190613261565b60405180910390a35b50505050565b612c74828261122f565b612cb75780826040517fe2517d3f000000000000000000000000000000000000000000000000000000008152600401612cae929190613d65565b60405180910390fd5b5050565b612cc3610e16565b612cf9576040517f8dfc202b00000000000000000000000000000000000000000000000000000000815260040160405180910390fd5b565b612d03610e16565b15612d3a576040517fd93c066500000000000000000000000000000000000000000000000000000000815260040160405180910390fd5b565b5f73ffffffffffffffffffffffffffffffffffffffff168373ffffffffffffffffffffffffffffffffffffffff1603612d8c578060025f828254612d809190613d8c565b92505081905550612e5a565b5f5f5f8573ffffffffffffffffffffffffffffffffffffffff1673ffffffffffffffffffffffffffffffffffffffff1681526020019081526020015f2054905081811015612e15578381836040517fe450d38c000000000000000000000000000000000000000000000000000000008152600401612e0c93929190613cc8565b60405180910390fd5b8181035f5f8673ffffffffffffffffffffffffffffffffffffffff1673ffffffffffffffffffffffffffffffffffffffff1681526020019081526020015f2081905550505b5f73ffffffffffffffffffffffffffffffffffffffff168273ffffffffffffffffffffffffffffffffffffffff1603612ea1578060025f8282540392505081905550612eeb565b805f5f8473ffffffffffffffffffffffffffffffffffffffff1673ffffffffffffffffffffffffffffffffffffffff1681526020019081526020015f205f82825401925050819055505b8173ffffffffffffffffffffffffffffffffffffffff168373ffffffffffffffffffffffffffffffffffffffff167fddf252ad1be2c89b69c2b068fc378daa952ba7f163c4a11628f55a4df523b3ef83604051612f489190613261565b60405180910390a3505050565b5f604051905090565b5f5ffd5b5f5ffd5b5f7fffffffff0000000000000000000000000000000000000000000000000000000082169050919050565b612f9a81612f66565b8114612fa4575f5ffd5b50565b5f81359050612fb581612f91565b92915050565b5f60208284031215612fd057612fcf612f5e565b5b5f612fdd84828501612fa7565b91505092915050565b5f8115159050919050565b612ffa81612fe6565b82525050565b5f6020820190506130135f830184612ff1565b92915050565b5f819050919050565b61302b81613019565b82525050565b5f6020820190506130445f830184613022565b92915050565b5f81519050919050565b5f82825260208201905092915050565b8281835e5f83830152505050565b5f601f19601f8301169050919050565b5f61308c8261304a565b6130968185613054565b93506130a6818560208601613064565b6130af81613072565b840191505092915050565b5f6020820190508181035f8301526130d28184613082565b905092915050565b5f73ffffffffffffffffffffffffffffffffffffffff82169050919050565b5f819050919050565b5f61311c613117613112846130da565b6130f9565b6130da565b9050919050565b5f61312d82613102565b9050919050565b5f61313e82613123565b9050919050565b61314e81613134565b82525050565b5f6020820190506131675f830184613145565b92915050565b5f613177826130da565b9050919050565b6131878161316d565b8114613191575f5ffd5b50565b5f813590506131a28161317e565b92915050565b5f819050919050565b6131ba816131a8565b81146131c4575f5ffd5b50565b5f813590506131d5816131b1565b92915050565b5f5f604083850312156131f1576131f0612f5e565b5b5f6131fe85828601613194565b925050602061320f858286016131c7565b9150509250929050565b5f61322382613123565b9050919050565b61323381613219565b82525050565b5f60208201905061324c5f83018461322a565b92915050565b61325b816131a8565b82525050565b5f6020820190506132745f830184613252565b92915050565b5f6020828403121561328f5761328e612f5e565b5b5f61329c848285016131c7565b91505092915050565b5f6132af82613123565b9050919050565b6132bf816132a5565b82525050565b5f6020820190506132d85f8301846132b6565b92915050565b5f602082840312156132f3576132f2612f5e565b5b5f61330084828501613194565b91505092915050565b5f5f5f606084860312156133205761331f612f5e565b5b5f61332d86828701613194565b935050602061333e86828701613194565b925050604061334f868287016131c7565b9150509250925092565b61336281613019565b811461336c575f5ffd5b50565b5f8135905061337d81613359565b92915050565b5f6020828403121561339857613397612f5e565b5b5f6133a58482850161336f565b91505092915050565b5f5f604083850312156133c4576133c3612f5e565b5b5f6133d18582860161336f565b92505060206133e285828601613194565b9150509250929050565b5f60ff82169050919050565b613401816133ec565b82525050565b5f60208201905061341a5f8301846133f8565b92915050565b5f81519050919050565b5f82825260208201905092915050565b5f819050602082019050919050565b6134528161316d565b82525050565b5f6134638383613449565b60208301905092915050565b5f602082019050919050565b5f61348582613420565b61348f818561342a565b935061349a8361343a565b805f5b838110156134ca5781516134b18882613458565b97506134bc8361346f565b92505060018101905061349d565b5085935050505092915050565b5f6020820190508181035f8301526134ef818461347b565b905092915050565b5f5f6040838503121561350d5761350c612f5e565b5b5f61351a85828601613194565b925050602061352b85828601613194565b9150509250929050565b5f61353f82613123565b9050919050565b61354f81613535565b82525050565b5f6020820190506135685f830184613546565b92915050565b7f4e487b71000000000000000000000000000000000000000000000000000000005f52602260045260245ffd5b5f60028204905060018216806135b257607f821691505b6020821081036135c5576135c461356e565b5b50919050565b7f496e76616c6964206d6f64756c652061646472657373000000000000000000005f82015250565b5f6135ff601683613054565b915061360a826135cb565b602082019050919050565b5f6020820190508181035f83015261362c816135f3565b9050919050565b7f526563697069656e74206e6f74207665726966696564000000000000000000005f82015250565b5f613667601683613054565b915061367282613633565b602082019050919050565b5f6020820190508181035f8301526136948161365b565b9050919050565b7f4e487b71000000000000000000000000000000000000000000000000000000005f52603260045260245ffd5b6136d18161316d565b82525050565b5f6060820190506136ea5f8301866136c8565b6136f760208301856136c8565b6137046040830184613252565b949350505050565b61371581612fe6565b811461371f575f5ffd5b50565b5f815190506137308161370c565b92915050565b5f6020828403121561374b5761374a612f5e565b5b5f61375884828501613722565b91505092915050565b7f4d696e74206e6f7420636f6d706c69616e7400000000000000000000000000005f82015250565b5f613795601283613054565b91506137a082613761565b602082019050919050565b5f6020820190508181035f8301526137c281613789565b9050919050565b5f6040820190506137dc5f8301856136c8565b6137e96020830184613252565b9392505050565b7f496e76616c6964207265676973747279206164647265737300000000000000005f82015250565b5f613824601883613054565b915061382f826137f0565b602082019050919050565b5f6020820190508181035f83015261385181613818565b9050919050565b7f496e76616c696420696e646578000000000000000000000000000000000000005f82015250565b5f61388c600d83613054565b915061389782613858565b602082019050919050565b5f6020820190508181035f8301526138b981613880565b9050919050565b7f4e487b71000000000000000000000000000000000000000000000000000000005f52601160045260245ffd5b5f6138f7826131a8565b9150613902836131a8565b925082820390508181111561391a576139196138c0565b5b92915050565b7f4e487b71000000000000000000000000000000000000000000000000000000005f52603160045260245ffd5b5f6020820190506139605f8301846136c8565b92915050565b5f815190506139748161317e565b92915050565b5f6020828403121561398f5761398e612f5e565b5b5f61399c84828501613966565b91505092915050565b5f5ffd5b7f4e487b71000000000000000000000000000000000000000000000000000000005f52604160045260245ffd5b6139df82613072565b810181811067ffffffffffffffff821117156139fe576139fd6139a9565b5b80604052505050565b5f613a10612f55565b9050613a1c82826139d6565b919050565b5f67ffffffffffffffff821115613a3b57613a3a6139a9565b5b602082029050602081019050919050565b5f5ffd5b5f81519050613a5e816131b1565b92915050565b5f613a76613a7184613a21565b613a07565b90508083825260208201905060208402830185811115613a9957613a98613a4c565b5b835b81811015613ac25780613aae8882613a50565b845260208401935050602081019050613a9b565b5050509392505050565b5f82601f830112613ae057613adf6139a5565b5b8151613af0848260208601613a64565b91505092915050565b5f60208284031215613b0e57613b0d612f5e565b5b5f82015167ffffffffffffffff811115613b2b57613b2a612f62565b5b613b3784828501613acc565b91505092915050565b5f67ffffffffffffffff821115613b5a57613b596139a9565b5b602082029050602081019050919050565b5f613b7d613b7884613b40565b613a07565b90508083825260208201905060208402830185811115613ba057613b9f613a4c565b5b835b81811015613bc95780613bb58882613966565b845260208401935050602081019050613ba2565b5050509392505050565b5f82601f830112613be757613be66139a5565b5b8151613bf7848260208601613b6b565b91505092915050565b5f60208284031215613c1557613c14612f5e565b5b5f82015167ffffffffffffffff811115613c3257613c31612f62565b5b613c3e84828501613bd3565b91505092915050565b5f604082019050613c5a5f830185613252565b613c6760208301846136c8565b9392505050565b5f81519050919050565b5f81905092915050565b5f613c8c82613c6e565b613c968185613c78565b9350613ca6818560208601613064565b80840191505092915050565b5f613cbd8284613c82565b915081905092915050565b5f606082019050613cdb5f8301866136c8565b613ce86020830185613252565b613cf56040830184613252565b949350505050565b7f5472616e73666572206e6f7420636f6d706c69616e74000000000000000000005f82015250565b5f613d31601683613054565b9150613d3c82613cfd565b602082019050919050565b5f6020820190508181035f830152613d5e81613d25565b9050919050565b5f604082019050613d785f8301856136c8565b613d856020830184613022565b9392505050565b5f613d96826131a8565b9150613da1836131a8565b9250828201905080821115613db957613db86138c0565b5b9291505056fea26469706673582212205a6c5464640bc189227a0d607093f50bcd134ee6a32c0ed3b89658278bf6455164736f6c634300081e0033","linkReferences":{}},"methodIdentifiers":{"AGENT_ROLE()":"22459e18","COMPLIANCE_ROLE()":"062d3bd7","DEFAULT_ADMIN_ROLE()":"a217fddf","addComplianceModule(address)":"1b72a105","allowance(address,address)":"dd62ed3e","approve(address,uint256)":"095ea7b3","balanceOf(address)":"70a08231","burn(address,uint256)":"9dc29fac","canTransfer(address,address,uint256)":"e46638e6","claimTopicsRegistry()":"08761324","complianceModules(uint256)":"1a63fcd8","decimals()":"313ce567","forcedTransfer(address,address,uint256)":"9fc1d0e7","freezeAccount(address)":"f26c159f","getComplianceModules()":"c8be2d1c","getRoleAdmin(bytes32)":"248a9ca3","grantRole(bytes32,address)":"2f2ff15d","hasRole(bytes32,address)":"91d14854","identityRegistry()":"134e18f4","isFrozen(address)":"e5839836","isVerified(address)":"b9209e33","mint(address,uint256)":"40c10f19","name()":"06fdde03","pause()":"8456cb59","paused()":"5c975abb","removeComplianceModule(uint256)":"867f88ce","renounceRole(bytes32,address)":"36568abe","revokeRole(bytes32,address)":"d547741f","setClaimTopicsRegistry(address)":"670af6a9","setIdentityRegistry(address)":"cbf3f861","setTrustedIssuersRegistry(address)":"e744d789","supportsInterface(bytes4)":"01ffc9a7","symbol()":"95d89b41","totalSupply()":"18160ddd","transfer(address,uint256)":"a9059cbb","transferFrom(address,address,uint256)":"23b872dd","trustedIssuersRegistry()":"fb703a7b","unfreezeAccount(address)":"788649ea","unpause()":"3f4ba83a"},"id":39}