{"abi":[{"type":"constructor","inputs":[{"name":"initialOwner","type":"address","internalType":"address"}],"stateMutability":"nonpayable"},{"type":"function","name":"addTrustedIssuer","inputs":[{"name":"_issuer","type":"address","internalType":"address"},{"name":"_claimTopics","type":"uint256[]","internalType":"uint256[]"}],"outputs":[],"stateMutability":"nonpayable"},{"type":"function","name":"getIssuerClaimTopics","inputs":[{"name":"_issuer","type":"address","internalType":"address"}],"outputs":[{"name":"","type":"uint256[]","internalType":"uint256[]"}],"stateMutability":"view"},{"type":"function","name":"getTrustedIssuers","inputs":[],"outputs":[{"name":"","type":"address[]","internalType":"address[]"}],"stateMutability":"view"},{"type":"function","name":"getTrustedIssuersCount","inputs":[],"outputs":[{"name":"","type":"uint256","internalType":"uint256"}],"stateMutability":"view"},{"type":"function","name":"hasClaimTopic","inputs":[{"name":"_issuer","type":"address","internalType":"address"},{"name":"_claimTopic","type":"uint256","internalType":"uint256"}],"outputs":[{"name":"","type":"bool","internalType":"bool"}],"stateMutability":"view"},{"type":"function","name":"isTrustedIssuer","inputs":[{"name":"_issuer","type":"address","internalType":"address"}],"outputs":[{"name":"","type":"bool","internalType":"bool"}],"stateMutability":"view"},{"type":"function","name":"owner","inputs":[],"outputs":[{"name":"","type":"address","internalType":"address"}],"stateMutability":"view"},{"type":"function","name":"removeTrustedIssuer","inputs":[{"name":"_issuer","type":"address","internalType":"address"}],"outputs":[],"stateMutability":"nonpayable"},{"type":"function","name":"renounceOwnership","inputs":[],"outputs":[],"stateMutability":"nonpayable"},{"type":"function","name":"transferOwnership","inputs":[{"name":"newOwner","type":"address","internalType":"address"}],"outputs":[],"stateMutability":"nonpayable"},{"type":"function","name":"updateIssuerClaimTopics","inputs":[{"name":"_issuer","type":"address","internalType":"address"},{"name":"_claimTopics","type":"uint256[]","internalType":"uint256[]"}],"outputs":[],"stateMutability":"nonpayable"},{"type":"event","name":"ClaimTopicsUpdated","inputs":[{"name":"issuer","type":"address","indexed":true,"internalType":"address"},{"name":"claimTopics","type":"uint256[]","indexed":false,"internalType":"uint256[]"}],"anonymous":false},{"type":"event","name":"OwnershipTransferred","inputs":[{"name":"previousOwner","type":"address","indexed":true,"internalType":"address"},{"name":"newOwner","type":"address","indexed":true,"internalType":"address"}],"anonymous":false},{"type":"event","name":"TrustedIssuerAdded","inputs":[{"name":"issuer","type":"address","indexed":true,"internalType":"address"},{"name":"claimTopics","type":"uint256[]","indexed":false,"internalType":"uint256[]"}],"anonymous":false},{"type":"event","name":"TrustedIssuerRemoved","inputs":[{"name":"issuer","type":"address","indexed":true,"internalType":"address"}],"anonymous":false},{"type":"error","name":"OwnableInvalidOwner","inputs":[{"name":"owner","type":"address","internalType":"address"}]},{"type":"error","name":"OwnableUnauthorizedAccount","inputs":[{"name":"account","type":"address","internalType":"address"}]}],"bytecode":{"object":"0x608060405234801561000f575f5ffd5b50604051611836380380611836833981810160405281019061003191906101d7565b805f73ffffffffffffffffffffffffffffffffffffffff168173ffffffffffffffffffffffffffffffffffffffff16036100a2575f6040517f1e4fbdf70000000000000000000000000000000000000000000000000000000081526004016100999190610211565b60405180910390fd5b6100b1816100b860201b60201c565b505061022a565b5f5f5f9054906101000a900473ffffffffffffffffffffffffffffffffffffffff169050815f5f6101000a81548173ffffffffffffffffffffffffffffffffffffffff021916908373ffffffffffffffffffffffffffffffffffffffff1602179055508173ffffffffffffffffffffffffffffffffffffffff168173ffffffffffffffffffffffffffffffffffffffff167f8be0079c531659141344cd1fd0a4f28419497f9722a3daafe3b4186f6b6457e060405160405180910390a35050565b5f5ffd5b5f73ffffffffffffffffffffffffffffffffffffffff82169050919050565b5f6101a68261017d565b9050919050565b6101b68161019c565b81146101c0575f5ffd5b50565b5f815190506101d1816101ad565b92915050565b5f602082840312156101ec576101eb610179565b5b5f6101f9848285016101c3565b91505092915050565b61020b8161019c565b82525050565b5f6020820190506102245f830184610202565b92915050565b6115ff806102375f395ff3fe608060405234801561000f575f5ffd5b50600436106100a7575f3560e01c80639f63ea981161006f5780639f63ea981461013d578063b93d28eb14610159578063d0e3904f14610175578063d9dd24c5146101a5578063ef2ed1a4146101c3578063f2fde38b146101f3576100a7565b806304bc7e84146100ab57806334a89987146100c75780635e689206146100f7578063715018a6146101155780638da5cb5b1461011f575b5f5ffd5b6100c560048036038101906100c09190611045565b61020f565b005b6100e160048036038101906100dc919061109f565b610387565b6040516100ee91906110f7565b60405180910390f35b6100ff6104be565b60405161010c919061111f565b60405180910390f35b61011d6104ca565b005b6101276104dd565b6040516101349190611147565b60405180910390f35b61015760048036038101906101529190611045565b610504565b005b610173600480360381019061016e9190611160565b6107a0565b005b61018f600480360381019061018a9190611160565b610a90565b60405161019c9190611242565b60405180910390f35b6101ad610b23565b6040516101ba9190611319565b60405180910390f35b6101dd60048036038101906101d89190611160565b610bae565b6040516101ea91906110f7565b60405180910390f35b61020d60048036038101906102089190611160565b610c00565b005b610217610c84565b60025f8373ffffffffffffffffffffffffffffffffffffffff1673ffffffffffffffffffffffffffffffffffffffff1681526020019081526020015f205f9054906101000a900460ff166102a0576040517f08c379a000000000000000000000000000000000000000000000000000000000815260040161029790611393565b60405180910390fd5b5f8151116102e3576040517f08c379a00000000000000000000000000000000000000000000000000000000081526004016102da90611421565b60405180910390fd5b8060015f8473ffffffffffffffffffffffffffffffffffffffff1673ffffffffffffffffffffffffffffffffffffffff1681526020019081526020015f209080519060200190610334929190610dd3565b508173ffffffffffffffffffffffffffffffffffffffff167fec753cfc52044f61676f18a11e500093a9f2b1cd5e4942bc476f2b0438159bcf8260405161037b9190611242565b60405180910390a25050565b5f60025f8473ffffffffffffffffffffffffffffffffffffffff1673ffffffffffffffffffffffffffffffffffffffff1681526020019081526020015f205f9054906101000a900460ff166103de575f90506104b8565b5f60015f8573ffffffffffffffffffffffffffffffffffffffff1673ffffffffffffffffffffffffffffffffffffffff1681526020019081526020015f2080548060200260200160405190810160405280929190818152602001828054801561046457602002820191905f5260205f20905b815481526020019060010190808311610450575b505050505090505f5f90505b81518110156104b2578382828151811061048d5761048c61143f565b5b6020026020010151036104a5576001925050506104b8565b8080600101915050610470565b505f9150505b92915050565b5f600380549050905090565b6104d2610c84565b6104db5f610d0b565b565b5f5f5f9054906101000a900473ffffffffffffffffffffffffffffffffffffffff16905090565b61050c610c84565b5f73ffffffffffffffffffffffffffffffffffffffff168273ffffffffffffffffffffffffffffffffffffffff160361057a576040517f08c379a0000000000000000000000000000000000000000000000000000000008152600401610571906114b6565b60405180910390fd5b60025f8373ffffffffffffffffffffffffffffffffffffffff1673ffffffffffffffffffffffffffffffffffffffff1681526020019081526020015f205f9054906101000a900460ff1615610604576040517f08c379a00000000000000000000000000000000000000000000000000000000081526004016105fb9061151e565b60405180910390fd5b5f815111610647576040517f08c379a000000000000000000000000000000000000000000000000000000000815260040161063e90611421565b60405180910390fd5b600160025f8473ffffffffffffffffffffffffffffffffffffffff1673ffffffffffffffffffffffffffffffffffffffff1681526020019081526020015f205f6101000a81548160ff0219169083151502179055508060015f8473ffffffffffffffffffffffffffffffffffffffff1673ffffffffffffffffffffffffffffffffffffffff1681526020019081526020015f2090805190602001906106ed929190610dd3565b50600382908060018154018082558091505060019003905f5260205f20015f9091909190916101000a81548173ffffffffffffffffffffffffffffffffffffffff021916908373ffffffffffffffffffffffffffffffffffffffff1602179055508173ffffffffffffffffffffffffffffffffffffffff167ffedc33fd34859594822c0ff6f3f4f9fc279cc6d5cae53068f706a088e4500872826040516107949190611242565b60405180910390a25050565b6107a8610c84565b60025f8273ffffffffffffffffffffffffffffffffffffffff1673ffffffffffffffffffffffffffffffffffffffff1681526020019081526020015f205f9054906101000a900460ff16610831576040517f08c379a000000000000000000000000000000000000000000000000000000000815260040161082890611393565b60405180910390fd5b5f60025f8373ffffffffffffffffffffffffffffffffffffffff1673ffffffffffffffffffffffffffffffffffffffff1681526020019081526020015f205f6101000a81548160ff02191690831515021790555060015f8273ffffffffffffffffffffffffffffffffffffffff1673ffffffffffffffffffffffffffffffffffffffff1681526020019081526020015f205f6108cd9190610e1e565b5f5f90505b600380549050811015610a49578173ffffffffffffffffffffffffffffffffffffffff166003828154811061090a5761090961143f565b5b905f5260205f20015f9054906101000a900473ffffffffffffffffffffffffffffffffffffffff1673ffffffffffffffffffffffffffffffffffffffff1603610a3c57600360016003805490506109619190611569565b815481106109725761097161143f565b5b905f5260205f20015f9054906101000a900473ffffffffffffffffffffffffffffffffffffffff16600382815481106109ae576109ad61143f565b5b905f5260205f20015f6101000a81548173ffffffffffffffffffffffffffffffffffffffff021916908373ffffffffffffffffffffffffffffffffffffffff1602179055506003805480610a0557610a0461159c565b5b600190038181905f5260205f20015f6101000a81549073ffffffffffffffffffffffffffffffffffffffff02191690559055610a49565b80806001019150506108d2565b508073ffffffffffffffffffffffffffffffffffffffff167f2214ded40113cc3fb63fc206cafee88270b0a903dac7245d54efdde30ebb032160405160405180910390a250565b606060015f8373ffffffffffffffffffffffffffffffffffffffff1673ffffffffffffffffffffffffffffffffffffffff1681526020019081526020015f20805480602002602001604051908101604052809291908181526020018280548015610b1757602002820191905f5260205f20905b815481526020019060010190808311610b03575b50505050509050919050565b60606003805480602002602001604051908101604052809291908181526020018280548015610ba457602002820191905f5260205f20905b815f9054906101000a900473ffffffffffffffffffffffffffffffffffffffff1673ffffffffffffffffffffffffffffffffffffffff1681526020019060010190808311610b5b575b5050505050905090565b5f60025f8373ffffffffffffffffffffffffffffffffffffffff1673ffffffffffffffffffffffffffffffffffffffff1681526020019081526020015f205f9054906101000a900460ff169050919050565b610c08610c84565b5f73ffffffffffffffffffffffffffffffffffffffff168173ffffffffffffffffffffffffffffffffffffffff1603610c78575f6040517f1e4fbdf7000000000000000000000000000000000000000000000000000000008152600401610c6f9190611147565b60405180910390fd5b610c8181610d0b565b50565b610c8c610dcc565b73ffffffffffffffffffffffffffffffffffffffff16610caa6104dd565b73ffffffffffffffffffffffffffffffffffffffff1614610d0957610ccd610dcc565b6040517f118cdaa7000000000000000000000000000000000000000000000000000000008152600401610d009190611147565b60405180910390fd5b565b5f5f5f9054906101000a900473ffffffffffffffffffffffffffffffffffffffff169050815f5f6101000a81548173ffffffffffffffffffffffffffffffffffffffff021916908373ffffffffffffffffffffffffffffffffffffffff1602179055508173ffffffffffffffffffffffffffffffffffffffff168173ffffffffffffffffffffffffffffffffffffffff167f8be0079c531659141344cd1fd0a4f28419497f9722a3daafe3b4186f6b6457e060405160405180910390a35050565b5f33905090565b828054828255905f5260205f20908101928215610e0d579160200282015b82811115610e0c578251825591602001919060010190610df1565b5b509050610e1a9190610e3c565b5090565b5080545f8255905f5260205f2090810190610e399190610e3c565b50565b5b80821115610e53575f815f905550600101610e3d565b5090565b5f604051905090565b5f5ffd5b5f5ffd5b5f73ffffffffffffffffffffffffffffffffffffffff82169050919050565b5f610e9182610e68565b9050919050565b610ea181610e87565b8114610eab575f5ffd5b50565b5f81359050610ebc81610e98565b92915050565b5f5ffd5b5f601f19601f8301169050919050565b7f4e487b71000000000000000000000000000000000000000000000000000000005f52604160045260245ffd5b610f0c82610ec6565b810181811067ffffffffffffffff82111715610f2b57610f2a610ed6565b5b80604052505050565b5f610f3d610e57565b9050610f498282610f03565b919050565b5f67ffffffffffffffff821115610f6857610f67610ed6565b5b602082029050602081019050919050565b5f5ffd5b5f819050919050565b610f8f81610f7d565b8114610f99575f5ffd5b50565b5f81359050610faa81610f86565b92915050565b5f610fc2610fbd84610f4e565b610f34565b90508083825260208201905060208402830185811115610fe557610fe4610f79565b5b835b8181101561100e5780610ffa8882610f9c565b845260208401935050602081019050610fe7565b5050509392505050565b5f82601f83011261102c5761102b610ec2565b5b813561103c848260208601610fb0565b91505092915050565b5f5f6040838503121561105b5761105a610e60565b5b5f61106885828601610eae565b925050602083013567ffffffffffffffff81111561108957611088610e64565b5b61109585828601611018565b9150509250929050565b5f5f604083850312156110b5576110b4610e60565b5b5f6110c285828601610eae565b92505060206110d385828601610f9c565b9150509250929050565b5f8115159050919050565b6110f1816110dd565b82525050565b5f60208201905061110a5f8301846110e8565b92915050565b61111981610f7d565b82525050565b5f6020820190506111325f830184611110565b92915050565b61114181610e87565b82525050565b5f60208201905061115a5f830184611138565b92915050565b5f6020828403121561117557611174610e60565b5b5f61118284828501610eae565b91505092915050565b5f81519050919050565b5f82825260208201905092915050565b5f819050602082019050919050565b6111bd81610f7d565b82525050565b5f6111ce83836111b4565b60208301905092915050565b5f602082019050919050565b5f6111f08261118b565b6111fa8185611195565b9350611205836111a5565b805f5b8381101561123557815161121c88826111c3565b9750611227836111da565b925050600181019050611208565b5085935050505092915050565b5f6020820190508181035f83015261125a81846111e6565b905092915050565b5f81519050919050565b5f82825260208201905092915050565b5f819050602082019050919050565b61129481610e87565b82525050565b5f6112a5838361128b565b60208301905092915050565b5f602082019050919050565b5f6112c782611262565b6112d1818561126c565b93506112dc8361127c565b805f5b8381101561130c5781516112f3888261129a565b97506112fe836112b1565b9250506001810190506112df565b5085935050505092915050565b5f6020820190508181035f83015261133181846112bd565b905092915050565b5f82825260208201905092915050565b7f497373756572206e6f74207472757374656400000000000000000000000000005f82015250565b5f61137d601283611339565b915061138882611349565b602082019050919050565b5f6020820190508181035f8301526113aa81611371565b9050919050565b7f4d7573742073706563696679206174206c65617374206f6e6520636c61696d205f8201527f746f706963000000000000000000000000000000000000000000000000000000602082015250565b5f61140b602583611339565b9150611416826113b1565b604082019050919050565b5f6020820190508181035f830152611438816113ff565b9050919050565b7f4e487b71000000000000000000000000000000000000000000000000000000005f52603260045260245ffd5b7f496e76616c6964206973737565722061646472657373000000000000000000005f82015250565b5f6114a0601683611339565b91506114ab8261146c565b602082019050919050565b5f6020820190508181035f8301526114cd81611494565b9050919050565b7f49737375657220616c72656164792074727573746564000000000000000000005f82015250565b5f611508601683611339565b9150611513826114d4565b602082019050919050565b5f6020820190508181035f830152611535816114fc565b9050919050565b7f4e487b71000000000000000000000000000000000000000000000000000000005f52601160045260245ffd5b5f61157382610f7d565b915061157e83610f7d565b92508282039050818111156115965761159561153c565b5b92915050565b7f4e487b71000000000000000000000000000000000000000000000000000000005f52603160045260245ffdfea26469706673582212208242453009a2f9107d5b4b7937c80d17edc1ccd616ba4945b412b7e29236160564736f6c634300081e0033","linkReferences":{}},"methodIdentifiers":{"addTrustedIssuer(address,uint256[])":"9f63ea98","getIssuerClaimTopics(address)":"d0e3904f","getTrustedIssuers()":"d9dd24c5","getTrustedIssuersCount()":"5e689206","hasClaimTopic(address,uint256)":"34a89987","isTrustedIssuer(address)":"ef2ed1a4","owner()":"8da5cb5b","removeTrustedIssuer(address)":"b93d28eb","renounceOwnership()":"715018a6","transferOwnership(address)":"f2fde38b","updateIssuerClaimTopics(address,uint256[])":"04bc7e84"},"id":40}