{"abi":[{"type":"constructor","inputs":[{"name":"initialOwner","type":"address","internalType":"address"},{"name":"_maxBalance","type":"uint256","internalType":"uint256"}],"stateMutability":"nonpayable"},{"type":"function","name":"canTransfer","inputs":[{"name":"","type":"address","internalType":"address"},{"name":"to","type":"address","internalType":"address"},{"name":"amount","type":"uint256","internalType":"uint256"}],"outputs":[{"name":"","type":"bool","internalType":"bool"}],"stateMutability":"view"},{"type":"function","name":"created","inputs":[{"name":"to","type":"address","internalType":"address"},{"name":"amount","type":"uint256","internalType":"uint256"}],"outputs":[],"stateMutability":"nonpayable"},{"type":"function","name":"destroyed","inputs":[{"name":"from","type":"address","internalType":"address"},{"name":"amount","type":"uint256","internalType":"uint256"}],"outputs":[],"stateMutability":"nonpayable"},{"type":"function","name":"maxBalance","inputs":[],"outputs":[{"name":"","type":"uint256","internalType":"uint256"}],"stateMutability":"view"},{"type":"function","name":"owner","inputs":[],"outputs":[{"name":"","type":"address","internalType":"address"}],"stateMutability":"view"},{"type":"function","name":"renounceOwnership","inputs":[],"outputs":[],"stateMutability":"nonpayable"},{"type":"function","name":"setMaxBalance","inputs":[{"name":"_maxBalance","type":"uint256","internalType":"uint256"}],"outputs":[],"stateMutability":"nonpayable"},{"type":"function","name":"setTokenContract","inputs":[{"name":"_token","type":"address","internalType":"address"}],"outputs":[],"stateMutability":"nonpayable"},{"type":"function","name":"tokenContract","inputs":[],"outputs":[{"name":"","type":"address","internalType":"address"}],"stateMutability":"view"},{"type":"function","name":"transferOwnership","inputs":[{"name":"newOwner","type":"address","internalType":"address"}],"outputs":[],"stateMutability":"nonpayable"},{"type":"function","name":"transferred","inputs":[{"name":"from","type":"address","internalType":"address"},{"name":"to","type":"address","internalType":"address"},{"name":"amount","type":"uint256","internalType":"uint256"}],"outputs":[],"stateMutability":"nonpayable"},{"type":"event","name":"MaxBalanceSet","inputs":[{"name":"maxBalance","type":"uint256","indexed":false,"internalType":"uint256"}],"anonymous":false},{"type":"event","name":"OwnershipTransferred","inputs":[{"name":"previousOwner","type":"address","indexed":true,"internalType":"address"},{"name":"newOwner","type":"address","indexed":true,"internalType":"address"}],"anonymous":false},{"type":"error","name":"OwnableInvalidOwner","inputs":[{"name":"owner","type":"address","internalType":"address"}]},{"type":"error","name":"OwnableUnauthorizedAccount","inputs":[{"name":"account","type":"address","internalType":"address"}]}],"bytecode":{"object":"0x608060405234801561000f575f5ffd5b50604051610d1b380380610d1b83398181016040528101906100319190610249565b815f73ffffffffffffffffffffffffffffffffffffffff168173ffffffffffffffffffffffffffffffffffffffff16036100a2575f6040517f1e4fbdf70000000000000000000000000000000000000000000000000000000081526004016100999190610296565b60405180910390fd5b6100b1816100f760201b60201c565b50806001819055507f82f9980487703d8db41f1ba63b2665566f7fb449fbc840a9e0c6ca932bed582c816040516100e891906102be565b60405180910390a150506102d7565b5f5f5f9054906101000a900473ffffffffffffffffffffffffffffffffffffffff169050815f5f6101000a81548173ffffffffffffffffffffffffffffffffffffffff021916908373ffffffffffffffffffffffffffffffffffffffff1602179055508173ffffffffffffffffffffffffffffffffffffffff168173ffffffffffffffffffffffffffffffffffffffff167f8be0079c531659141344cd1fd0a4f28419497f9722a3daafe3b4186f6b6457e060405160405180910390a35050565b5f5ffd5b5f73ffffffffffffffffffffffffffffffffffffffff82169050919050565b5f6101e5826101bc565b9050919050565b6101f5816101db565b81146101ff575f5ffd5b50565b5f81519050610210816101ec565b92915050565b5f819050919050565b61022881610216565b8114610232575f5ffd5b50565b5f815190506102438161021f565b92915050565b5f5f6040838503121561025f5761025e6101b8565b5b5f61026c85828601610202565b925050602061027d85828601610235565b9150509250929050565b610290816101db565b82525050565b5f6020820190506102a95f830184610287565b92915050565b6102b881610216565b82525050565b5f6020820190506102d15f8301846102af565b92915050565b610a37806102e45f395ff3fe608060405234801561000f575f5ffd5b50600436106100a7575f3560e01c80638d2ea7721161006f5780638d2ea772146101295780638da5cb5b146101455780639d51d9b714610163578063bbcd5bbe1461017f578063e46638e61461019b578063f2fde38b146101cb576100a7565b806355a373d6146100ab5780635f8dead3146100c9578063715018a6146100e557806373ad468a146100ef5780638baf29b41461010d575b5f5ffd5b6100b36101e7565b6040516100c091906106c9565b60405180910390f35b6100e360048036038101906100de9190610743565b61020c565b005b6100ed610210565b005b6100f7610223565b6040516101049190610790565b60405180910390f35b610127600480360381019061012291906107a9565b610229565b005b610143600480360381019061013e9190610743565b61022e565b005b61014d610232565b60405161015a91906106c9565b60405180910390f35b61017d600480360381019061017891906107f9565b610259565b005b61019960048036038101906101949190610824565b6102a2565b005b6101b560048036038101906101b091906107a9565b61035b565b6040516101c29190610869565b60405180910390f35b6101e560048036038101906101e09190610824565b6104b7565b005b60025f9054906101000a900473ffffffffffffffffffffffffffffffffffffffff1681565b5050565b61021861053b565b6102215f6105c2565b565b60015481565b505050565b5050565b5f5f5f9054906101000a900473ffffffffffffffffffffffffffffffffffffffff16905090565b61026161053b565b806001819055507f82f9980487703d8db41f1ba63b2665566f7fb449fbc840a9e0c6ca932bed582c816040516102979190610790565b60405180910390a150565b6102aa61053b565b5f73ffffffffffffffffffffffffffffffffffffffff168173ffffffffffffffffffffffffffffffffffffffff1603610318576040517f08c379a000000000000000000000000000000000000000000000000000000000815260040161030f906108dc565b60405180910390fd5b8060025f6101000a81548173ffffffffffffffffffffffffffffffffffffffff021916908373ffffffffffffffffffffffffffffffffffffffff16021790555050565b5f5f5f60025f9054906101000a900473ffffffffffffffffffffffffffffffffffffffff1673ffffffffffffffffffffffffffffffffffffffff16856040516024016103a791906106c9565b6040516020818303038152906040527f70a08231000000000000000000000000000000000000000000000000000000007bffffffffffffffffffffffffffffffffffffffffffffffffffffffff19166020820180517bffffffffffffffffffffffffffffffffffffffffffffffffffffffff8381831617835250505050604051610431919061094c565b5f60405180830381855afa9150503d805f8114610469576040519150601f19603f3d011682016040523d82523d5f602084013e61046e565b606091505b509150915081610482575f925050506104b0565b5f818060200190518101906104979190610976565b905060015485826104a891906109ce565b111593505050505b9392505050565b6104bf61053b565b5f73ffffffffffffffffffffffffffffffffffffffff168173ffffffffffffffffffffffffffffffffffffffff160361052f575f6040517f1e4fbdf700000000000000000000000000000000000000000000000000000000815260040161052691906106c9565b60405180910390fd5b610538816105c2565b50565b610543610683565b73ffffffffffffffffffffffffffffffffffffffff16610561610232565b73ffffffffffffffffffffffffffffffffffffffff16146105c057610584610683565b6040517f118cdaa70000000000000000000000000000000000000000000000000000000081526004016105b791906106c9565b60405180910390fd5b565b5f5f5f9054906101000a900473ffffffffffffffffffffffffffffffffffffffff169050815f5f6101000a81548173ffffffffffffffffffffffffffffffffffffffff021916908373ffffffffffffffffffffffffffffffffffffffff1602179055508173ffffffffffffffffffffffffffffffffffffffff168173ffffffffffffffffffffffffffffffffffffffff167f8be0079c531659141344cd1fd0a4f28419497f9722a3daafe3b4186f6b6457e060405160405180910390a35050565b5f33905090565b5f73ffffffffffffffffffffffffffffffffffffffff82169050919050565b5f6106b38261068a565b9050919050565b6106c3816106a9565b82525050565b5f6020820190506106dc5f8301846106ba565b92915050565b5f5ffd5b6106ef816106a9565b81146106f9575f5ffd5b50565b5f8135905061070a816106e6565b92915050565b5f819050919050565b61072281610710565b811461072c575f5ffd5b50565b5f8135905061073d81610719565b92915050565b5f5f60408385031215610759576107586106e2565b5b5f610766858286016106fc565b92505060206107778582860161072f565b9150509250929050565b61078a81610710565b82525050565b5f6020820190506107a35f830184610781565b92915050565b5f5f5f606084860312156107c0576107bf6106e2565b5b5f6107cd868287016106fc565b93505060206107de868287016106fc565b92505060406107ef8682870161072f565b9150509250925092565b5f6020828403121561080e5761080d6106e2565b5b5f61081b8482850161072f565b91505092915050565b5f60208284031215610839576108386106e2565b5b5f610846848285016106fc565b91505092915050565b5f8115159050919050565b6108638161084f565b82525050565b5f60208201905061087c5f83018461085a565b92915050565b5f82825260208201905092915050565b7f496e76616c696420746f6b656e206164647265737300000000000000000000005f82015250565b5f6108c6601583610882565b91506108d182610892565b602082019050919050565b5f6020820190508181035f8301526108f3816108ba565b9050919050565b5f81519050919050565b5f81905092915050565b8281835e5f83830152505050565b5f610926826108fa565b6109308185610904565b935061094081856020860161090e565b80840191505092915050565b5f610957828461091c565b915081905092915050565b5f8151905061097081610719565b92915050565b5f6020828403121561098b5761098a6106e2565b5b5f61099884828501610962565b91505092915050565b7f4e487b71000000000000000000000000000000000000000000000000000000005f52601160045260245ffd5b5f6109d882610710565b91506109e383610710565b92508282019050808211156109fb576109fa6109a1565b5b9291505056fea2646970667358221220fa3049326a892f59c65bbb61bfdf88cdfb8a64b24339c732d346f7eaa69a47a264736f6c634300081e0033","linkReferences":{}},"methodIdentifiers":{"canTransfer(address,address,uint256)":"e46638e6","created(address,uint256)":"5f8dead3","destroyed(address,uint256)":"8d2ea772","maxBalance()":"73ad468a","owner()":"8da5cb5b","renounceOwnership()":"715018a6","setMaxBalance(uint256)":"9d51d9b7","setTokenContract(address)":"bbcd5bbe","tokenContract()":"55a373d6","transferOwnership(address)":"f2fde38b","transferred(address,address,uint256)":"8baf29b4"},"id":41}