{"abi":[{"type":"constructor","inputs":[],"stateMutability":"nonpayable"},{"type":"function","name":"addClaim","inputs":[{"name":"_topic","type":"uint256","internalType":"uint256"},{"name":"_scheme","type":"uint256","internalType":"uint256"},{"name":"_issuer","type":"address","internalType":"address"},{"name":"_signature","type":"bytes","internalType":"bytes"},{"name":"_data","type":"bytes","internalType":"bytes"},{"name":"_uri","type":"string","internalType":"string"}],"outputs":[{"name":"","type":"bytes32","internalType":"bytes32"}],"stateMutability":"nonpayable"},{"type":"function","name":"claimExists","inputs":[{"name":"_topic","type":"uint256","internalType":"uint256"},{"name":"_issuer","type":"address","internalType":"address"}],"outputs":[{"name":"","type":"bool","internalType":"bool"}],"stateMutability":"view"},{"type":"function","name":"getClaim","inputs":[{"name":"_topic","type":"uint256","internalType":"uint256"},{"name":"_issuer","type":"address","internalType":"address"}],"outputs":[{"name":"topic","type":"uint256","internalType":"uint256"},{"name":"scheme","type":"uint256","internalType":"uint256"},{"name":"issuer","type":"address","internalType":"address"},{"name":"signature","type":"bytes","internalType":"bytes"},{"name":"data","type":"bytes","internalType":"bytes"},{"name":"uri","type":"string","internalType":"string"}],"stateMutability":"view"},{"type":"function","name":"initialize","inputs":[{"name":"initialOwner","type":"address","internalType":"address"}],"outputs":[],"stateMutability":"nonpayable"},{"type":"function","name":"owner","inputs":[],"outputs":[{"name":"","type":"address","internalType":"address"}],"stateMutability":"view"},{"type":"function","name":"removeClaim","inputs":[{"name":"_topic","type":"uint256","internalType":"uint256"},{"name":"_issuer","type":"address","internalType":"address"}],"outputs":[{"name":"","type":"bool","internalType":"bool"}],"stateMutability":"nonpayable"},{"type":"function","name":"renounceOwnership","inputs":[],"outputs":[],"stateMutability":"nonpayable"},{"type":"function","name":"transferOwnership","inputs":[{"name":"newOwner","type":"address","internalType":"address"}],"outputs":[],"stateMutability":"nonpayable"},{"type":"event","name":"ClaimAdded","inputs":[{"name":"topic","type":"uint256","indexed":true,"internalType":"uint256"},{"name":"scheme","type":"uint256","indexed":false,"internalType":"uint256"},{"name":"issuer","type":"address","indexed":true,"internalType":"address"},{"name":"signature","type":"bytes","indexed":false,"internalType":"bytes"},{"name":"data","type":"bytes","indexed":false,"internalType":"bytes"},{"name":"uri","type":"string","indexed":false,"internalType":"string"}],"anonymous":false},{"type":"event","name":"ClaimRemoved","inputs":[{"name":"topic","type":"uint256","indexed":true,"internalType":"uint256"},{"name":"issuer","type":"address","indexed":true,"internalType":"address"}],"anonymous":false},{"type":"event","name":"Initialized","inputs":[{"name":"version","type":"uint64","indexed":false,"internalType":"uint64"}],"anonymous":false},{"type":"event","name":"OwnershipTransferred","inputs":[{"name":"previousOwner","type":"address","indexed":true,"internalType":"address"},{"name":"newOwner","type":"address","indexed":true,"internalType":"address"}],"anonymous":false},{"type":"error","name":"InvalidInitialization","inputs":[]},{"type":"error","name":"NotInitializing","inputs":[]},{"type":"error","name":"OwnableInvalidOwner","inputs":[{"name":"owner","type":"address","internalType":"address"}]},{"type":"error","name":"OwnableUnauthorizedAccount","inputs":[{"name":"account","type":"address","internalType":"address"}]}],"bytecode":{"object":"0x608060405234801561000f575f5ffd5b5061001e61002360201b60201c565b61019e565b5f61003261012160201b60201c565b9050805f0160089054906101000a900460ff161561007c576040517ff92ee8a900000000000000000000000000000000000000000000000000000000815260040160405180910390fd5b67ffffffffffffffff8016815f015f9054906101000a900467ffffffffffffffff1667ffffffffffffffff161461011e5767ffffffffffffffff815f015f6101000a81548167ffffffffffffffff021916908367ffffffffffffffff1602179055507fc7f505b2f371ae2175ee4913f4499e1f2633a7b5936321eed1cdaeb6115181d267ffffffffffffffff6040516101159190610185565b60405180910390a15b50565b5f5f61013161013a60201b60201c565b90508091505090565b5f7ff0c57e16840df040f15088dc2f81fe391c3923bec73e23a9662efc9c229c6a005f1b905090565b5f67ffffffffffffffff82169050919050565b61017f81610163565b82525050565b5f6020820190506101985f830184610176565b92915050565b6117ab806101ab5f395ff3fe608060405234801561000f575f5ffd5b5060043610610086575f3560e01c8063b1a34e0d11610059578063b1a34e0d14610117578063b381753614610147578063c4d66de814610177578063f2fde38b1461019357610086565b80632c30941f1461008a57806348e6b5a3146100ba578063715018a6146100ef5780638da5cb5b146100f9575b5f5ffd5b6100a4600480360381019061009f9190610de4565b6101af565b6040516100b19190610e3c565b60405180910390f35b6100d460048036038101906100cf9190610de4565b610255565b6040516100e696959493929190610f35565b60405180910390f35b6100f7610502565b005b610101610515565b60405161010e9190610fa9565b60405180910390f35b610131600480360381019061012c919061118c565b61054a565b60405161013e9190611281565b60405180910390f35b610161600480360381019061015c9190610de4565b6106ef565b60405161016e9190610e3c565b60405180910390f35b610191600480360381019061018c919061129a565b6107f4565b005b6101ad60048036038101906101a8919061129a565b610975565b005b5f5f73ffffffffffffffffffffffffffffffffffffffff165f5f8581526020019081526020015f205f8473ffffffffffffffffffffffffffffffffffffffff1673ffffffffffffffffffffffffffffffffffffffff1681526020019081526020015f206002015f9054906101000a900473ffffffffffffffffffffffffffffffffffffffff1673ffffffffffffffffffffffffffffffffffffffff161415905092915050565b5f5f5f60608060605f5f5f8a81526020019081526020015f205f8973ffffffffffffffffffffffffffffffffffffffff1673ffffffffffffffffffffffffffffffffffffffff1681526020019081526020015f206040518060c00160405290815f820154815260200160018201548152602001600282015f9054906101000a900473ffffffffffffffffffffffffffffffffffffffff1673ffffffffffffffffffffffffffffffffffffffff1673ffffffffffffffffffffffffffffffffffffffff16815260200160038201805461032c906112f2565b80601f0160208091040260200160405190810160405280929190818152602001828054610358906112f2565b80156103a35780601f1061037a576101008083540402835291602001916103a3565b820191905f5260205f20905b81548152906001019060200180831161038657829003601f168201915b505050505081526020016004820180546103bc906112f2565b80601f01602080910402602001604051908101604052809291908181526020018280546103e8906112f2565b80156104335780601f1061040a57610100808354040283529160200191610433565b820191905f5260205f20905b81548152906001019060200180831161041657829003601f168201915b5050505050815260200160058201805461044c906112f2565b80601f0160208091040260200160405190810160405280929190818152602001828054610478906112f2565b80156104c35780601f1061049a576101008083540402835291602001916104c3565b820191905f5260205f20905b8154815290600101906020018083116104a657829003601f168201915b5050505050815250509050805f015181602001518260400151836060015184608001518560a00151965096509650965096509650509295509295509295565b61050a6109f9565b6105135f610a80565b565b5f5f61051f610b51565b9050805f015f9054906101000a900473ffffffffffffffffffffffffffffffffffffffff1691505090565b5f6105536109f9565b6040518060c001604052808881526020018781526020018673ffffffffffffffffffffffffffffffffffffffff168152602001858152602001848152602001838152505f5f8981526020019081526020015f205f8773ffffffffffffffffffffffffffffffffffffffff1673ffffffffffffffffffffffffffffffffffffffff1681526020019081526020015f205f820151815f0155602082015181600101556040820151816002015f6101000a81548173ffffffffffffffffffffffffffffffffffffffff021916908373ffffffffffffffffffffffffffffffffffffffff160217905550606082015181600301908161064e91906114c2565b50608082015181600401908161066491906114c2565b5060a082015181600501908161067a91906115e9565b509050508473ffffffffffffffffffffffffffffffffffffffff16877ff825f7a35a4f682de4dcca232921f4c1e2a3d6e5832d851aa3402801f806d64b888787876040516106cb94939291906116b8565b60405180910390a35f855f528760205260405f209050809150509695505050505050565b5f6106f86109f9565b5f5f8481526020019081526020015f205f8373ffffffffffffffffffffffffffffffffffffffff1673ffffffffffffffffffffffffffffffffffffffff1681526020019081526020015f205f5f82015f9055600182015f9055600282015f6101000a81549073ffffffffffffffffffffffffffffffffffffffff0219169055600382015f6107869190610cb1565b600482015f6107959190610cb1565b600582015f6107a49190610cee565b50508173ffffffffffffffffffffffffffffffffffffffff16837faff9c51ec88c8ec057348e214050fe508139413df247c5a9af577965e967874760405160405180910390a36001905092915050565b5f6107fd610b78565b90505f815f0160089054906101000a900460ff161590505f825f015f9054906101000a900467ffffffffffffffff1690505f5f8267ffffffffffffffff161480156108455750825b90505f60018367ffffffffffffffff1614801561087857505f3073ffffffffffffffffffffffffffffffffffffffff163b145b905081158015610886575080155b156108bd576040517ff92ee8a900000000000000000000000000000000000000000000000000000000815260040160405180910390fd5b6001855f015f6101000a81548167ffffffffffffffff021916908367ffffffffffffffff160217905550831561090a576001855f0160086101000a81548160ff0219169083151502179055505b61091386610b8b565b831561096d575f855f0160086101000a81548160ff0219169083151502179055507fc7f505b2f371ae2175ee4913f4499e1f2633a7b5936321eed1cdaeb6115181d26001604051610964919061175c565b60405180910390a15b505050505050565b61097d6109f9565b5f73ffffffffffffffffffffffffffffffffffffffff168173ffffffffffffffffffffffffffffffffffffffff16036109ed575f6040517f1e4fbdf70000000000000000000000000000000000000000000000000000000081526004016109e49190610fa9565b60405180910390fd5b6109f681610a80565b50565b610a01610b9f565b73ffffffffffffffffffffffffffffffffffffffff16610a1f610515565b73ffffffffffffffffffffffffffffffffffffffff1614610a7e57610a42610b9f565b6040517f118cdaa7000000000000000000000000000000000000000000000000000000008152600401610a759190610fa9565b60405180910390fd5b565b5f610a89610b51565b90505f815f015f9054906101000a900473ffffffffffffffffffffffffffffffffffffffff16905082825f015f6101000a81548173ffffffffffffffffffffffffffffffffffffffff021916908373ffffffffffffffffffffffffffffffffffffffff1602179055508273ffffffffffffffffffffffffffffffffffffffff168173ffffffffffffffffffffffffffffffffffffffff167f8be0079c531659141344cd1fd0a4f28419497f9722a3daafe3b4186f6b6457e060405160405180910390a3505050565b5f7f9016d09d72d40fdae2fd8ceac6b6234c7706214fd39c1cd1e609a0528c199300905090565b5f5f610b82610ba6565b90508091505090565b610b93610bcf565b610b9c81610c0f565b50565b5f33905090565b5f7ff0c57e16840df040f15088dc2f81fe391c3923bec73e23a9662efc9c229c6a005f1b905090565b610bd7610c93565b610c0d576040517fd7e6bcf800000000000000000000000000000000000000000000000000000000815260040160405180910390fd5b565b610c17610bcf565b5f73ffffffffffffffffffffffffffffffffffffffff168173ffffffffffffffffffffffffffffffffffffffff1603610c87575f6040517f1e4fbdf7000000000000000000000000000000000000000000000000000000008152600401610c7e9190610fa9565b60405180910390fd5b610c9081610a80565b50565b5f610c9c610b78565b5f0160089054906101000a900460ff16905090565b508054610cbd906112f2565b5f825580601f10610cce5750610ceb565b601f0160209004905f5260205f2090810190610cea9190610d2b565b5b50565b508054610cfa906112f2565b5f825580601f10610d0b5750610d28565b601f0160209004905f5260205f2090810190610d279190610d2b565b5b50565b5b80821115610d42575f815f905550600101610d2c565b5090565b5f604051905090565b5f5ffd5b5f5ffd5b5f819050919050565b610d6981610d57565b8114610d73575f5ffd5b50565b5f81359050610d8481610d60565b92915050565b5f73ffffffffffffffffffffffffffffffffffffffff82169050919050565b5f610db382610d8a565b9050919050565b610dc381610da9565b8114610dcd575f5ffd5b50565b5f81359050610dde81610dba565b92915050565b5f5f60408385031215610dfa57610df9610d4f565b5b5f610e0785828601610d76565b9250506020610e1885828601610dd0565b9150509250929050565b5f8115159050919050565b610e3681610e22565b82525050565b5f602082019050610e4f5f830184610e2d565b92915050565b610e5e81610d57565b82525050565b610e6d81610da9565b82525050565b5f81519050919050565b5f82825260208201905092915050565b8281835e5f83830152505050565b5f601f19601f8301169050919050565b5f610eb582610e73565b610ebf8185610e7d565b9350610ecf818560208601610e8d565b610ed881610e9b565b840191505092915050565b5f81519050919050565b5f82825260208201905092915050565b5f610f0782610ee3565b610f118185610eed565b9350610f21818560208601610e8d565b610f2a81610e9b565b840191505092915050565b5f60c082019050610f485f830189610e55565b610f556020830188610e55565b610f626040830187610e64565b8181036060830152610f748186610eab565b90508181036080830152610f888185610eab565b905081810360a0830152610f9c8184610efd565b9050979650505050505050565b5f602082019050610fbc5f830184610e64565b92915050565b5f5ffd5b5f5ffd5b7f4e487b71000000000000000000000000000000000000000000000000000000005f52604160045260245ffd5b61100082610e9b565b810181811067ffffffffffffffff8211171561101f5761101e610fca565b5b80604052505050565b5f611031610d46565b905061103d8282610ff7565b919050565b5f67ffffffffffffffff82111561105c5761105b610fca565b5b61106582610e9b565b9050602081019050919050565b828183375f83830152505050565b5f61109261108d84611042565b611028565b9050828152602081018484840111156110ae576110ad610fc6565b5b6110b9848285611072565b509392505050565b5f82601f8301126110d5576110d4610fc2565b5b81356110e5848260208601611080565b91505092915050565b5f67ffffffffffffffff82111561110857611107610fca565b5b61111182610e9b565b9050602081019050919050565b5f61113061112b846110ee565b611028565b90508281526020810184848401111561114c5761114b610fc6565b5b611157848285611072565b509392505050565b5f82601f83011261117357611172610fc2565b5b813561118384826020860161111e565b91505092915050565b5f5f5f5f5f5f60c087890312156111a6576111a5610d4f565b5b5f6111b389828a01610d76565b96505060206111c489828a01610d76565b95505060406111d589828a01610dd0565b945050606087013567ffffffffffffffff8111156111f6576111f5610d53565b5b61120289828a016110c1565b935050608087013567ffffffffffffffff81111561122357611222610d53565b5b61122f89828a016110c1565b92505060a087013567ffffffffffffffff8111156112505761124f610d53565b5b61125c89828a0161115f565b9150509295509295509295565b5f819050919050565b61127b81611269565b82525050565b5f6020820190506112945f830184611272565b92915050565b5f602082840312156112af576112ae610d4f565b5b5f6112bc84828501610dd0565b91505092915050565b7f4e487b71000000000000000000000000000000000000000000000000000000005f52602260045260245ffd5b5f600282049050600182168061130957607f821691505b60208210810361131c5761131b6112c5565b5b50919050565b5f819050815f5260205f209050919050565b5f6020601f8301049050919050565b5f82821b905092915050565b5f6008830261137e7fffffffffffffffffffffffffffffffffffffffffffffffffffffffffffffffff82611343565b6113888683611343565b95508019841693508086168417925050509392505050565b5f819050919050565b5f6113c36113be6113b984610d57565b6113a0565b610d57565b9050919050565b5f819050919050565b6113dc836113a9565b6113f06113e8826113ca565b84845461134f565b825550505050565b5f5f905090565b6114076113f8565b6114128184846113d3565b505050565b5b818110156114355761142a5f826113ff565b600181019050611418565b5050565b601f82111561147a5761144b81611322565b61145484611334565b81016020851015611463578190505b61147761146f85611334565b830182611417565b50505b505050565b5f82821c905092915050565b5f61149a5f198460080261147f565b1980831691505092915050565b5f6114b2838361148b565b9150826002028217905092915050565b6114cb82610e73565b67ffffffffffffffff8111156114e4576114e3610fca565b5b6114ee82546112f2565b6114f9828285611439565b5f60209050601f83116001811461152a575f8415611518578287015190505b61152285826114a7565b865550611589565b601f19841661153886611322565b5f5b8281101561155f5784890151825560018201915060208501945060208101905061153a565b8683101561157c5784890151611578601f89168261148b565b8355505b6001600288020188555050505b505050505050565b5f819050815f5260205f209050919050565b601f8211156115e4576115b581611591565b6115be84611334565b810160208510156115cd578190505b6115e16115d985611334565b830182611417565b50505b505050565b6115f282610ee3565b67ffffffffffffffff81111561160b5761160a610fca565b5b61161582546112f2565b6116208282856115a3565b5f60209050601f831160018114611651575f841561163f578287015190505b61164985826114a7565b8655506116b0565b601f19841661165f86611591565b5f5b8281101561168657848901518255600182019150602085019450602081019050611661565b868310156116a3578489015161169f601f89168261148b565b8355505b6001600288020188555050505b505050505050565b5f6080820190506116cb5f830187610e55565b81810360208301526116dd8186610eab565b905081810360408301526116f18185610eab565b905081810360608301526117058184610efd565b905095945050505050565b5f819050919050565b5f67ffffffffffffffff82169050919050565b5f61174661174161173c84611710565b6113a0565b611719565b9050919050565b6117568161172c565b82525050565b5f60208201905061176f5f83018461174d565b9291505056fea26469706673582212208b2cf85955c892d56d764ebcb19e60b4f7f82862632bce873cd6a0eb5cc91c9964736f6c634300081e0033","linkReferences":{}},"methodIdentifiers":{"addClaim(uint256,uint256,address,bytes,bytes,string)":"b1a34e0d","claimExists(uint256,address)":"2c30941f","getClaim(uint256,address)":"48e6b5a3","initialize(address)":"c4d66de8","owner()":"8da5cb5b","removeClaim(uint256,address)":"b3817536","renounceOwnership()":"715018a6","transferOwnership(address)":"f2fde38b"},"id":31}