{"abi":[{"type":"constructor","inputs":[{"name":"initialOwner","type":"address","internalType":"address"},{"name":"_maxHolders","type":"uint256","internalType":"uint256"}],"stateMutability":"nonpayable"},{"type":"function","name":"canTransfer","inputs":[{"name":"","type":"address","internalType":"address"},{"name":"to","type":"address","internalType":"address"},{"name":"","type":"uint256","internalType":"uint256"}],"outputs":[{"name":"","type":"bool","internalType":"bool"}],"stateMutability":"view"},{"type":"function","name":"created","inputs":[{"name":"to","type":"address","internalType":"address"},{"name":"amount","type":"uint256","internalType":"uint256"}],"outputs":[],"stateMutability":"nonpayable"},{"type":"function","name":"destroyed","inputs":[{"name":"from","type":"address","internalType":"address"},{"name":"","type":"uint256","internalType":"uint256"}],"outputs":[],"stateMutability":"nonpayable"},{"type":"function","name":"getIsHolder","inputs":[{"name":"account","type":"address","internalType":"address"}],"outputs":[{"name":"","type":"bool","internalType":"bool"}],"stateMutability":"view"},{"type":"function","name":"holderCount","inputs":[],"outputs":[{"name":"","type":"uint256","internalType":"uint256"}],"stateMutability":"view"},{"type":"function","name":"maxHolders","inputs":[],"outputs":[{"name":"","type":"uint256","internalType":"uint256"}],"stateMutability":"view"},{"type":"function","name":"owner","inputs":[],"outputs":[{"name":"","type":"address","internalType":"address"}],"stateMutability":"view"},{"type":"function","name":"renounceOwnership","inputs":[],"outputs":[],"stateMutability":"nonpayable"},{"type":"function","name":"setMaxHolders","inputs":[{"name":"_maxHolders","type":"uint256","internalType":"uint256"}],"outputs":[],"stateMutability":"nonpayable"},{"type":"function","name":"setTokenContract","inputs":[{"name":"_token","type":"address","internalType":"address"}],"outputs":[],"stateMutability":"nonpayable"},{"type":"function","name":"tokenContract","inputs":[],"outputs":[{"name":"","type":"address","internalType":"address"}],"stateMutability":"view"},{"type":"function","name":"transferOwnership","inputs":[{"name":"newOwner","type":"address","internalType":"address"}],"outputs":[],"stateMutability":"nonpayable"},{"type":"function","name":"transferred","inputs":[{"name":"from","type":"address","internalType":"address"},{"name":"to","type":"address","internalType":"address"},{"name":"","type":"uint256","internalType":"uint256"}],"outputs":[],"stateMutability":"nonpayable"},{"type":"event","name":"HolderAdded","inputs":[{"name":"holder","type":"address","indexed":true,"internalType":"address"}],"anonymous":false},{"type":"event","name":"HolderRemoved","inputs":[{"name":"holder","type":"address","indexed":true,"internalType":"address"}],"anonymous":false},{"type":"event","name":"MaxHoldersSet","inputs":[{"name":"maxHolders","type":"uint256","indexed":false,"internalType":"uint256"}],"anonymous":false},{"type":"event","name":"OwnershipTransferred","inputs":[{"name":"previousOwner","type":"address","indexed":true,"internalType":"address"},{"name":"newOwner","type":"address","indexed":true,"internalType":"address"}],"anonymous":false},{"type":"error","name":"OwnableInvalidOwner","inputs":[{"name":"owner","type":"address","internalType":"address"}]},{"type":"error","name":"OwnableUnauthorizedAccount","inputs":[{"name":"account","type":"address","internalType":"address"}]}],"bytecode":{"object":"0x608060405234801561000f575f5ffd5b506040516117f83803806117f883398181016040528101906100319190610249565b815f73ffffffffffffffffffffffffffffffffffffffff168173ffffffffffffffffffffffffffffffffffffffff16036100a2575f6040517f1e4fbdf70000000000000000000000000000000000000000000000000000000081526004016100999190610296565b60405180910390fd5b6100b1816100f760201b60201c565b50806001819055507fd95f6c53e97f4296dd8ed1d779512e13c947410183d93ca8d54e5a913c205055816040516100e891906102be565b60405180910390a150506102d7565b5f5f5f9054906101000a900473ffffffffffffffffffffffffffffffffffffffff169050815f5f6101000a81548173ffffffffffffffffffffffffffffffffffffffff021916908373ffffffffffffffffffffffffffffffffffffffff1602179055508173ffffffffffffffffffffffffffffffffffffffff168173ffffffffffffffffffffffffffffffffffffffff167f8be0079c531659141344cd1fd0a4f28419497f9722a3daafe3b4186f6b6457e060405160405180910390a35050565b5f5ffd5b5f73ffffffffffffffffffffffffffffffffffffffff82169050919050565b5f6101e5826101bc565b9050919050565b6101f5816101db565b81146101ff575f5ffd5b50565b5f81519050610210816101ec565b92915050565b5f819050919050565b61022881610216565b8114610232575f5ffd5b50565b5f815190506102438161021f565b92915050565b5f5f6040838503121561025f5761025e6101b8565b5b5f61026c85828601610202565b925050602061027d85828601610235565b9150509250929050565b610290816101db565b82525050565b5f6020820190506102a95f830184610287565b92915050565b6102b881610216565b82525050565b5f6020820190506102d15f8301846102af565b92915050565b611514806102e45f395ff3fe608060405234801561000f575f5ffd5b50600436106100cd575f3560e01c80638baf29b41161008a5780638da5cb5b116100645780638da5cb5b146101d5578063bbcd5bbe146101f3578063e46638e61461020f578063f2fde38b1461023f576100cd565b80638baf29b41461017f5780638bf5c4ee1461019b5780638d2ea772146101b9576100cd565b80631aab9a9f146100d157806355a373d6146100ef5780635f8dead31461010d578063715018a6146101295780637580f41f146101335780638365066b14610163575b5f5ffd5b6100d961025b565b6040516100e6919061104e565b60405180910390f35b6100f7610261565b60405161010491906110a6565b60405180910390f35b61012760048036038101906101229190611117565b610286565b005b610131610424565b005b61014d60048036038101906101489190611155565b610437565b60405161015a919061119a565b60405180910390f35b61017d600480360381019061017891906111b3565b610489565b005b610199600480360381019061019491906111de565b610517565b005b6101a3610a31565b6040516101b0919061104e565b60405180910390f35b6101d360048036038101906101ce9190611117565b610a37565b005b6101dd610d0b565b6040516101ea91906110a6565b60405180910390f35b61020d60048036038101906102089190611155565b610d32565b005b610229600480360381019061022491906111de565b610deb565b604051610236919061119a565b60405180910390f35b61025960048036038101906102549190611155565b610e63565b005b60025481565b60035f9054906101000a900473ffffffffffffffffffffffffffffffffffffffff1681565b60035f9054906101000a900473ffffffffffffffffffffffffffffffffffffffff1673ffffffffffffffffffffffffffffffffffffffff163373ffffffffffffffffffffffffffffffffffffffff1614610315576040517f08c379a000000000000000000000000000000000000000000000000000000000815260040161030c90611288565b60405180910390fd5b60045f8373ffffffffffffffffffffffffffffffffffffffff1673ffffffffffffffffffffffffffffffffffffffff1681526020019081526020015f205f9054906101000a900460ff1615801561036b57505f81115b1561042057600160045f8473ffffffffffffffffffffffffffffffffffffffff1673ffffffffffffffffffffffffffffffffffffffff1681526020019081526020015f205f6101000a81548160ff02191690831515021790555060025f8154809291906103d7906112d3565b91905055508173ffffffffffffffffffffffffffffffffffffffff167f9894d458cf29e8bc4eb7e591bac54b31dc90125dfa852474419972ab4347dd1260405160405180910390a25b5050565b61042c610ee7565b6104355f610f6e565b565b5f60045f8373ffffffffffffffffffffffffffffffffffffffff1673ffffffffffffffffffffffffffffffffffffffff1681526020019081526020015f205f9054906101000a900460ff169050919050565b610491610ee7565b6002548110156104d6576040517f08c379a00000000000000000000000000000000000000000000000000000000081526004016104cd9061138a565b60405180910390fd5b806001819055507fd95f6c53e97f4296dd8ed1d779512e13c947410183d93ca8d54e5a913c2050558160405161050c919061104e565b60405180910390a150565b60035f9054906101000a900473ffffffffffffffffffffffffffffffffffffffff1673ffffffffffffffffffffffffffffffffffffffff163373ffffffffffffffffffffffffffffffffffffffff16146105a6576040517f08c379a000000000000000000000000000000000000000000000000000000000815260040161059d90611288565b60405180910390fd5b5f5f60035f9054906101000a900473ffffffffffffffffffffffffffffffffffffffff1673ffffffffffffffffffffffffffffffffffffffff16856040516024016105f191906110a6565b6040516020818303038152906040527f70a08231000000000000000000000000000000000000000000000000000000007bffffffffffffffffffffffffffffffffffffffffffffffffffffffff19166020820180517bffffffffffffffffffffffffffffffffffffffffffffffffffffffff838183161783525050505060405161067b91906113fa565b5f60405180830381855afa9150503d805f81146106b3576040519150601f19603f3d011682016040523d82523d5f602084013e6106b8565b606091505b50915091505f5f60035f9054906101000a900473ffffffffffffffffffffffffffffffffffffffff1673ffffffffffffffffffffffffffffffffffffffff168660405160240161070891906110a6565b6040516020818303038152906040527f70a08231000000000000000000000000000000000000000000000000000000007bffffffffffffffffffffffffffffffffffffffffffffffffffffffff19166020820180517bffffffffffffffffffffffffffffffffffffffffffffffffffffffff838183161783525050505060405161079291906113fa565b5f60405180830381855afa9150503d805f81146107ca576040519150601f19603f3d011682016040523d82523d5f602084013e6107cf565b606091505b50915091508380156107de5750815b15610a28575f838060200190518101906107f89190611424565b90505f8280602001905181019061080f9190611424565b90505f82148015610866575060045f8a73ffffffffffffffffffffffffffffffffffffffff1673ffffffffffffffffffffffffffffffffffffffff1681526020019081526020015f205f9054906101000a900460ff165b1561091a575f60045f8b73ffffffffffffffffffffffffffffffffffffffff1673ffffffffffffffffffffffffffffffffffffffff1681526020019081526020015f205f6101000a81548160ff02191690831515021790555060025f8154809291906108d19061144f565b91905055508873ffffffffffffffffffffffffffffffffffffffff167fd9bc583d1445615d8b795b7374f03ff79efa83b6359a91331efd95e4cf023ab660405160405180910390a25b5f81118015610970575060045f8973ffffffffffffffffffffffffffffffffffffffff1673ffffffffffffffffffffffffffffffffffffffff1681526020019081526020015f205f9054906101000a900460ff16155b15610a2557600160045f8a73ffffffffffffffffffffffffffffffffffffffff1673ffffffffffffffffffffffffffffffffffffffff1681526020019081526020015f205f6101000a81548160ff02191690831515021790555060025f8154809291906109dc906112d3565b91905055508773ffffffffffffffffffffffffffffffffffffffff167f9894d458cf29e8bc4eb7e591bac54b31dc90125dfa852474419972ab4347dd1260405160405180910390a25b50505b50505050505050565b60015481565b60035f9054906101000a900473ffffffffffffffffffffffffffffffffffffffff1673ffffffffffffffffffffffffffffffffffffffff163373ffffffffffffffffffffffffffffffffffffffff1614610ac6576040517f08c379a0000000000000000000000000000000000000000000000000000000008152600401610abd90611288565b60405180910390fd5b5f5f60035f9054906101000a900473ffffffffffffffffffffffffffffffffffffffff1673ffffffffffffffffffffffffffffffffffffffff1684604051602401610b1191906110a6565b6040516020818303038152906040527f70a08231000000000000000000000000000000000000000000000000000000007bffffffffffffffffffffffffffffffffffffffffffffffffffffffff19166020820180517bffffffffffffffffffffffffffffffffffffffffffffffffffffffff8381831617835250505050604051610b9b91906113fa565b5f60405180830381855afa9150503d805f8114610bd3576040519150601f19603f3d011682016040523d82523d5f602084013e610bd8565b606091505b50915091508115610d05575f81806020019051810190610bf89190611424565b90505f81148015610c4f575060045f8673ffffffffffffffffffffffffffffffffffffffff1673ffffffffffffffffffffffffffffffffffffffff1681526020019081526020015f205f9054906101000a900460ff165b15610d03575f60045f8773ffffffffffffffffffffffffffffffffffffffff1673ffffffffffffffffffffffffffffffffffffffff1681526020019081526020015f205f6101000a81548160ff02191690831515021790555060025f815480929190610cba9061144f565b91905055508473ffffffffffffffffffffffffffffffffffffffff167fd9bc583d1445615d8b795b7374f03ff79efa83b6359a91331efd95e4cf023ab660405160405180910390a25b505b50505050565b5f5f5f9054906101000a900473ffffffffffffffffffffffffffffffffffffffff16905090565b610d3a610ee7565b5f73ffffffffffffffffffffffffffffffffffffffff168173ffffffffffffffffffffffffffffffffffffffff1603610da8576040517f08c379a0000000000000000000000000000000000000000000000000000000008152600401610d9f906114c0565b60405180910390fd5b8060035f6101000a81548173ffffffffffffffffffffffffffffffffffffffff021916908373ffffffffffffffffffffffffffffffffffffffff16021790555050565b5f60045f8473ffffffffffffffffffffffffffffffffffffffff1673ffffffffffffffffffffffffffffffffffffffff1681526020019081526020015f205f9054906101000a900460ff1615610e445760019050610e5c565b60015460025410610e57575f9050610e5c565b600190505b9392505050565b610e6b610ee7565b5f73ffffffffffffffffffffffffffffffffffffffff168173ffffffffffffffffffffffffffffffffffffffff1603610edb575f6040517f1e4fbdf7000000000000000000000000000000000000000000000000000000008152600401610ed291906110a6565b60405180910390fd5b610ee481610f6e565b50565b610eef61102f565b73ffffffffffffffffffffffffffffffffffffffff16610f0d610d0b565b73ffffffffffffffffffffffffffffffffffffffff1614610f6c57610f3061102f565b6040517f118cdaa7000000000000000000000000000000000000000000000000000000008152600401610f6391906110a6565b60405180910390fd5b565b5f5f5f9054906101000a900473ffffffffffffffffffffffffffffffffffffffff169050815f5f6101000a81548173ffffffffffffffffffffffffffffffffffffffff021916908373ffffffffffffffffffffffffffffffffffffffff1602179055508173ffffffffffffffffffffffffffffffffffffffff168173ffffffffffffffffffffffffffffffffffffffff167f8be0079c531659141344cd1fd0a4f28419497f9722a3daafe3b4186f6b6457e060405160405180910390a35050565b5f33905090565b5f819050919050565b61104881611036565b82525050565b5f6020820190506110615f83018461103f565b92915050565b5f73ffffffffffffffffffffffffffffffffffffffff82169050919050565b5f61109082611067565b9050919050565b6110a081611086565b82525050565b5f6020820190506110b95f830184611097565b92915050565b5f5ffd5b6110cc81611086565b81146110d6575f5ffd5b50565b5f813590506110e7816110c3565b92915050565b6110f681611036565b8114611100575f5ffd5b50565b5f81359050611111816110ed565b92915050565b5f5f6040838503121561112d5761112c6110bf565b5b5f61113a858286016110d9565b925050602061114b85828601611103565b9150509250929050565b5f6020828403121561116a576111696110bf565b5b5f611177848285016110d9565b91505092915050565b5f8115159050919050565b61119481611180565b82525050565b5f6020820190506111ad5f83018461118b565b92915050565b5f602082840312156111c8576111c76110bf565b5b5f6111d584828501611103565b91505092915050565b5f5f5f606084860312156111f5576111f46110bf565b5b5f611202868287016110d9565b9350506020611213868287016110d9565b925050604061122486828701611103565b9150509250925092565b5f82825260208201905092915050565b7f4f6e6c7920746f6b656e20636f6e74726163742063616e2063616c6c000000005f82015250565b5f611272601c8361122e565b915061127d8261123e565b602082019050919050565b5f6020820190508181035f83015261129f81611266565b9050919050565b7f4e487b71000000000000000000000000000000000000000000000000000000005f52601160045260245ffd5b5f6112dd82611036565b91507fffffffffffffffffffffffffffffffffffffffffffffffffffffffffffffffff820361130f5761130e6112a6565b5b600182019050919050565b7f43616e6e6f74207365742062656c6f772063757272656e7420686f6c646572205f8201527f636f756e74000000000000000000000000000000000000000000000000000000602082015250565b5f61137460258361122e565b915061137f8261131a565b604082019050919050565b5f6020820190508181035f8301526113a181611368565b9050919050565b5f81519050919050565b5f81905092915050565b8281835e5f83830152505050565b5f6113d4826113a8565b6113de81856113b2565b93506113ee8185602086016113bc565b80840191505092915050565b5f61140582846113ca565b915081905092915050565b5f8151905061141e816110ed565b92915050565b5f60208284031215611439576114386110bf565b5b5f61144684828501611410565b91505092915050565b5f61145982611036565b91505f820361146b5761146a6112a6565b5b600182039050919050565b7f496e76616c696420746f6b656e206164647265737300000000000000000000005f82015250565b5f6114aa60158361122e565b91506114b582611476565b602082019050919050565b5f6020820190508181035f8301526114d78161149e565b905091905056fea2646970667358221220b87cacba92e3659717355dc5ece03a5acc748f25160631b018364143eebf025064736f6c634300081e0033","linkReferences":{}},"methodIdentifiers":{"canTransfer(address,address,uint256)":"e46638e6","created(address,uint256)":"5f8dead3","destroyed(address,uint256)":"8d2ea772","getIsHolder(address)":"7580f41f","holderCount()":"1aab9a9f","maxHolders()":"8bf5c4ee","owner()":"8da5cb5b","renounceOwnership()":"715018a6","setMaxHolders(uint256)":"8365066b","setTokenContract(address)":"bbcd5bbe","tokenContract()":"55a373d6","transferOwnership(address)":"f2fde38b","transferred(address,address,uint256)":"8baf29b4"},"id":42}