{"abi":[{"type":"constructor","inputs":[{"name":"initialOwner","type":"address","internalType":"address"},{"name":"_maxHolders","type":"uint256","internalType":"uint256"}],"stateMutability":"nonpayable"},{"type":"function","name":"addAuthorizedCaller","inputs":[{"name":"caller","type":"address","internalType":"address"}],"outputs":[],"stateMutability":"nonpayable"},{"type":"function","name":"authorizedCallers","inputs":[{"name":"","type":"address","internalType":"address"}],"outputs":[{"name":"","type":"bool","internalType":"bool"}],"stateMutability":"view"},{"type":"function","name":"canTransfer","inputs":[{"name":"","type":"address","internalType":"address"},{"name":"to","type":"address","internalType":"address"},{"name":"","type":"uint256","internalType":"uint256"}],"outputs":[{"name":"","type":"bool","internalType":"bool"}],"stateMutability":"view"},{"type":"function","name":"created","inputs":[{"name":"to","type":"address","internalType":"address"},{"name":"amount","type":"uint256","internalType":"uint256"}],"outputs":[],"stateMutability":"nonpayable"},{"type":"function","name":"destroyed","inputs":[{"name":"from","type":"address","internalType":"address"},{"name":"","type":"uint256","internalType":"uint256"}],"outputs":[],"stateMutability":"nonpayable"},{"type":"function","name":"getIsHolder","inputs":[{"name":"account","type":"address","internalType":"address"}],"outputs":[{"name":"","type":"bool","internalType":"bool"}],"stateMutability":"view"},{"type":"function","name":"holderCount","inputs":[],"outputs":[{"name":"","type":"uint256","internalType":"uint256"}],"stateMutability":"view"},{"type":"function","name":"maxHolders","inputs":[],"outputs":[{"name":"","type":"uint256","internalType":"uint256"}],"stateMutability":"view"},{"type":"function","name":"owner","inputs":[],"outputs":[{"name":"","type":"address","internalType":"address"}],"stateMutability":"view"},{"type":"function","name":"removeAuthorizedCaller","inputs":[{"name":"caller","type":"address","internalType":"address"}],"outputs":[],"stateMutability":"nonpayable"},{"type":"function","name":"renounceOwnership","inputs":[],"outputs":[],"stateMutability":"nonpayable"},{"type":"function","name":"setMaxHolders","inputs":[{"name":"_maxHolders","type":"uint256","internalType":"uint256"}],"outputs":[],"stateMutability":"nonpayable"},{"type":"function","name":"setTokenContract","inputs":[{"name":"_token","type":"address","internalType":"address"}],"outputs":[],"stateMutability":"nonpayable"},{"type":"function","name":"tokenContract","inputs":[],"outputs":[{"name":"","type":"address","internalType":"address"}],"stateMutability":"view"},{"type":"function","name":"transferOwnership","inputs":[{"name":"newOwner","type":"address","internalType":"address"}],"outputs":[],"stateMutability":"nonpayable"},{"type":"function","name":"transferred","inputs":[{"name":"from","type":"address","internalType":"address"},{"name":"to","type":"address","internalType":"address"},{"name":"","type":"uint256","internalType":"uint256"}],"outputs":[],"stateMutability":"nonpayable"},{"type":"event","name":"AuthorizedCallerAdded","inputs":[{"name":"caller","type":"address","indexed":true,"internalType":"address"}],"anonymous":false},{"type":"event","name":"AuthorizedCallerRemoved","inputs":[{"name":"caller","type":"address","indexed":true,"internalType":"address"}],"anonymous":false},{"type":"event","name":"HolderAdded","inputs":[{"name":"holder","type":"address","indexed":true,"internalType":"address"}],"anonymous":false},{"type":"event","name":"HolderRemoved","inputs":[{"name":"holder","type":"address","indexed":true,"internalType":"address"}],"anonymous":false},{"type":"event","name":"MaxHoldersSet","inputs":[{"name":"maxHolders","type":"uint256","indexed":false,"internalType":"uint256"}],"anonymous":false},{"type":"event","name":"OwnershipTransferred","inputs":[{"name":"previousOwner","type":"address","indexed":true,"internalType":"address"},{"name":"newOwner","type":"address","indexed":true,"internalType":"address"}],"anonymous":false},{"type":"error","name":"OwnableInvalidOwner","inputs":[{"name":"owner","type":"address","internalType":"address"}]},{"type":"error","name":"OwnableUnauthorizedAccount","inputs":[{"name":"account","type":"address","internalType":"address"}]}],"bytecode":{"object":"0x608060405234801561000f575f5ffd5b50604051611be2380380611be283398181016040528101906100319190610249565b815f73ffffffffffffffffffffffffffffffffffffffff168173ffffffffffffffffffffffffffffffffffffffff16036100a2575f6040517f1e4fbdf70000000000000000000000000000000000000000000000000000000081526004016100999190610296565b60405180910390fd5b6100b1816100f760201b60201c565b50806001819055507fd95f6c53e97f4296dd8ed1d779512e13c947410183d93ca8d54e5a913c205055816040516100e891906102be565b60405180910390a150506102d7565b5f5f5f9054906101000a900473ffffffffffffffffffffffffffffffffffffffff169050815f5f6101000a81548173ffffffffffffffffffffffffffffffffffffffff021916908373ffffffffffffffffffffffffffffffffffffffff1602179055508173ffffffffffffffffffffffffffffffffffffffff168173ffffffffffffffffffffffffffffffffffffffff167f8be0079c531659141344cd1fd0a4f28419497f9722a3daafe3b4186f6b6457e060405160405180910390a35050565b5f5ffd5b5f73ffffffffffffffffffffffffffffffffffffffff82169050919050565b5f6101e5826101bc565b9050919050565b6101f5816101db565b81146101ff575f5ffd5b50565b5f81519050610210816101ec565b92915050565b5f819050919050565b61022881610216565b8114610232575f5ffd5b50565b5f815190506102438161021f565b92915050565b5f5f6040838503121561025f5761025e6101b8565b5b5f61026c85828601610202565b925050602061027d85828601610235565b9150509250929050565b610290816101db565b82525050565b5f6020820190506102a95f830184610287565b92915050565b6102b881610216565b82525050565b5f6020820190506102d15f8301846102af565b92915050565b6118fe806102e45f395ff3fe608060405234801561000f575f5ffd5b50600436106100fe575f3560e01c80638baf29b411610095578063b7aa023111610064578063b7aa023114610270578063bbcd5bbe1461028c578063e46638e6146102a8578063f2fde38b146102d8576100fe565b80638baf29b4146101fc5780638bf5c4ee146102185780638d2ea772146102365780638da5cb5b14610252576100fe565b80635f8dead3116100d15780635f8dead31461018a578063715018a6146101a65780637580f41f146101b05780638365066b146101e0576100fe565b806313a155ea146101025780631aab9a9f1461011e578063536fff6c1461013c57806355a373d61461016c575b5f5ffd5b61011c600480360381019061011791906113f0565b6102f4565b005b610126610405565b6040516101339190611433565b60405180910390f35b610156600480360381019061015191906113f0565b61040b565b6040516101639190611466565b60405180910390f35b610174610428565b604051610181919061148e565b60405180910390f35b6101a4600480360381019061019f91906114d1565b61044d565b005b6101ae61063c565b005b6101ca60048036038101906101c591906113f0565b61064f565b6040516101d79190611466565b60405180910390f35b6101fa60048036038101906101f5919061150f565b6106a1565b005b6102166004803603810190610211919061153a565b61072f565b005b610220610c9a565b60405161022d9190611433565b60405180910390f35b610250600480360381019061024b91906114d1565b610ca0565b005b61025a610fc5565b604051610267919061148e565b60405180910390f35b61028a600480360381019061028591906113f0565b610fec565b005b6102a660048036038101906102a191906113f0565b61108e565b005b6102c260048036038101906102bd919061153a565b611147565b6040516102cf9190611466565b60405180910390f35b6102f260048036038101906102ed91906113f0565b6111bf565b005b6102fc611243565b5f73ffffffffffffffffffffffffffffffffffffffff168173ffffffffffffffffffffffffffffffffffffffff160361036a576040517f08c379a0000000000000000000000000000000000000000000000000000000008152600401610361906115e4565b60405180910390fd5b600160055f8373ffffffffffffffffffffffffffffffffffffffff1673ffffffffffffffffffffffffffffffffffffffff1681526020019081526020015f205f6101000a81548160ff0219169083151502179055508073ffffffffffffffffffffffffffffffffffffffff167feb1b9b92e50b7f88f9ff25d56765095ac6e91540eee214906f4036a908ffbdef60405160405180910390a250565b60025481565b6005602052805f5260405f205f915054906101000a900460ff1681565b60035f9054906101000a900473ffffffffffffffffffffffffffffffffffffffff1681565b60035f9054906101000a900473ffffffffffffffffffffffffffffffffffffffff1673ffffffffffffffffffffffffffffffffffffffff163373ffffffffffffffffffffffffffffffffffffffff1614806104ee575060055f3373ffffffffffffffffffffffffffffffffffffffff1673ffffffffffffffffffffffffffffffffffffffff1681526020019081526020015f205f9054906101000a900460ff165b61052d576040517f08c379a000000000000000000000000000000000000000000000000000000000815260040161052490611672565b60405180910390fd5b60045f8373ffffffffffffffffffffffffffffffffffffffff1673ffffffffffffffffffffffffffffffffffffffff1681526020019081526020015f205f9054906101000a900460ff1615801561058357505f81115b1561063857600160045f8473ffffffffffffffffffffffffffffffffffffffff1673ffffffffffffffffffffffffffffffffffffffff1681526020019081526020015f205f6101000a81548160ff02191690831515021790555060025f8154809291906105ef906116bd565b91905055508173ffffffffffffffffffffffffffffffffffffffff167f9894d458cf29e8bc4eb7e591bac54b31dc90125dfa852474419972ab4347dd1260405160405180910390a25b5050565b610644611243565b61064d5f6112ca565b565b5f60045f8373ffffffffffffffffffffffffffffffffffffffff1673ffffffffffffffffffffffffffffffffffffffff1681526020019081526020015f205f9054906101000a900460ff169050919050565b6106a9611243565b6002548110156106ee576040517f08c379a00000000000000000000000000000000000000000000000000000000081526004016106e590611774565b60405180910390fd5b806001819055507fd95f6c53e97f4296dd8ed1d779512e13c947410183d93ca8d54e5a913c205055816040516107249190611433565b60405180910390a150565b60035f9054906101000a900473ffffffffffffffffffffffffffffffffffffffff1673ffffffffffffffffffffffffffffffffffffffff163373ffffffffffffffffffffffffffffffffffffffff1614806107d0575060055f3373ffffffffffffffffffffffffffffffffffffffff1673ffffffffffffffffffffffffffffffffffffffff1681526020019081526020015f205f9054906101000a900460ff165b61080f576040517f08c379a000000000000000000000000000000000000000000000000000000000815260040161080690611672565b60405180910390fd5b5f5f60035f9054906101000a900473ffffffffffffffffffffffffffffffffffffffff1673ffffffffffffffffffffffffffffffffffffffff168560405160240161085a919061148e565b6040516020818303038152906040527f70a08231000000000000000000000000000000000000000000000000000000007bffffffffffffffffffffffffffffffffffffffffffffffffffffffff19166020820180517bffffffffffffffffffffffffffffffffffffffffffffffffffffffff83818316178352505050506040516108e491906117e4565b5f60405180830381855afa9150503d805f811461091c576040519150601f19603f3d011682016040523d82523d5f602084013e610921565b606091505b50915091505f5f60035f9054906101000a900473ffffffffffffffffffffffffffffffffffffffff1673ffffffffffffffffffffffffffffffffffffffff1686604051602401610971919061148e565b6040516020818303038152906040527f70a08231000000000000000000000000000000000000000000000000000000007bffffffffffffffffffffffffffffffffffffffffffffffffffffffff19166020820180517bffffffffffffffffffffffffffffffffffffffffffffffffffffffff83818316178352505050506040516109fb91906117e4565b5f60405180830381855afa9150503d805f8114610a33576040519150601f19603f3d011682016040523d82523d5f602084013e610a38565b606091505b5091509150838015610a475750815b15610c91575f83806020019051810190610a61919061180e565b90505f82806020019051810190610a78919061180e565b90505f82148015610acf575060045f8a73ffffffffffffffffffffffffffffffffffffffff1673ffffffffffffffffffffffffffffffffffffffff1681526020019081526020015f205f9054906101000a900460ff165b15610b83575f60045f8b73ffffffffffffffffffffffffffffffffffffffff1673ffffffffffffffffffffffffffffffffffffffff1681526020019081526020015f205f6101000a81548160ff02191690831515021790555060025f815480929190610b3a90611839565b91905055508873ffffffffffffffffffffffffffffffffffffffff167fd9bc583d1445615d8b795b7374f03ff79efa83b6359a91331efd95e4cf023ab660405160405180910390a25b5f81118015610bd9575060045f8973ffffffffffffffffffffffffffffffffffffffff1673ffffffffffffffffffffffffffffffffffffffff1681526020019081526020015f205f9054906101000a900460ff16155b15610c8e57600160045f8a73ffffffffffffffffffffffffffffffffffffffff1673ffffffffffffffffffffffffffffffffffffffff1681526020019081526020015f205f6101000a81548160ff02191690831515021790555060025f815480929190610c45906116bd565b91905055508773ffffffffffffffffffffffffffffffffffffffff167f9894d458cf29e8bc4eb7e591bac54b31dc90125dfa852474419972ab4347dd1260405160405180910390a25b50505b50505050505050565b60015481565b60035f9054906101000a900473ffffffffffffffffffffffffffffffffffffffff1673ffffffffffffffffffffffffffffffffffffffff163373ffffffffffffffffffffffffffffffffffffffff161480610d41575060055f3373ffffffffffffffffffffffffffffffffffffffff1673ffffffffffffffffffffffffffffffffffffffff1681526020019081526020015f205f9054906101000a900460ff165b610d80576040517f08c379a0000000000000000000000000000000000000000000000000000000008152600401610d7790611672565b60405180910390fd5b5f5f60035f9054906101000a900473ffffffffffffffffffffffffffffffffffffffff1673ffffffffffffffffffffffffffffffffffffffff1684604051602401610dcb919061148e565b6040516020818303038152906040527f70a08231000000000000000000000000000000000000000000000000000000007bffffffffffffffffffffffffffffffffffffffffffffffffffffffff19166020820180517bffffffffffffffffffffffffffffffffffffffffffffffffffffffff8381831617835250505050604051610e5591906117e4565b5f60405180830381855afa9150503d805f8114610e8d576040519150601f19603f3d011682016040523d82523d5f602084013e610e92565b606091505b50915091508115610fbf575f81806020019051810190610eb2919061180e565b90505f81148015610f09575060045f8673ffffffffffffffffffffffffffffffffffffffff1673ffffffffffffffffffffffffffffffffffffffff1681526020019081526020015f205f9054906101000a900460ff165b15610fbd575f60045f8773ffffffffffffffffffffffffffffffffffffffff1673ffffffffffffffffffffffffffffffffffffffff1681526020019081526020015f205f6101000a81548160ff02191690831515021790555060025f815480929190610f7490611839565b91905055508473ffffffffffffffffffffffffffffffffffffffff167fd9bc583d1445615d8b795b7374f03ff79efa83b6359a91331efd95e4cf023ab660405160405180910390a25b505b50505050565b5f5f5f9054906101000a900473ffffffffffffffffffffffffffffffffffffffff16905090565b610ff4611243565b5f60055f8373ffffffffffffffffffffffffffffffffffffffff1673ffffffffffffffffffffffffffffffffffffffff1681526020019081526020015f205f6101000a81548160ff0219169083151502179055508073ffffffffffffffffffffffffffffffffffffffff167fc3803387881faad271c47728894e3e36fac830ffc8602ca6fc07733cbda7758060405160405180910390a250565b611096611243565b5f73ffffffffffffffffffffffffffffffffffffffff168173ffffffffffffffffffffffffffffffffffffffff1603611104576040517f08c379a00000000000000000000000000000000000000000000000000000000081526004016110fb906118aa565b60405180910390fd5b8060035f6101000a81548173ffffffffffffffffffffffffffffffffffffffff021916908373ffffffffffffffffffffffffffffffffffffffff16021790555050565b5f60045f8473ffffffffffffffffffffffffffffffffffffffff1673ffffffffffffffffffffffffffffffffffffffff1681526020019081526020015f205f9054906101000a900460ff16156111a057600190506111b8565b600154600254106111b3575f90506111b8565b600190505b9392505050565b6111c7611243565b5f73ffffffffffffffffffffffffffffffffffffffff168173ffffffffffffffffffffffffffffffffffffffff1603611237575f6040517f1e4fbdf700000000000000000000000000000000000000000000000000000000815260040161122e919061148e565b60405180910390fd5b611240816112ca565b50565b61124b61138b565b73ffffffffffffffffffffffffffffffffffffffff16611269610fc5565b73ffffffffffffffffffffffffffffffffffffffff16146112c85761128c61138b565b6040517f118cdaa70000000000000000000000000000000000000000000000000000000081526004016112bf919061148e565b60405180910390fd5b565b5f5f5f9054906101000a900473ffffffffffffffffffffffffffffffffffffffff169050815f5f6101000a81548173ffffffffffffffffffffffffffffffffffffffff021916908373ffffffffffffffffffffffffffffffffffffffff1602179055508173ffffffffffffffffffffffffffffffffffffffff168173ffffffffffffffffffffffffffffffffffffffff167f8be0079c531659141344cd1fd0a4f28419497f9722a3daafe3b4186f6b6457e060405160405180910390a35050565b5f33905090565b5f5ffd5b5f73ffffffffffffffffffffffffffffffffffffffff82169050919050565b5f6113bf82611396565b9050919050565b6113cf816113b5565b81146113d9575f5ffd5b50565b5f813590506113ea816113c6565b92915050565b5f6020828403121561140557611404611392565b5b5f611412848285016113dc565b91505092915050565b5f819050919050565b61142d8161141b565b82525050565b5f6020820190506114465f830184611424565b92915050565b5f8115159050919050565b6114608161144c565b82525050565b5f6020820190506114795f830184611457565b92915050565b611488816113b5565b82525050565b5f6020820190506114a15f83018461147f565b92915050565b6114b08161141b565b81146114ba575f5ffd5b50565b5f813590506114cb816114a7565b92915050565b5f5f604083850312156114e7576114e6611392565b5b5f6114f4858286016113dc565b9250506020611505858286016114bd565b9150509250929050565b5f6020828403121561152457611523611392565b5b5f611531848285016114bd565b91505092915050565b5f5f5f6060848603121561155157611550611392565b5b5f61155e868287016113dc565b935050602061156f868287016113dc565b9250506040611580868287016114bd565b9150509250925092565b5f82825260208201905092915050565b7f496e76616c69642063616c6c65722061646472657373000000000000000000005f82015250565b5f6115ce60168361158a565b91506115d98261159a565b602082019050919050565b5f6020820190508181035f8301526115fb816115c2565b9050919050565b7f4f6e6c7920746f6b656e20636f6e7472616374206f7220617574686f72697a655f8201527f642063616c6c6572000000000000000000000000000000000000000000000000602082015250565b5f61165c60288361158a565b915061166782611602565b604082019050919050565b5f6020820190508181035f83015261168981611650565b9050919050565b7f4e487b71000000000000000000000000000000000000000000000000000000005f52601160045260245ffd5b5f6116c78261141b565b91507fffffffffffffffffffffffffffffffffffffffffffffffffffffffffffffffff82036116f9576116f8611690565b5b600182019050919050565b7f43616e6e6f74207365742062656c6f772063757272656e7420686f6c646572205f8201527f636f756e74000000000000000000000000000000000000000000000000000000602082015250565b5f61175e60258361158a565b915061176982611704565b604082019050919050565b5f6020820190508181035f83015261178b81611752565b9050919050565b5f81519050919050565b5f81905092915050565b8281835e5f83830152505050565b5f6117be82611792565b6117c8818561179c565b93506117d88185602086016117a6565b80840191505092915050565b5f6117ef82846117b4565b915081905092915050565b5f81519050611808816114a7565b92915050565b5f6020828403121561182357611822611392565b5b5f611830848285016117fa565b91505092915050565b5f6118438261141b565b91505f820361185557611854611690565b5b600182039050919050565b7f496e76616c696420746f6b656e206164647265737300000000000000000000005f82015250565b5f61189460158361158a565b915061189f82611860565b602082019050919050565b5f6020820190508181035f8301526118c181611888565b905091905056fea264697066735822122076e5704cfdcbcd3ae3d34f48c5034bb69e1f446a0a1af0588bc4f82676deb5d264736f6c634300081e0033","linkReferences":{}},"methodIdentifiers":{"addAuthorizedCaller(address)":"13a155ea","authorizedCallers(address)":"536fff6c","canTransfer(address,address,uint256)":"e46638e6","created(address,uint256)":"5f8dead3","destroyed(address,uint256)":"8d2ea772","getIsHolder(address)":"7580f41f","holderCount()":"1aab9a9f","maxHolders()":"8bf5c4ee","owner()":"8da5cb5b","removeAuthorizedCaller(address)":"b7aa0231","renounceOwnership()":"715018a6","setMaxHolders(uint256)":"8365066b","setTokenContract(address)":"bbcd5bbe","tokenContract()":"55a373d6","transferOwnership(address)":"f2fde38b","transferred(address,address,uint256)":"8baf29b4"},"id":38}