{"abi":[{"type":"constructor","inputs":[{"name":"initialOwner","type":"address","internalType":"address"},{"name":"_lockPeriod","type":"uint256","internalType":"uint256"}],"stateMutability":"nonpayable"},{"type":"function","name":"addAuthorizedCaller","inputs":[{"name":"caller","type":"address","internalType":"address"}],"outputs":[],"stateMutability":"nonpayable"},{"type":"function","name":"authorizedCallers","inputs":[{"name":"","type":"address","internalType":"address"}],"outputs":[{"name":"","type":"bool","internalType":"bool"}],"stateMutability":"view"},{"type":"function","name":"canTransfer","inputs":[{"name":"from","type":"address","internalType":"address"},{"name":"","type":"address","internalType":"address"},{"name":"","type":"uint256","internalType":"uint256"}],"outputs":[{"name":"","type":"bool","internalType":"bool"}],"stateMutability":"view"},{"type":"function","name":"created","inputs":[{"name":"to","type":"address","internalType":"address"},{"name":"","type":"uint256","internalType":"uint256"}],"outputs":[],"stateMutability":"nonpayable"},{"type":"function","name":"destroyed","inputs":[{"name":"","type":"address","internalType":"address"},{"name":"","type":"uint256","internalType":"uint256"}],"outputs":[],"stateMutability":"nonpayable"},{"type":"function","name":"getLockEndTime","inputs":[{"name":"account","type":"address","internalType":"address"}],"outputs":[{"name":"","type":"uint256","internalType":"uint256"}],"stateMutability":"view"},{"type":"function","name":"getRemainingLockTime","inputs":[{"name":"account","type":"address","internalType":"address"}],"outputs":[{"name":"","type":"uint256","internalType":"uint256"}],"stateMutability":"view"},{"type":"function","name":"isLocked","inputs":[{"name":"account","type":"address","internalType":"address"}],"outputs":[{"name":"","type":"bool","internalType":"bool"}],"stateMutability":"view"},{"type":"function","name":"lockPeriod","inputs":[],"outputs":[{"name":"","type":"uint256","internalType":"uint256"}],"stateMutability":"view"},{"type":"function","name":"owner","inputs":[],"outputs":[{"name":"","type":"address","internalType":"address"}],"stateMutability":"view"},{"type":"function","name":"removeAuthorizedCaller","inputs":[{"name":"caller","type":"address","internalType":"address"}],"outputs":[],"stateMutability":"nonpayable"},{"type":"function","name":"renounceOwnership","inputs":[],"outputs":[],"stateMutability":"nonpayable"},{"type":"function","name":"setLockPeriod","inputs":[{"name":"_lockPeriod","type":"uint256","internalType":"uint256"}],"outputs":[],"stateMutability":"nonpayable"},{"type":"function","name":"setTokenContract","inputs":[{"name":"_token","type":"address","internalType":"address"}],"outputs":[],"stateMutability":"nonpayable"},{"type":"function","name":"tokenContract","inputs":[],"outputs":[{"name":"","type":"address","internalType":"address"}],"stateMutability":"view"},{"type":"function","name":"transferOwnership","inputs":[{"name":"newOwner","type":"address","internalType":"address"}],"outputs":[],"stateMutability":"nonpayable"},{"type":"function","name":"transferred","inputs":[{"name":"","type":"address","internalType":"address"},{"name":"to","type":"address","internalType":"address"},{"name":"","type":"uint256","internalType":"uint256"}],"outputs":[],"stateMutability":"nonpayable"},{"type":"event","name":"AuthorizedCallerAdded","inputs":[{"name":"caller","type":"address","indexed":true,"internalType":"address"}],"anonymous":false},{"type":"event","name":"AuthorizedCallerRemoved","inputs":[{"name":"caller","type":"address","indexed":true,"internalType":"address"}],"anonymous":false},{"type":"event","name":"LockPeriodSet","inputs":[{"name":"lockPeriod","type":"uint256","indexed":false,"internalType":"uint256"}],"anonymous":false},{"type":"event","name":"OwnershipTransferred","inputs":[{"name":"previousOwner","type":"address","indexed":true,"internalType":"address"},{"name":"newOwner","type":"address","indexed":true,"internalType":"address"}],"anonymous":false},{"type":"event","name":"TransferLocked","inputs":[{"name":"account","type":"address","indexed":true,"internalType":"address"},{"name":"lockEndTime","type":"uint256","indexed":false,"internalType":"uint256"}],"anonymous":false},{"type":"error","name":"OwnableInvalidOwner","inputs":[{"name":"owner","type":"address","internalType":"address"}]},{"type":"error","name":"OwnableUnauthorizedAccount","inputs":[{"name":"account","type":"address","internalType":"address"}]}],"bytecode":{"object":"0x608060405234801561000f575f5ffd5b506040516114c63803806114c683398181016040528101906100319190610249565b815f73ffffffffffffffffffffffffffffffffffffffff168173ffffffffffffffffffffffffffffffffffffffff16036100a2575f6040517f1e4fbdf70000000000000000000000000000000000000000000000000000000081526004016100999190610296565b60405180910390fd5b6100b1816100f760201b60201c565b50806001819055507fd32a4cc27f52edbb5e071e05b29c1cdb120172bb012b7031894db8be82ad71fc816040516100e891906102be565b60405180910390a150506102d7565b5f5f5f9054906101000a900473ffffffffffffffffffffffffffffffffffffffff169050815f5f6101000a81548173ffffffffffffffffffffffffffffffffffffffff021916908373ffffffffffffffffffffffffffffffffffffffff1602179055508173ffffffffffffffffffffffffffffffffffffffff168173ffffffffffffffffffffffffffffffffffffffff167f8be0079c531659141344cd1fd0a4f28419497f9722a3daafe3b4186f6b6457e060405160405180910390a35050565b5f5ffd5b5f73ffffffffffffffffffffffffffffffffffffffff82169050919050565b5f6101e5826101bc565b9050919050565b6101f5816101db565b81146101ff575f5ffd5b50565b5f81519050610210816101ec565b92915050565b5f819050919050565b61022881610216565b8114610232575f5ffd5b50565b5f815190506102438161021f565b92915050565b5f5f6040838503121561025f5761025e6101b8565b5b5f61026c85828601610202565b925050602061027d85828601610235565b9150509250929050565b610290816101db565b82525050565b5f6020820190506102a95f830184610287565b92915050565b6102b881610216565b82525050565b5f6020820190506102d15f8301846102af565b92915050565b6111e2806102e45f395ff3fe608060405234801561000f575f5ffd5b5060043610610109575f3560e01c8063715018a6116100a05780638da5cb5b1161006f5780638da5cb5b1461029f578063b7aa0231146102bd578063bbcd5bbe146102d9578063e46638e6146102f5578063f2fde38b1461032557610109565b8063715018a614610241578063779972da1461024b5780638baf29b4146102675780638d2ea7721461028357610109565b80634c5ecdac116100dc5780634c5ecdac146101a7578063536fff6c146101d757806355a373d6146102075780635f8dead31461022557610109565b806313a155ea1461010d5780633fd8b02f1461012957806347304494146101475780634a4fbeec14610177575b5f5ffd5b61012760048036038101906101229190610e11565b610341565b005b610131610452565b60405161013e9190610e54565b60405180910390f35b610161600480360381019061015c9190610e11565b610458565b60405161016e9190610e54565b60405180910390f35b610191600480360381019061018c9190610e11565b6104f6565b60405161019e9190610e87565b60405180910390f35b6101c160048036038101906101bc9190610e11565b61053e565b6040516101ce9190610e54565b60405180910390f35b6101f160048036038101906101ec9190610e11565b610584565b6040516101fe9190610e87565b60405180910390f35b61020f6105a1565b60405161021c9190610eaf565b60405180910390f35b61023f600480360381019061023a9190610ef2565b6105c6565b005b61024961074c565b005b61026560048036038101906102609190610f30565b61075f565b005b610281600480360381019061027c9190610f5b565b6107a8565b005b61029d60048036038101906102989190610ef2565b61092f565b005b6102a7610a13565b6040516102b49190610eaf565b60405180910390f35b6102d760048036038101906102d29190610e11565b610a3a565b005b6102f360048036038101906102ee9190610e11565b610adc565b005b61030f600480360381019061030a9190610f5b565b610b95565b60405161031c9190610e87565b60405180910390f35b61033f600480360381019061033a9190610e11565b610be0565b005b610349610c64565b5f73ffffffffffffffffffffffffffffffffffffffff168173ffffffffffffffffffffffffffffffffffffffff16036103b7576040517f08c379a00000000000000000000000000000000000000000000000000000000081526004016103ae90611005565b60405180910390fd5b600160045f8373ffffffffffffffffffffffffffffffffffffffff1673ffffffffffffffffffffffffffffffffffffffff1681526020019081526020015f205f6101000a81548160ff0219169083151502179055508073ffffffffffffffffffffffffffffffffffffffff167feb1b9b92e50b7f88f9ff25d56765095ac6e91540eee214906f4036a908ffbdef60405160405180910390a250565b60015481565b5f60035f8373ffffffffffffffffffffffffffffffffffffffff1673ffffffffffffffffffffffffffffffffffffffff1681526020019081526020015f205442106104a5575f90506104f1565b4260035f8473ffffffffffffffffffffffffffffffffffffffff1673ffffffffffffffffffffffffffffffffffffffff1681526020019081526020015f20546104ee9190611050565b90505b919050565b5f60035f8373ffffffffffffffffffffffffffffffffffffffff1673ffffffffffffffffffffffffffffffffffffffff1681526020019081526020015f205442109050919050565b5f60035f8373ffffffffffffffffffffffffffffffffffffffff1673ffffffffffffffffffffffffffffffffffffffff1681526020019081526020015f20549050919050565b6004602052805f5260405f205f915054906101000a900460ff1681565b60025f9054906101000a900473ffffffffffffffffffffffffffffffffffffffff1681565b60025f9054906101000a900473ffffffffffffffffffffffffffffffffffffffff1673ffffffffffffffffffffffffffffffffffffffff163373ffffffffffffffffffffffffffffffffffffffff161480610667575060045f3373ffffffffffffffffffffffffffffffffffffffff1673ffffffffffffffffffffffffffffffffffffffff1681526020019081526020015f205f9054906101000a900460ff165b6106a6576040517f08c379a000000000000000000000000000000000000000000000000000000000815260040161069d906110f3565b60405180910390fd5b5f600154426106b59190611111565b90508060035f8573ffffffffffffffffffffffffffffffffffffffff1673ffffffffffffffffffffffffffffffffffffffff1681526020019081526020015f20819055508273ffffffffffffffffffffffffffffffffffffffff167fcc5e15e3dd1ef3bf2db5c3635e15ef67146dc6a841de760e0b5ae08c0f4d573a8260405161073f9190610e54565b60405180910390a2505050565b610754610c64565b61075d5f610ceb565b565b610767610c64565b806001819055507fd32a4cc27f52edbb5e071e05b29c1cdb120172bb012b7031894db8be82ad71fc8160405161079d9190610e54565b60405180910390a150565b60025f9054906101000a900473ffffffffffffffffffffffffffffffffffffffff1673ffffffffffffffffffffffffffffffffffffffff163373ffffffffffffffffffffffffffffffffffffffff161480610849575060045f3373ffffffffffffffffffffffffffffffffffffffff1673ffffffffffffffffffffffffffffffffffffffff1681526020019081526020015f205f9054906101000a900460ff165b610888576040517f08c379a000000000000000000000000000000000000000000000000000000000815260040161087f906110f3565b60405180910390fd5b5f600154426108979190611111565b90508060035f8573ffffffffffffffffffffffffffffffffffffffff1673ffffffffffffffffffffffffffffffffffffffff1681526020019081526020015f20819055508273ffffffffffffffffffffffffffffffffffffffff167fcc5e15e3dd1ef3bf2db5c3635e15ef67146dc6a841de760e0b5ae08c0f4d573a826040516109219190610e54565b60405180910390a250505050565b60025f9054906101000a900473ffffffffffffffffffffffffffffffffffffffff1673ffffffffffffffffffffffffffffffffffffffff163373ffffffffffffffffffffffffffffffffffffffff1614806109d0575060045f3373ffffffffffffffffffffffffffffffffffffffff1673ffffffffffffffffffffffffffffffffffffffff1681526020019081526020015f205f9054906101000a900460ff165b610a0f576040517f08c379a0000000000000000000000000000000000000000000000000000000008152600401610a06906110f3565b60405180910390fd5b5050565b5f5f5f9054906101000a900473ffffffffffffffffffffffffffffffffffffffff16905090565b610a42610c64565b5f60045f8373ffffffffffffffffffffffffffffffffffffffff1673ffffffffffffffffffffffffffffffffffffffff1681526020019081526020015f205f6101000a81548160ff0219169083151502179055508073ffffffffffffffffffffffffffffffffffffffff167fc3803387881faad271c47728894e3e36fac830ffc8602ca6fc07733cbda7758060405160405180910390a250565b610ae4610c64565b5f73ffffffffffffffffffffffffffffffffffffffff168173ffffffffffffffffffffffffffffffffffffffff1603610b52576040517f08c379a0000000000000000000000000000000000000000000000000000000008152600401610b499061118e565b60405180910390fd5b8060025f6101000a81548173ffffffffffffffffffffffffffffffffffffffff021916908373ffffffffffffffffffffffffffffffffffffffff16021790555050565b5f60035f8573ffffffffffffffffffffffffffffffffffffffff1673ffffffffffffffffffffffffffffffffffffffff1681526020019081526020015f205442101590509392505050565b610be8610c64565b5f73ffffffffffffffffffffffffffffffffffffffff168173ffffffffffffffffffffffffffffffffffffffff1603610c58575f6040517f1e4fbdf7000000000000000000000000000000000000000000000000000000008152600401610c4f9190610eaf565b60405180910390fd5b610c6181610ceb565b50565b610c6c610dac565b73ffffffffffffffffffffffffffffffffffffffff16610c8a610a13565b73ffffffffffffffffffffffffffffffffffffffff1614610ce957610cad610dac565b6040517f118cdaa7000000000000000000000000000000000000000000000000000000008152600401610ce09190610eaf565b60405180910390fd5b565b5f5f5f9054906101000a900473ffffffffffffffffffffffffffffffffffffffff169050815f5f6101000a81548173ffffffffffffffffffffffffffffffffffffffff021916908373ffffffffffffffffffffffffffffffffffffffff1602179055508173ffffffffffffffffffffffffffffffffffffffff168173ffffffffffffffffffffffffffffffffffffffff167f8be0079c531659141344cd1fd0a4f28419497f9722a3daafe3b4186f6b6457e060405160405180910390a35050565b5f33905090565b5f5ffd5b5f73ffffffffffffffffffffffffffffffffffffffff82169050919050565b5f610de082610db7565b9050919050565b610df081610dd6565b8114610dfa575f5ffd5b50565b5f81359050610e0b81610de7565b92915050565b5f60208284031215610e2657610e25610db3565b5b5f610e3384828501610dfd565b91505092915050565b5f819050919050565b610e4e81610e3c565b82525050565b5f602082019050610e675f830184610e45565b92915050565b5f8115159050919050565b610e8181610e6d565b82525050565b5f602082019050610e9a5f830184610e78565b92915050565b610ea981610dd6565b82525050565b5f602082019050610ec25f830184610ea0565b92915050565b610ed181610e3c565b8114610edb575f5ffd5b50565b5f81359050610eec81610ec8565b92915050565b5f5f60408385031215610f0857610f07610db3565b5b5f610f1585828601610dfd565b9250506020610f2685828601610ede565b9150509250929050565b5f60208284031215610f4557610f44610db3565b5b5f610f5284828501610ede565b91505092915050565b5f5f5f60608486031215610f7257610f71610db3565b5b5f610f7f86828701610dfd565b9350506020610f9086828701610dfd565b9250506040610fa186828701610ede565b9150509250925092565b5f82825260208201905092915050565b7f496e76616c69642063616c6c65722061646472657373000000000000000000005f82015250565b5f610fef601683610fab565b9150610ffa82610fbb565b602082019050919050565b5f6020820190508181035f83015261101c81610fe3565b9050919050565b7f4e487b71000000000000000000000000000000000000000000000000000000005f52601160045260245ffd5b5f61105a82610e3c565b915061106583610e3c565b925082820390508181111561107d5761107c611023565b5b92915050565b7f4f6e6c7920746f6b656e20636f6e7472616374206f7220617574686f72697a655f8201527f642063616c6c6572000000000000000000000000000000000000000000000000602082015250565b5f6110dd602883610fab565b91506110e882611083565b604082019050919050565b5f6020820190508181035f83015261110a816110d1565b9050919050565b5f61111b82610e3c565b915061112683610e3c565b925082820190508082111561113e5761113d611023565b5b92915050565b7f496e76616c696420746f6b656e206164647265737300000000000000000000005f82015250565b5f611178601583610fab565b915061118382611144565b602082019050919050565b5f6020820190508181035f8301526111a58161116c565b905091905056fea264697066735822122074a71065f61d6d4d4b63d64895cb8e2c6786cbe9bd62bd0014166048916ecde864736f6c634300081e0033","linkReferences":{}},"methodIdentifiers":{"addAuthorizedCaller(address)":"13a155ea","authorizedCallers(address)":"536fff6c","canTransfer(address,address,uint256)":"e46638e6","created(address,uint256)":"5f8dead3","destroyed(address,uint256)":"8d2ea772","getLockEndTime(address)":"4c5ecdac","getRemainingLockTime(address)":"47304494","isLocked(address)":"4a4fbeec","lockPeriod()":"3fd8b02f","owner()":"8da5cb5b","removeAuthorizedCaller(address)":"b7aa0231","renounceOwnership()":"715018a6","setLockPeriod(uint256)":"779972da","setTokenContract(address)":"bbcd5bbe","tokenContract()":"55a373d6","transferOwnership(address)":"f2fde38b","transferred(address,address,uint256)":"8baf29b4"},"id":39}