{"abi":[{"type":"constructor","inputs":[{"name":"initialOwner","type":"address","internalType":"address"},{"name":"_lockPeriod","type":"uint256","internalType":"uint256"}],"stateMutability":"nonpayable"},{"type":"function","name":"canTransfer","inputs":[{"name":"from","type":"address","internalType":"address"},{"name":"","type":"address","internalType":"address"},{"name":"","type":"uint256","internalType":"uint256"}],"outputs":[{"name":"","type":"bool","internalType":"bool"}],"stateMutability":"view"},{"type":"function","name":"created","inputs":[{"name":"to","type":"address","internalType":"address"},{"name":"","type":"uint256","internalType":"uint256"}],"outputs":[],"stateMutability":"nonpayable"},{"type":"function","name":"destroyed","inputs":[{"name":"","type":"address","internalType":"address"},{"name":"","type":"uint256","internalType":"uint256"}],"outputs":[],"stateMutability":"nonpayable"},{"type":"function","name":"getLockEndTime","inputs":[{"name":"account","type":"address","internalType":"address"}],"outputs":[{"name":"","type":"uint256","internalType":"uint256"}],"stateMutability":"view"},{"type":"function","name":"getRemainingLockTime","inputs":[{"name":"account","type":"address","internalType":"address"}],"outputs":[{"name":"","type":"uint256","internalType":"uint256"}],"stateMutability":"view"},{"type":"function","name":"isLocked","inputs":[{"name":"account","type":"address","internalType":"address"}],"outputs":[{"name":"","type":"bool","internalType":"bool"}],"stateMutability":"view"},{"type":"function","name":"lockPeriod","inputs":[],"outputs":[{"name":"","type":"uint256","internalType":"uint256"}],"stateMutability":"view"},{"type":"function","name":"owner","inputs":[],"outputs":[{"name":"","type":"address","internalType":"address"}],"stateMutability":"view"},{"type":"function","name":"renounceOwnership","inputs":[],"outputs":[],"stateMutability":"nonpayable"},{"type":"function","name":"setLockPeriod","inputs":[{"name":"_lockPeriod","type":"uint256","internalType":"uint256"}],"outputs":[],"stateMutability":"nonpayable"},{"type":"function","name":"setTokenContract","inputs":[{"name":"_token","type":"address","internalType":"address"}],"outputs":[],"stateMutability":"nonpayable"},{"type":"function","name":"tokenContract","inputs":[],"outputs":[{"name":"","type":"address","internalType":"address"}],"stateMutability":"view"},{"type":"function","name":"transferOwnership","inputs":[{"name":"newOwner","type":"address","internalType":"address"}],"outputs":[],"stateMutability":"nonpayable"},{"type":"function","name":"transferred","inputs":[{"name":"","type":"address","internalType":"address"},{"name":"to","type":"address","internalType":"address"},{"name":"","type":"uint256","internalType":"uint256"}],"outputs":[],"stateMutability":"nonpayable"},{"type":"event","name":"LockPeriodSet","inputs":[{"name":"lockPeriod","type":"uint256","indexed":false,"internalType":"uint256"}],"anonymous":false},{"type":"event","name":"OwnershipTransferred","inputs":[{"name":"previousOwner","type":"address","indexed":true,"internalType":"address"},{"name":"newOwner","type":"address","indexed":true,"internalType":"address"}],"anonymous":false},{"type":"event","name":"TransferLocked","inputs":[{"name":"account","type":"address","indexed":true,"internalType":"address"},{"name":"lockEndTime","type":"uint256","indexed":false,"internalType":"uint256"}],"anonymous":false},{"type":"error","name":"OwnableInvalidOwner","inputs":[{"name":"owner","type":"address","internalType":"address"}]},{"type":"error","name":"OwnableUnauthorizedAccount","inputs":[{"name":"account","type":"address","internalType":"address"}]}],"bytecode":{"object":"0x608060405234801561000f575f5ffd5b506040516110ec3803806110ec83398181016040528101906100319190610249565b815f73ffffffffffffffffffffffffffffffffffffffff168173ffffffffffffffffffffffffffffffffffffffff16036100a2575f6040517f1e4fbdf70000000000000000000000000000000000000000000000000000000081526004016100999190610296565b60405180910390fd5b6100b1816100f760201b60201c565b50806001819055507fd32a4cc27f52edbb5e071e05b29c1cdb120172bb012b7031894db8be82ad71fc816040516100e891906102be565b60405180910390a150506102d7565b5f5f5f9054906101000a900473ffffffffffffffffffffffffffffffffffffffff169050815f5f6101000a81548173ffffffffffffffffffffffffffffffffffffffff021916908373ffffffffffffffffffffffffffffffffffffffff1602179055508173ffffffffffffffffffffffffffffffffffffffff168173ffffffffffffffffffffffffffffffffffffffff167f8be0079c531659141344cd1fd0a4f28419497f9722a3daafe3b4186f6b6457e060405160405180910390a35050565b5f5ffd5b5f73ffffffffffffffffffffffffffffffffffffffff82169050919050565b5f6101e5826101bc565b9050919050565b6101f5816101db565b81146101ff575f5ffd5b50565b5f81519050610210816101ec565b92915050565b5f819050919050565b61022881610216565b8114610232575f5ffd5b50565b5f815190506102438161021f565b92915050565b5f5f6040838503121561025f5761025e6101b8565b5b5f61026c85828601610202565b925050602061027d85828601610235565b9150509250929050565b610290816101db565b82525050565b5f6020820190506102a95f830184610287565b92915050565b6102b881610216565b82525050565b5f6020820190506102d15f8301846102af565b92915050565b610e08806102e45f395ff3fe608060405234801561000f575f5ffd5b50600436106100e8575f3560e01c8063779972da1161008a5780638da5cb5b116100645780638da5cb5b14610232578063bbcd5bbe14610250578063e46638e61461026c578063f2fde38b1461029c576100e8565b8063779972da146101de5780638baf29b4146101fa5780638d2ea77214610216576100e8565b80634c5ecdac116100c65780634c5ecdac1461016a57806355a373d61461019a5780635f8dead3146101b8578063715018a6146101d4576100e8565b80633fd8b02f146100ec578063473044941461010a5780634a4fbeec1461013a575b5f5ffd5b6100f46102b8565b6040516101019190610a7f565b60405180910390f35b610124600480360381019061011f9190610af6565b6102be565b6040516101319190610a7f565b60405180910390f35b610154600480360381019061014f9190610af6565b61035c565b6040516101619190610b3b565b60405180910390f35b610184600480360381019061017f9190610af6565b6103a4565b6040516101919190610a7f565b60405180910390f35b6101a26103ea565b6040516101af9190610b63565b60405180910390f35b6101d260048036038101906101cd9190610ba6565b61040f565b005b6101dc610544565b005b6101f860048036038101906101f39190610be4565b610557565b005b610214600480360381019061020f9190610c0f565b6105a0565b005b610230600480360381019061022b9190610ba6565b6106d6565b005b61023a610769565b6040516102479190610b63565b60405180910390f35b61026a60048036038101906102659190610af6565b610790565b005b61028660048036038101906102819190610c0f565b610849565b6040516102939190610b3b565b60405180910390f35b6102b660048036038101906102b19190610af6565b610894565b005b60015481565b5f60035f8373ffffffffffffffffffffffffffffffffffffffff1673ffffffffffffffffffffffffffffffffffffffff1681526020019081526020015f2054421061030b575f9050610357565b4260035f8473ffffffffffffffffffffffffffffffffffffffff1673ffffffffffffffffffffffffffffffffffffffff1681526020019081526020015f20546103549190610c8c565b90505b919050565b5f60035f8373ffffffffffffffffffffffffffffffffffffffff1673ffffffffffffffffffffffffffffffffffffffff1681526020019081526020015f205442109050919050565b5f60035f8373ffffffffffffffffffffffffffffffffffffffff1673ffffffffffffffffffffffffffffffffffffffff1681526020019081526020015f20549050919050565b60025f9054906101000a900473ffffffffffffffffffffffffffffffffffffffff1681565b60025f9054906101000a900473ffffffffffffffffffffffffffffffffffffffff1673ffffffffffffffffffffffffffffffffffffffff163373ffffffffffffffffffffffffffffffffffffffff161461049e576040517f08c379a000000000000000000000000000000000000000000000000000000000815260040161049590610d19565b60405180910390fd5b5f600154426104ad9190610d37565b90508060035f8573ffffffffffffffffffffffffffffffffffffffff1673ffffffffffffffffffffffffffffffffffffffff1681526020019081526020015f20819055508273ffffffffffffffffffffffffffffffffffffffff167fcc5e15e3dd1ef3bf2db5c3635e15ef67146dc6a841de760e0b5ae08c0f4d573a826040516105379190610a7f565b60405180910390a2505050565b61054c610918565b6105555f61099f565b565b61055f610918565b806001819055507fd32a4cc27f52edbb5e071e05b29c1cdb120172bb012b7031894db8be82ad71fc816040516105959190610a7f565b60405180910390a150565b60025f9054906101000a900473ffffffffffffffffffffffffffffffffffffffff1673ffffffffffffffffffffffffffffffffffffffff163373ffffffffffffffffffffffffffffffffffffffff161461062f576040517f08c379a000000000000000000000000000000000000000000000000000000000815260040161062690610d19565b60405180910390fd5b5f6001544261063e9190610d37565b90508060035f8573ffffffffffffffffffffffffffffffffffffffff1673ffffffffffffffffffffffffffffffffffffffff1681526020019081526020015f20819055508273ffffffffffffffffffffffffffffffffffffffff167fcc5e15e3dd1ef3bf2db5c3635e15ef67146dc6a841de760e0b5ae08c0f4d573a826040516106c89190610a7f565b60405180910390a250505050565b60025f9054906101000a900473ffffffffffffffffffffffffffffffffffffffff1673ffffffffffffffffffffffffffffffffffffffff163373ffffffffffffffffffffffffffffffffffffffff1614610765576040517f08c379a000000000000000000000000000000000000000000000000000000000815260040161075c90610d19565b60405180910390fd5b5050565b5f5f5f9054906101000a900473ffffffffffffffffffffffffffffffffffffffff16905090565b610798610918565b5f73ffffffffffffffffffffffffffffffffffffffff168173ffffffffffffffffffffffffffffffffffffffff1603610806576040517f08c379a00000000000000000000000000000000000000000000000000000000081526004016107fd90610db4565b60405180910390fd5b8060025f6101000a81548173ffffffffffffffffffffffffffffffffffffffff021916908373ffffffffffffffffffffffffffffffffffffffff16021790555050565b5f60035f8573ffffffffffffffffffffffffffffffffffffffff1673ffffffffffffffffffffffffffffffffffffffff1681526020019081526020015f205442101590509392505050565b61089c610918565b5f73ffffffffffffffffffffffffffffffffffffffff168173ffffffffffffffffffffffffffffffffffffffff160361090c575f6040517f1e4fbdf70000000000000000000000000000000000000000000000000000000081526004016109039190610b63565b60405180910390fd5b6109158161099f565b50565b610920610a60565b73ffffffffffffffffffffffffffffffffffffffff1661093e610769565b73ffffffffffffffffffffffffffffffffffffffff161461099d57610961610a60565b6040517f118cdaa70000000000000000000000000000000000000000000000000000000081526004016109949190610b63565b60405180910390fd5b565b5f5f5f9054906101000a900473ffffffffffffffffffffffffffffffffffffffff169050815f5f6101000a81548173ffffffffffffffffffffffffffffffffffffffff021916908373ffffffffffffffffffffffffffffffffffffffff1602179055508173ffffffffffffffffffffffffffffffffffffffff168173ffffffffffffffffffffffffffffffffffffffff167f8be0079c531659141344cd1fd0a4f28419497f9722a3daafe3b4186f6b6457e060405160405180910390a35050565b5f33905090565b5f819050919050565b610a7981610a67565b82525050565b5f602082019050610a925f830184610a70565b92915050565b5f5ffd5b5f73ffffffffffffffffffffffffffffffffffffffff82169050919050565b5f610ac582610a9c565b9050919050565b610ad581610abb565b8114610adf575f5ffd5b50565b5f81359050610af081610acc565b92915050565b5f60208284031215610b0b57610b0a610a98565b5b5f610b1884828501610ae2565b91505092915050565b5f8115159050919050565b610b3581610b21565b82525050565b5f602082019050610b4e5f830184610b2c565b92915050565b610b5d81610abb565b82525050565b5f602082019050610b765f830184610b54565b92915050565b610b8581610a67565b8114610b8f575f5ffd5b50565b5f81359050610ba081610b7c565b92915050565b5f5f60408385031215610bbc57610bbb610a98565b5b5f610bc985828601610ae2565b9250506020610bda85828601610b92565b9150509250929050565b5f60208284031215610bf957610bf8610a98565b5b5f610c0684828501610b92565b91505092915050565b5f5f5f60608486031215610c2657610c25610a98565b5b5f610c3386828701610ae2565b9350506020610c4486828701610ae2565b9250506040610c5586828701610b92565b9150509250925092565b7f4e487b71000000000000000000000000000000000000000000000000000000005f52601160045260245ffd5b5f610c9682610a67565b9150610ca183610a67565b9250828203905081811115610cb957610cb8610c5f565b5b92915050565b5f82825260208201905092915050565b7f4f6e6c7920746f6b656e20636f6e74726163742063616e2063616c6c000000005f82015250565b5f610d03601c83610cbf565b9150610d0e82610ccf565b602082019050919050565b5f6020820190508181035f830152610d3081610cf7565b9050919050565b5f610d4182610a67565b9150610d4c83610a67565b9250828201905080821115610d6457610d63610c5f565b5b92915050565b7f496e76616c696420746f6b656e206164647265737300000000000000000000005f82015250565b5f610d9e601583610cbf565b9150610da982610d6a565b602082019050919050565b5f6020820190508181035f830152610dcb81610d92565b905091905056fea26469706673582212203cd30a85ec1736bb9e3b72099b1023c877c3da2c3195f9272fe12a92e5da576864736f6c634300081e0033","linkReferences":{}},"methodIdentifiers":{"canTransfer(address,address,uint256)":"e46638e6","created(address,uint256)":"5f8dead3","destroyed(address,uint256)":"8d2ea772","getLockEndTime(address)":"4c5ecdac","getRemainingLockTime(address)":"47304494","isLocked(address)":"4a4fbeec","lockPeriod()":"3fd8b02f","owner()":"8da5cb5b","renounceOwnership()":"715018a6","setLockPeriod(uint256)":"779972da","setTokenContract(address)":"bbcd5bbe","tokenContract()":"55a373d6","transferOwnership(address)":"f2fde38b","transferred(address,address,uint256)":"8baf29b4"},"id":43}