{"abi":[{"type":"constructor","inputs":[{"name":"initialOwner","type":"address","internalType":"address"}],"stateMutability":"nonpayable"},{"type":"function","name":"getIdentity","inputs":[{"name":"_wallet","type":"address","internalType":"address"}],"outputs":[{"name":"","type":"address","internalType":"address"}],"stateMutability":"view"},{"type":"function","name":"getRegisteredAddress","inputs":[{"name":"index","type":"uint256","internalType":"uint256"}],"outputs":[{"name":"","type":"address","internalType":"address"}],"stateMutability":"view"},{"type":"function","name":"getRegisteredCount","inputs":[],"outputs":[{"name":"","type":"uint256","internalType":"uint256"}],"stateMutability":"view"},{"type":"function","name":"isRegistered","inputs":[{"name":"_wallet","type":"address","internalType":"address"}],"outputs":[{"name":"","type":"bool","internalType":"bool"}],"stateMutability":"view"},{"type":"function","name":"owner","inputs":[],"outputs":[{"name":"","type":"address","internalType":"address"}],"stateMutability":"view"},{"type":"function","name":"registerIdentity","inputs":[{"name":"_wallet","type":"address","internalType":"address"},{"name":"_identity","type":"address","internalType":"address"}],"outputs":[],"stateMutability":"nonpayable"},{"type":"function","name":"removeIdentity","inputs":[{"name":"_wallet","type":"address","internalType":"address"}],"outputs":[],"stateMutability":"nonpayable"},{"type":"function","name":"renounceOwnership","inputs":[],"outputs":[],"stateMutability":"nonpayable"},{"type":"function","name":"transferOwnership","inputs":[{"name":"newOwner","type":"address","internalType":"address"}],"outputs":[],"stateMutability":"nonpayable"},{"type":"function","name":"updateIdentity","inputs":[{"name":"_wallet","type":"address","internalType":"address"},{"name":"_identity","type":"address","internalType":"address"}],"outputs":[],"stateMutability":"nonpayable"},{"type":"event","name":"IdentityRegistered","inputs":[{"name":"wallet","type":"address","indexed":true,"internalType":"address"},{"name":"identity","type":"address","indexed":true,"internalType":"address"}],"anonymous":false},{"type":"event","name":"IdentityRemoved","inputs":[{"name":"wallet","type":"address","indexed":true,"internalType":"address"},{"name":"identity","type":"address","indexed":true,"internalType":"address"}],"anonymous":false},{"type":"event","name":"IdentityUpdated","inputs":[{"name":"wallet","type":"address","indexed":true,"internalType":"address"},{"name":"oldIdentity","type":"address","indexed":true,"internalType":"address"},{"name":"newIdentity","type":"address","indexed":true,"internalType":"address"}],"anonymous":false},{"type":"event","name":"OwnershipTransferred","inputs":[{"name":"previousOwner","type":"address","indexed":true,"internalType":"address"},{"name":"newOwner","type":"address","indexed":true,"internalType":"address"}],"anonymous":false},{"type":"error","name":"OwnableInvalidOwner","inputs":[{"name":"owner","type":"address","internalType":"address"}]},{"type":"error","name":"OwnableUnauthorizedAccount","inputs":[{"name":"account","type":"address","internalType":"address"}]}],"bytecode":{"object":"0x608060405234801561000f575f5ffd5b50604051611561380380611561833981810160405281019061003191906101d7565b805f73ffffffffffffffffffffffffffffffffffffffff168173ffffffffffffffffffffffffffffffffffffffff16036100a2575f6040517f1e4fbdf70000000000000000000000000000000000000000000000000000000081526004016100999190610211565b60405180910390fd5b6100b1816100b860201b60201c565b505061022a565b5f5f5f9054906101000a900473ffffffffffffffffffffffffffffffffffffffff169050815f5f6101000a81548173ffffffffffffffffffffffffffffffffffffffff021916908373ffffffffffffffffffffffffffffffffffffffff1602179055508173ffffffffffffffffffffffffffffffffffffffff168173ffffffffffffffffffffffffffffffffffffffff167f8be0079c531659141344cd1fd0a4f28419497f9722a3daafe3b4186f6b6457e060405160405180910390a35050565b5f5ffd5b5f73ffffffffffffffffffffffffffffffffffffffff82169050919050565b5f6101a68261017d565b9050919050565b6101b68161019c565b81146101c0575f5ffd5b50565b5f815190506101d1816101ad565b92915050565b5f602082840312156101ec576101eb610179565b5b5f6101f9848285016101c3565b91505092915050565b61020b8161019c565b82525050565b5f6020820190506102245f830184610202565b92915050565b61132a806102375f395ff3fe608060405234801561000f575f5ffd5b506004361061009c575f3560e01c80638da5cb5b116100645780638da5cb5b146101445780638e098ca114610162578063c1f2f1aa1461017e578063c3c5a5471461019a578063f2fde38b146101ca5761009c565b80632fea7b81146100a0578063508c7cdc146100d0578063715018a614610100578063781f5a831461010a57806386a6993514610126575b5f5ffd5b6100ba60048036038101906100b59190610ed8565b6101e6565b6040516100c79190610f12565b60405180910390f35b6100ea60048036038101906100e59190610f5e565b61024b565b6040516100f79190610f12565b60405180910390f35b6101086102d6565b005b610124600480360381019061011f9190610f89565b6102e9565b005b61012e6105e5565b60405161013b9190610fd6565b60405180910390f35b61014c6105f1565b6040516101599190610f12565b60405180910390f35b61017c60048036038101906101779190610f89565b610618565b005b61019860048036038101906101939190610ed8565b6108d6565b005b6101b460048036038101906101af9190610ed8565b610c55565b6040516101c19190611009565b60405180910390f35b6101e460048036038101906101df9190610ed8565b610ca7565b005b5f60015f8373ffffffffffffffffffffffffffffffffffffffff1673ffffffffffffffffffffffffffffffffffffffff1681526020019081526020015f205f9054906101000a900473ffffffffffffffffffffffffffffffffffffffff169050919050565b5f6003805490508210610293576040517f08c379a000000000000000000000000000000000000000000000000000000000815260040161028a9061107c565b60405180910390fd5b600382815481106102a7576102a661109a565b5b905f5260205f20015f9054906101000a900473ffffffffffffffffffffffffffffffffffffffff169050919050565b6102de610d2b565b6102e75f610db2565b565b6102f1610d2b565b5f73ffffffffffffffffffffffffffffffffffffffff168273ffffffffffffffffffffffffffffffffffffffff160361035f576040517f08c379a000000000000000000000000000000000000000000000000000000000815260040161035690611111565b60405180910390fd5b5f73ffffffffffffffffffffffffffffffffffffffff168173ffffffffffffffffffffffffffffffffffffffff16036103cd576040517f08c379a00000000000000000000000000000000000000000000000000000000081526004016103c490611179565b60405180910390fd5b60025f8373ffffffffffffffffffffffffffffffffffffffff1673ffffffffffffffffffffffffffffffffffffffff1681526020019081526020015f205f9054906101000a900460ff1615610457576040517f08c379a000000000000000000000000000000000000000000000000000000000815260040161044e906111e1565b60405180910390fd5b8060015f8473ffffffffffffffffffffffffffffffffffffffff1673ffffffffffffffffffffffffffffffffffffffff1681526020019081526020015f205f6101000a81548173ffffffffffffffffffffffffffffffffffffffff021916908373ffffffffffffffffffffffffffffffffffffffff160217905550600160025f8473ffffffffffffffffffffffffffffffffffffffff1673ffffffffffffffffffffffffffffffffffffffff1681526020019081526020015f205f6101000a81548160ff021916908315150217905550600382908060018154018082558091505060019003905f5260205f20015f9091909190916101000a81548173ffffffffffffffffffffffffffffffffffffffff021916908373ffffffffffffffffffffffffffffffffffffffff1602179055508073ffffffffffffffffffffffffffffffffffffffff168273ffffffffffffffffffffffffffffffffffffffff167f6ae73635c50d24a45af6fbd5e016ac4bed179addbc8bf24e04ff0fcc6d33af1960405160405180910390a35050565b5f600380549050905090565b5f5f5f9054906101000a900473ffffffffffffffffffffffffffffffffffffffff16905090565b610620610d2b565b5f73ffffffffffffffffffffffffffffffffffffffff168273ffffffffffffffffffffffffffffffffffffffff160361068e576040517f08c379a000000000000000000000000000000000000000000000000000000000815260040161068590611111565b60405180910390fd5b5f73ffffffffffffffffffffffffffffffffffffffff168173ffffffffffffffffffffffffffffffffffffffff16036106fc576040517f08c379a00000000000000000000000000000000000000000000000000000000081526004016106f390611179565b60405180910390fd5b60025f8373ffffffffffffffffffffffffffffffffffffffff1673ffffffffffffffffffffffffffffffffffffffff1681526020019081526020015f205f9054906101000a900460ff16610785576040517f08c379a000000000000000000000000000000000000000000000000000000000815260040161077c90611249565b60405180910390fd5b5f60015f8473ffffffffffffffffffffffffffffffffffffffff1673ffffffffffffffffffffffffffffffffffffffff1681526020019081526020015f205f9054906101000a900473ffffffffffffffffffffffffffffffffffffffff1690508160015f8573ffffffffffffffffffffffffffffffffffffffff1673ffffffffffffffffffffffffffffffffffffffff1681526020019081526020015f205f6101000a81548173ffffffffffffffffffffffffffffffffffffffff021916908373ffffffffffffffffffffffffffffffffffffffff1602179055508173ffffffffffffffffffffffffffffffffffffffff168173ffffffffffffffffffffffffffffffffffffffff168473ffffffffffffffffffffffffffffffffffffffff167f9e8fe855fb89edef1315cb1d05f3b5e083450023e05286452fe6bee9179aca8c60405160405180910390a4505050565b6108de610d2b565b60025f8273ffffffffffffffffffffffffffffffffffffffff1673ffffffffffffffffffffffffffffffffffffffff1681526020019081526020015f205f9054906101000a900460ff16610967576040517f08c379a000000000000000000000000000000000000000000000000000000000815260040161095e90611249565b60405180910390fd5b5f60015f8373ffffffffffffffffffffffffffffffffffffffff1673ffffffffffffffffffffffffffffffffffffffff1681526020019081526020015f205f9054906101000a900473ffffffffffffffffffffffffffffffffffffffff16905060015f8373ffffffffffffffffffffffffffffffffffffffff1673ffffffffffffffffffffffffffffffffffffffff1681526020019081526020015f205f6101000a81549073ffffffffffffffffffffffffffffffffffffffff02191690555f60025f8473ffffffffffffffffffffffffffffffffffffffff1673ffffffffffffffffffffffffffffffffffffffff1681526020019081526020015f205f6101000a81548160ff0219169083151502179055505f5f90505b600380549050811015610bf6578273ffffffffffffffffffffffffffffffffffffffff1660038281548110610ab757610ab661109a565b5b905f5260205f20015f9054906101000a900473ffffffffffffffffffffffffffffffffffffffff1673ffffffffffffffffffffffffffffffffffffffff1603610be95760036001600380549050610b0e9190611294565b81548110610b1f57610b1e61109a565b5b905f5260205f20015f9054906101000a900473ffffffffffffffffffffffffffffffffffffffff1660038281548110610b5b57610b5a61109a565b5b905f5260205f20015f6101000a81548173ffffffffffffffffffffffffffffffffffffffff021916908373ffffffffffffffffffffffffffffffffffffffff1602179055506003805480610bb257610bb16112c7565b5b600190038181905f5260205f20015f6101000a81549073ffffffffffffffffffffffffffffffffffffffff02191690559055610bf6565b8080600101915050610a7f565b508073ffffffffffffffffffffffffffffffffffffffff168273ffffffffffffffffffffffffffffffffffffffff167f59d6590e225b81befe259af056324092801080acbb7feab310eb34678871f32760405160405180910390a35050565b5f60025f8373ffffffffffffffffffffffffffffffffffffffff1673ffffffffffffffffffffffffffffffffffffffff1681526020019081526020015f205f9054906101000a900460ff169050919050565b610caf610d2b565b5f73ffffffffffffffffffffffffffffffffffffffff168173ffffffffffffffffffffffffffffffffffffffff1603610d1f575f6040517f1e4fbdf7000000000000000000000000000000000000000000000000000000008152600401610d169190610f12565b60405180910390fd5b610d2881610db2565b50565b610d33610e73565b73ffffffffffffffffffffffffffffffffffffffff16610d516105f1565b73ffffffffffffffffffffffffffffffffffffffff1614610db057610d74610e73565b6040517f118cdaa7000000000000000000000000000000000000000000000000000000008152600401610da79190610f12565b60405180910390fd5b565b5f5f5f9054906101000a900473ffffffffffffffffffffffffffffffffffffffff169050815f5f6101000a81548173ffffffffffffffffffffffffffffffffffffffff021916908373ffffffffffffffffffffffffffffffffffffffff1602179055508173ffffffffffffffffffffffffffffffffffffffff168173ffffffffffffffffffffffffffffffffffffffff167f8be0079c531659141344cd1fd0a4f28419497f9722a3daafe3b4186f6b6457e060405160405180910390a35050565b5f33905090565b5f5ffd5b5f73ffffffffffffffffffffffffffffffffffffffff82169050919050565b5f610ea782610e7e565b9050919050565b610eb781610e9d565b8114610ec1575f5ffd5b50565b5f81359050610ed281610eae565b92915050565b5f60208284031215610eed57610eec610e7a565b5b5f610efa84828501610ec4565b91505092915050565b610f0c81610e9d565b82525050565b5f602082019050610f255f830184610f03565b92915050565b5f819050919050565b610f3d81610f2b565b8114610f47575f5ffd5b50565b5f81359050610f5881610f34565b92915050565b5f60208284031215610f7357610f72610e7a565b5b5f610f8084828501610f4a565b91505092915050565b5f5f60408385031215610f9f57610f9e610e7a565b5b5f610fac85828601610ec4565b9250506020610fbd85828601610ec4565b9150509250929050565b610fd081610f2b565b82525050565b5f602082019050610fe95f830184610fc7565b92915050565b5f8115159050919050565b61100381610fef565b82525050565b5f60208201905061101c5f830184610ffa565b92915050565b5f82825260208201905092915050565b7f496e646578206f7574206f6620626f756e6473000000000000000000000000005f82015250565b5f611066601383611022565b915061107182611032565b602082019050919050565b5f6020820190508181035f8301526110938161105a565b9050919050565b7f4e487b71000000000000000000000000000000000000000000000000000000005f52603260045260245ffd5b7f496e76616c69642077616c6c65742061646472657373000000000000000000005f82015250565b5f6110fb601683611022565b9150611106826110c7565b602082019050919050565b5f6020820190508181035f830152611128816110ef565b9050919050565b7f496e76616c6964206964656e74697479206164647265737300000000000000005f82015250565b5f611163601883611022565b915061116e8261112f565b602082019050919050565b5f6020820190508181035f83015261119081611157565b9050919050565b7f57616c6c657420616c72656164792072656769737465726564000000000000005f82015250565b5f6111cb601983611022565b91506111d682611197565b602082019050919050565b5f6020820190508181035f8301526111f8816111bf565b9050919050565b7f57616c6c6574206e6f74207265676973746572656400000000000000000000005f82015250565b5f611233601583611022565b915061123e826111ff565b602082019050919050565b5f6020820190508181035f83015261126081611227565b9050919050565b7f4e487b71000000000000000000000000000000000000000000000000000000005f52601160045260245ffd5b5f61129e82610f2b565b91506112a983610f2b565b92508282039050818111156112c1576112c0611267565b5b92915050565b7f4e487b71000000000000000000000000000000000000000000000000000000005f52603160045260245ffdfea2646970667358221220cc0ca0718f5f623155b5b0f8a9d84a92fbc0cf5265332026a4627d855cbe49fa64736f6c634300081e0033","linkReferences":{}},"methodIdentifiers":{"getIdentity(address)":"2fea7b81","getRegisteredAddress(uint256)":"508c7cdc","getRegisteredCount()":"86a69935","isRegistered(address)":"c3c5a547","owner()":"8da5cb5b","registerIdentity(address,address)":"781f5a83","removeIdentity(address)":"c1f2f1aa","renounceOwnership()":"715018a6","transferOwnership(address)":"f2fde38b","updateIdentity(address,address)":"8e098ca1"},"id":38}